{
	"contracts/WavyNFT.sol": {
		"WavyNFT": {
			"abi": [
				{
					"inputs": [],
					"stateMutability": "nonpayable",
					"type": "constructor"
				},
				{
					"anonymous": false,
					"inputs": [
						{
							"indexed": true,
							"internalType": "address",
							"name": "owner",
							"type": "address"
						},
						{
							"indexed": true,
							"internalType": "address",
							"name": "approved",
							"type": "address"
						},
						{
							"indexed": true,
							"internalType": "uint256",
							"name": "tokenId",
							"type": "uint256"
						}
					],
					"name": "Approval",
					"type": "event"
				},
				{
					"anonymous": false,
					"inputs": [
						{
							"indexed": true,
							"internalType": "address",
							"name": "owner",
							"type": "address"
						},
						{
							"indexed": true,
							"internalType": "address",
							"name": "operator",
							"type": "address"
						},
						{
							"indexed": false,
							"internalType": "bool",
							"name": "approved",
							"type": "bool"
						}
					],
					"name": "ApprovalForAll",
					"type": "event"
				},
				{
					"anonymous": false,
					"inputs": [
						{
							"indexed": true,
							"internalType": "address",
							"name": "from",
							"type": "address"
						},
						{
							"indexed": true,
							"internalType": "address",
							"name": "to",
							"type": "address"
						},
						{
							"indexed": true,
							"internalType": "uint256",
							"name": "tokenId",
							"type": "uint256"
						}
					],
					"name": "Transfer",
					"type": "event"
				},
				{
					"inputs": [
						{
							"internalType": "address",
							"name": "to",
							"type": "address"
						},
						{
							"internalType": "uint256",
							"name": "tokenId",
							"type": "uint256"
						}
					],
					"name": "approve",
					"outputs": [],
					"stateMutability": "nonpayable",
					"type": "function"
				},
				{
					"inputs": [
						{
							"internalType": "address",
							"name": "addr",
							"type": "address"
						},
						{
							"internalType": "string",
							"name": "tokenURI",
							"type": "string"
						}
					],
					"name": "awardItem",
					"outputs": [
						{
							"internalType": "uint256",
							"name": "",
							"type": "uint256"
						}
					],
					"stateMutability": "nonpayable",
					"type": "function"
				},
				{
					"inputs": [
						{
							"internalType": "address",
							"name": "owner",
							"type": "address"
						}
					],
					"name": "balanceOf",
					"outputs": [
						{
							"internalType": "uint256",
							"name": "",
							"type": "uint256"
						}
					],
					"stateMutability": "view",
					"type": "function"
				},
				{
					"inputs": [
						{
							"internalType": "uint256",
							"name": "tokenId",
							"type": "uint256"
						}
					],
					"name": "getApproved",
					"outputs": [
						{
							"internalType": "address",
							"name": "",
							"type": "address"
						}
					],
					"stateMutability": "view",
					"type": "function"
				},
				{
					"inputs": [
						{
							"internalType": "address",
							"name": "owner",
							"type": "address"
						},
						{
							"internalType": "address",
							"name": "operator",
							"type": "address"
						}
					],
					"name": "isApprovedForAll",
					"outputs": [
						{
							"internalType": "bool",
							"name": "",
							"type": "bool"
						}
					],
					"stateMutability": "view",
					"type": "function"
				},
				{
					"inputs": [],
					"name": "name",
					"outputs": [
						{
							"internalType": "string",
							"name": "",
							"type": "string"
						}
					],
					"stateMutability": "view",
					"type": "function"
				},
				{
					"inputs": [
						{
							"internalType": "uint256",
							"name": "tokenId",
							"type": "uint256"
						}
					],
					"name": "ownerOf",
					"outputs": [
						{
							"internalType": "address",
							"name": "",
							"type": "address"
						}
					],
					"stateMutability": "view",
					"type": "function"
				},
				{
					"inputs": [
						{
							"internalType": "address",
							"name": "from",
							"type": "address"
						},
						{
							"internalType": "address",
							"name": "to",
							"type": "address"
						},
						{
							"internalType": "uint256",
							"name": "tokenId",
							"type": "uint256"
						}
					],
					"name": "safeTransferFrom",
					"outputs": [],
					"stateMutability": "nonpayable",
					"type": "function"
				},
				{
					"inputs": [
						{
							"internalType": "address",
							"name": "from",
							"type": "address"
						},
						{
							"internalType": "address",
							"name": "to",
							"type": "address"
						},
						{
							"internalType": "uint256",
							"name": "tokenId",
							"type": "uint256"
						},
						{
							"internalType": "bytes",
							"name": "_data",
							"type": "bytes"
						}
					],
					"name": "safeTransferFrom",
					"outputs": [],
					"stateMutability": "nonpayable",
					"type": "function"
				},
				{
					"inputs": [
						{
							"internalType": "address",
							"name": "operator",
							"type": "address"
						},
						{
							"internalType": "bool",
							"name": "approved",
							"type": "bool"
						}
					],
					"name": "setApprovalForAll",
					"outputs": [],
					"stateMutability": "nonpayable",
					"type": "function"
				},
				{
					"inputs": [
						{
							"internalType": "bytes4",
							"name": "interfaceId",
							"type": "bytes4"
						}
					],
					"name": "supportsInterface",
					"outputs": [
						{
							"internalType": "bool",
							"name": "",
							"type": "bool"
						}
					],
					"stateMutability": "view",
					"type": "function"
				},
				{
					"inputs": [],
					"name": "symbol",
					"outputs": [
						{
							"internalType": "string",
							"name": "",
							"type": "string"
						}
					],
					"stateMutability": "view",
					"type": "function"
				},
				{
					"inputs": [
						{
							"internalType": "uint256",
							"name": "tokenId",
							"type": "uint256"
						}
					],
					"name": "tokenURI",
					"outputs": [
						{
							"internalType": "string",
							"name": "",
							"type": "string"
						}
					],
					"stateMutability": "view",
					"type": "function"
				},
				{
					"inputs": [
						{
							"internalType": "address",
							"name": "from",
							"type": "address"
						},
						{
							"internalType": "address",
							"name": "to",
							"type": "address"
						},
						{
							"internalType": "uint256",
							"name": "tokenId",
							"type": "uint256"
						}
					],
					"name": "transferFrom",
					"outputs": [],
					"stateMutability": "nonpayable",
					"type": "function"
				}
			],
			"devdoc": {
				"kind": "dev",
				"methods": {
					"approve(address,uint256)": {
						"details": "See {IERC721-approve}."
					},
					"balanceOf(address)": {
						"details": "See {IERC721-balanceOf}."
					},
					"getApproved(uint256)": {
						"details": "See {IERC721-getApproved}."
					},
					"isApprovedForAll(address,address)": {
						"details": "See {IERC721-isApprovedForAll}."
					},
					"name()": {
						"details": "See {IERC721Metadata-name}."
					},
					"ownerOf(uint256)": {
						"details": "See {IERC721-ownerOf}."
					},
					"safeTransferFrom(address,address,uint256)": {
						"details": "See {IERC721-safeTransferFrom}."
					},
					"safeTransferFrom(address,address,uint256,bytes)": {
						"details": "See {IERC721-safeTransferFrom}."
					},
					"setApprovalForAll(address,bool)": {
						"details": "See {IERC721-setApprovalForAll}."
					},
					"supportsInterface(bytes4)": {
						"details": "See {IERC165-supportsInterface}."
					},
					"symbol()": {
						"details": "See {IERC721Metadata-symbol}."
					},
					"tokenURI(uint256)": {
						"details": "See {IERC721Metadata-tokenURI}."
					},
					"transferFrom(address,address,uint256)": {
						"details": "See {IERC721-transferFrom}."
					}
				},
				"version": 1
			},
			"evm": {
				"assembly": "    /* \"contracts/WavyNFT.sol\":198:885  contract WavyNFT is ERC721URIStorage {\r... */\n  mstore(0x40, 0x80)\n    /* \"contracts/WavyNFT.sol\":359:409  constructor() ERC721(\"WavyNFT\", \"WAVY\") {\r... */\n  callvalue\n  dup1\n  iszero\n  tag_1\n  jumpi\n  0x00\n  dup1\n  revert\ntag_1:\n  pop\n    /* \"@openzeppelin/contracts/token/ERC721/ERC721.sol\":1375:1488  constructor(string memory name_, string memory symbol_) {... */\n  0x40\n  dup1\n  mload\n  dup1\n  dup3\n  add\n  dup3\n  mstore\n  0x07\n  dup2\n  mstore\n  shl(0xca, 0x15d85d9e539195)\n  0x20\n  dup1\n  dup4\n  add\n  swap2\n  dup3\n  mstore\n  dup4\n  mload\n  dup1\n  dup6\n  add\n  swap1\n  swap5\n  mstore\n  0x04\n  dup5\n  mstore\n  shl(0xe0, 0x57415659)\n  swap1\n  dup5\n  add\n  mstore\n    /* \"@openzeppelin/contracts/token/ERC721/ERC721.sol\":1441:1454  _name = name_ */\n  dup2\n  mload\n    /* \"@openzeppelin/contracts/token/ERC721/ERC721.sol\":1375:1488  constructor(string memory name_, string memory symbol_) {... */\n  swap2\n  swap3\n  swap2\n    /* \"@openzeppelin/contracts/token/ERC721/ERC721.sol\":1441:1454  _name = name_ */\n  tag_5\n  swap2\n  0x00\n  swap2\n  tag_6\n  jump\t// in\ntag_5:\n  pop\n    /* \"@openzeppelin/contracts/token/ERC721/ERC721.sol\":1464:1481  _symbol = symbol_ */\n  dup1\n  mload\n  tag_7\n  swap1\n    /* \"@openzeppelin/contracts/token/ERC721/ERC721.sol\":1464:1471  _symbol */\n  0x01\n  swap1\n    /* \"@openzeppelin/contracts/token/ERC721/ERC721.sol\":1464:1481  _symbol = symbol_ */\n  0x20\n  dup5\n  add\n  swap1\n  tag_6\n  jump\t// in\ntag_7:\n  pop\n    /* \"@openzeppelin/contracts/token/ERC721/ERC721.sol\":1375:1488  constructor(string memory name_, string memory symbol_) {... */\n  pop\n  pop\n    /* \"contracts/WavyNFT.sol\":198:885  contract WavyNFT is ERC721URIStorage {\r... */\n  jump(tag_21)\ntag_6:\n  dup3\n  dup1\n  sload\n  tag_10\n  swap1\n  tag_11\n  jump\t// in\ntag_10:\n  swap1\n  0x00\n  mstore\n  keccak256(0x00, 0x20)\n  swap1\n  0x1f\n  add\n  0x20\n  swap1\n  div\n  dup2\n  add\n  swap3\n  dup3\n  tag_13\n  jumpi\n  0x00\n  dup6\n  sstore\n  jump(tag_16)\ntag_13:\n  dup3\n  0x1f\n  lt\n  tag_14\n  jumpi\n  dup1\n  mload\n  not(0xff)\n  and\n  dup4\n  dup1\n  add\n  or\n  dup6\n  sstore\n  jump(tag_16)\ntag_14:\n  dup3\n  dup1\n  add\n  0x01\n  add\n  dup6\n  sstore\n  dup3\n  iszero\n  tag_16\n  jumpi\n  swap2\n  dup3\n  add\ntag_15:\n  dup3\n  dup2\n  gt\n  iszero\n  tag_16\n  jumpi\n  dup3\n  mload\n  dup3\n  sstore\n  swap2\n  0x20\n  add\n  swap2\n  swap1\n  0x01\n  add\n  swap1\n  jump(tag_15)\ntag_16:\n  pop\n  tag_17\n  swap3\n  swap2\n  pop\n  tag_18\n  jump\t// in\ntag_17:\n  pop\n  swap1\n  jump\t// out\ntag_18:\ntag_19:\n  dup1\n  dup3\n  gt\n  iszero\n  tag_17\n  jumpi\n  0x00\n  dup2\n  sstore\n  0x01\n  add\n  jump(tag_19)\n    /* \"#utility.yul\":14:394   */\ntag_11:\n    /* \"#utility.yul\":93:94   */\n  0x01\n    /* \"#utility.yul\":89:101   */\n  dup2\n  dup2\n  shr\n  swap1\n    /* \"#utility.yul\":136:148   */\n  dup3\n  and\n  dup1\n    /* \"#utility.yul\":157:218   */\n  tag_23\n  jumpi\n    /* \"#utility.yul\":211:215   */\n  0x7f\n    /* \"#utility.yul\":203:209   */\n  dup3\n    /* \"#utility.yul\":199:216   */\n  and\n    /* \"#utility.yul\":189:216   */\n  swap2\n  pop\n    /* \"#utility.yul\":157:218   */\ntag_23:\n    /* \"#utility.yul\":264:266   */\n  0x20\n    /* \"#utility.yul\":256:262   */\n  dup3\n    /* \"#utility.yul\":253:267   */\n  lt\n    /* \"#utility.yul\":233:251   */\n  dup2\n    /* \"#utility.yul\":230:268   */\n  eq\n    /* \"#utility.yul\":227:388   */\n  iszero\n  tag_24\n  jumpi\n    /* \"#utility.yul\":310:320   */\n  0x4e487b71\n    /* \"#utility.yul\":305:308   */\n  0xe0\n    /* \"#utility.yul\":301:321   */\n  shl\n    /* \"#utility.yul\":298:299   */\n  0x00\n    /* \"#utility.yul\":291:322   */\n  mstore\n    /* \"#utility.yul\":345:349   */\n  0x22\n    /* \"#utility.yul\":342:343   */\n  0x04\n    /* \"#utility.yul\":335:350   */\n  mstore\n    /* \"#utility.yul\":373:377   */\n  0x24\n    /* \"#utility.yul\":370:371   */\n  0x00\n    /* \"#utility.yul\":363:378   */\n  revert\n    /* \"#utility.yul\":227:388   */\ntag_24:\n  pop\n    /* \"#utility.yul\":14:394   */\n  swap2\n  swap1\n  pop\n  jump\t// out\ntag_21:\n    /* \"contracts/WavyNFT.sol\":198:885  contract WavyNFT is ERC721URIStorage {\r... */\n  dataSize(sub_0)\n  dup1\n  dataOffset(sub_0)\n  0x00\n  codecopy\n  0x00\n  return\nstop\n\nsub_0: assembly {\n        /* \"contracts/WavyNFT.sol\":198:885  contract WavyNFT is ERC721URIStorage {\r... */\n      mstore(0x40, 0x80)\n      callvalue\n      dup1\n      iszero\n      tag_1\n      jumpi\n      0x00\n      dup1\n      revert\n    tag_1:\n      pop\n      jumpi(tag_2, lt(calldatasize, 0x04))\n      shr(0xe0, calldataload(0x00))\n      dup1\n      0x70a08231\n      gt\n      tag_17\n      jumpi\n      dup1\n      0xb88d4fde\n      gt\n      tag_18\n      jumpi\n      dup1\n      0xb88d4fde\n      eq\n      tag_13\n      jumpi\n      dup1\n      0xc87b56dd\n      eq\n      tag_14\n      jumpi\n      dup1\n      0xcf378343\n      eq\n      tag_15\n      jumpi\n      dup1\n      0xe985e9c5\n      eq\n      tag_16\n      jumpi\n      0x00\n      dup1\n      revert\n    tag_18:\n      dup1\n      0x70a08231\n      eq\n      tag_10\n      jumpi\n      dup1\n      0x95d89b41\n      eq\n      tag_11\n      jumpi\n      dup1\n      0xa22cb465\n      eq\n      tag_12\n      jumpi\n      0x00\n      dup1\n      revert\n    tag_17:\n      dup1\n      0x095ea7b3\n      gt\n      tag_19\n      jumpi\n      dup1\n      0x095ea7b3\n      eq\n      tag_6\n      jumpi\n      dup1\n      0x23b872dd\n      eq\n      tag_7\n      jumpi\n      dup1\n      0x42842e0e\n      eq\n      tag_8\n      jumpi\n      dup1\n      0x6352211e\n      eq\n      tag_9\n      jumpi\n      0x00\n      dup1\n      revert\n    tag_19:\n      dup1\n      0x01ffc9a7\n      eq\n      tag_3\n      jumpi\n      dup1\n      0x06fdde03\n      eq\n      tag_4\n      jumpi\n      dup1\n      0x081812fc\n      eq\n      tag_5\n      jumpi\n    tag_2:\n      0x00\n      dup1\n      revert\n        /* \"@openzeppelin/contracts/token/ERC721/ERC721.sol\":1555:1855  function supportsInterface(bytes4 interfaceId) public view virtual override(ERC165, IERC165) returns (bool) {... */\n    tag_3:\n      tag_20\n      tag_21\n      calldatasize\n      0x04\n      tag_22\n      jump\t// in\n    tag_21:\n      tag_23\n      jump\t// in\n    tag_20:\n      mload(0x40)\n        /* \"#utility.yul\":5720:5734   */\n      swap1\n      iszero\n        /* \"#utility.yul\":5713:5735   */\n      iszero\n        /* \"#utility.yul\":5695:5736   */\n      dup2\n      mstore\n        /* \"#utility.yul\":5683:5685   */\n      0x20\n        /* \"#utility.yul\":5668:5686   */\n      add\n        /* \"@openzeppelin/contracts/token/ERC721/ERC721.sol\":1555:1855  function supportsInterface(bytes4 interfaceId) public view virtual override(ERC165, IERC165) returns (bool) {... */\n    tag_24:\n      mload(0x40)\n      dup1\n      swap2\n      sub\n      swap1\n      return\n        /* \"@openzeppelin/contracts/token/ERC721/ERC721.sol\":2473:2571  function name() public view virtual override returns (string memory) {... */\n    tag_4:\n      tag_26\n      tag_27\n      jump\t// in\n    tag_26:\n      mload(0x40)\n      tag_24\n      swap2\n      swap1\n      tag_29\n      jump\t// in\n        /* \"@openzeppelin/contracts/token/ERC721/ERC721.sol\":3984:4201  function getApproved(uint256 tokenId) public view virtual override returns (address) {... */\n    tag_5:\n      tag_30\n      tag_31\n      calldatasize\n      0x04\n      tag_32\n      jump\t// in\n    tag_31:\n      tag_33\n      jump\t// in\n    tag_30:\n      mload(0x40)\n      sub(shl(0xa0, 0x01), 0x01)\n        /* \"#utility.yul\":5018:5050   */\n      swap1\n      swap2\n      and\n        /* \"#utility.yul\":5000:5051   */\n      dup2\n      mstore\n        /* \"#utility.yul\":4988:4990   */\n      0x20\n        /* \"#utility.yul\":4973:4991   */\n      add\n        /* \"@openzeppelin/contracts/token/ERC721/ERC721.sol\":3984:4201  function getApproved(uint256 tokenId) public view virtual override returns (address) {... */\n      tag_24\n        /* \"#utility.yul\":4854:5057   */\n      jump\n        /* \"@openzeppelin/contracts/token/ERC721/ERC721.sol\":3522:3923  function approve(address to, uint256 tokenId) public virtual override {... */\n    tag_6:\n      tag_36\n      tag_37\n      calldatasize\n      0x04\n      tag_38\n      jump\t// in\n    tag_37:\n      tag_39\n      jump\t// in\n    tag_36:\n      stop\n        /* \"@openzeppelin/contracts/token/ERC721/ERC721.sol\":4711:5041  function transferFrom(... */\n    tag_7:\n      tag_36\n      tag_41\n      calldatasize\n      0x04\n      tag_42\n      jump\t// in\n    tag_41:\n      tag_43\n      jump\t// in\n        /* \"@openzeppelin/contracts/token/ERC721/ERC721.sol\":5107:5286  function safeTransferFrom(... */\n    tag_8:\n      tag_36\n      tag_45\n      calldatasize\n      0x04\n      tag_42\n      jump\t// in\n    tag_45:\n      tag_46\n      jump\t// in\n        /* \"@openzeppelin/contracts/token/ERC721/ERC721.sol\":2176:2411  function ownerOf(uint256 tokenId) public view virtual override returns (address) {... */\n    tag_9:\n      tag_30\n      tag_48\n      calldatasize\n      0x04\n      tag_32\n      jump\t// in\n    tag_48:\n      tag_49\n      jump\t// in\n        /* \"@openzeppelin/contracts/token/ERC721/ERC721.sol\":1914:2119  function balanceOf(address owner) public view virtual override returns (uint256) {... */\n    tag_10:\n      tag_51\n      tag_52\n      calldatasize\n      0x04\n      tag_53\n      jump\t// in\n    tag_52:\n      tag_54\n      jump\t// in\n    tag_51:\n      mload(0x40)\n        /* \"#utility.yul\":12564:12589   */\n      swap1\n      dup2\n      mstore\n        /* \"#utility.yul\":12552:12554   */\n      0x20\n        /* \"#utility.yul\":12537:12555   */\n      add\n        /* \"@openzeppelin/contracts/token/ERC721/ERC721.sol\":1914:2119  function balanceOf(address owner) public view virtual override returns (uint256) {... */\n      tag_24\n        /* \"#utility.yul\":12418:12595   */\n      jump\n        /* \"@openzeppelin/contracts/token/ERC721/ERC721.sol\":2635:2737  function symbol() public view virtual override returns (string memory) {... */\n    tag_11:\n      tag_26\n      tag_58\n      jump\t// in\n        /* \"@openzeppelin/contracts/token/ERC721/ERC721.sol\":4268:4421  function setApprovalForAll(address operator, bool approved) public virtual override {... */\n    tag_12:\n      tag_36\n      tag_61\n      calldatasize\n      0x04\n      tag_62\n      jump\t// in\n    tag_61:\n      tag_63\n      jump\t// in\n        /* \"@openzeppelin/contracts/token/ERC721/ERC721.sol\":5352:5672  function safeTransferFrom(... */\n    tag_13:\n      tag_36\n      tag_65\n      calldatasize\n      0x04\n      tag_66\n      jump\t// in\n    tag_65:\n      tag_67\n      jump\t// in\n        /* \"@openzeppelin/contracts/token/ERC721/extensions/ERC721URIStorage.sol\":467:1130  function tokenURI(uint256 tokenId) public view virtual override returns (string memory) {... */\n    tag_14:\n      tag_26\n      tag_69\n      calldatasize\n      0x04\n      tag_32\n      jump\t// in\n    tag_69:\n      tag_70\n      jump\t// in\n        /* \"contracts/WavyNFT.sol\":452:882  function awardItem(address addr, string memory tokenURI) public returns (uint256)\r... */\n    tag_15:\n      tag_51\n      tag_73\n      calldatasize\n      0x04\n      tag_74\n      jump\t// in\n    tag_73:\n      tag_75\n      jump\t// in\n        /* \"@openzeppelin/contracts/token/ERC721/ERC721.sol\":4487:4649  function isApprovedForAll(address owner, address operator) public view virtual override returns (bool) {... */\n    tag_16:\n      tag_20\n      tag_78\n      calldatasize\n      0x04\n      tag_79\n      jump\t// in\n    tag_78:\n      sub(shl(0xa0, 0x01), 0x01)\n        /* \"@openzeppelin/contracts/token/ERC721/ERC721.sol\":4607:4632  _operatorApprovals[owner] */\n      swap2\n      dup3\n      and\n        /* \"@openzeppelin/contracts/token/ERC721/ERC721.sol\":4584:4588  bool */\n      0x00\n        /* \"@openzeppelin/contracts/token/ERC721/ERC721.sol\":4607:4632  _operatorApprovals[owner] */\n      swap1\n      dup2\n      mstore\n        /* \"@openzeppelin/contracts/token/ERC721/ERC721.sol\":4607:4625  _operatorApprovals */\n      0x05\n        /* \"@openzeppelin/contracts/token/ERC721/ERC721.sol\":4607:4632  _operatorApprovals[owner] */\n      0x20\n      swap1\n      dup2\n      mstore\n      0x40\n      dup1\n      dup4\n      keccak256\n        /* \"@openzeppelin/contracts/token/ERC721/ERC721.sol\":4607:4642  _operatorApprovals[owner][operator] */\n      swap4\n      swap1\n      swap5\n      and\n      dup3\n      mstore\n      swap2\n      swap1\n      swap2\n      mstore\n      keccak256\n      sload\n      0xff\n      and\n      swap1\n        /* \"@openzeppelin/contracts/token/ERC721/ERC721.sol\":4487:4649  function isApprovedForAll(address owner, address operator) public view virtual override returns (bool) {... */\n      jump\n        /* \"@openzeppelin/contracts/token/ERC721/ERC721.sol\":1555:1855  function supportsInterface(bytes4 interfaceId) public view virtual override(ERC165, IERC165) returns (bool) {... */\n    tag_23:\n        /* \"@openzeppelin/contracts/token/ERC721/ERC721.sol\":1657:1661  bool */\n      0x00\n      not(sub(shl(0xe0, 0x01), 0x01))\n        /* \"@openzeppelin/contracts/token/ERC721/ERC721.sol\":1692:1732  interfaceId == type(IERC721).interfaceId */\n      dup3\n      and\n      shl(0xe0, 0x80ac58cd)\n      eq\n      dup1\n        /* \"@openzeppelin/contracts/token/ERC721/ERC721.sol\":1692:1796  interfaceId == type(IERC721).interfaceId ||... */\n      tag_83\n      jumpi\n      pop\n      not(sub(shl(0xe0, 0x01), 0x01))\n        /* \"@openzeppelin/contracts/token/ERC721/ERC721.sol\":1748:1796  interfaceId == type(IERC721Metadata).interfaceId */\n      dup3\n      and\n      shl(0xe0, 0x5b5e139f)\n      eq\n        /* \"@openzeppelin/contracts/token/ERC721/ERC721.sol\":1692:1796  interfaceId == type(IERC721).interfaceId ||... */\n    tag_83:\n        /* \"@openzeppelin/contracts/token/ERC721/ERC721.sol\":1692:1848  interfaceId == type(IERC721).interfaceId ||... */\n      dup1\n      tag_85\n      jumpi\n      pop\n      shl(0xe0, 0x01ffc9a7)\n      not(sub(shl(0xe0, 0x01), 0x01))\n        /* \"@openzeppelin/contracts/utils/introspection/ERC165.sol\":937:977  interfaceId == type(IERC165).interfaceId */\n      dup4\n      and\n      eq\n        /* \"@openzeppelin/contracts/token/ERC721/ERC721.sol\":1812:1848  super.supportsInterface(interfaceId) */\n    tag_85:\n        /* \"@openzeppelin/contracts/token/ERC721/ERC721.sol\":1673:1848  return... */\n      swap3\n        /* \"@openzeppelin/contracts/token/ERC721/ERC721.sol\":1555:1855  function supportsInterface(bytes4 interfaceId) public view virtual override(ERC165, IERC165) returns (bool) {... */\n      swap2\n      pop\n      pop\n      jump\t// out\n        /* \"@openzeppelin/contracts/token/ERC721/ERC721.sol\":2473:2571  function name() public view virtual override returns (string memory) {... */\n    tag_27:\n        /* \"@openzeppelin/contracts/token/ERC721/ERC721.sol\":2527:2540  string memory */\n      0x60\n        /* \"@openzeppelin/contracts/token/ERC721/ERC721.sol\":2559:2564  _name */\n      0x00\n        /* \"@openzeppelin/contracts/token/ERC721/ERC721.sol\":2552:2564  return _name */\n      dup1\n      sload\n      tag_88\n      swap1\n      tag_89\n      jump\t// in\n    tag_88:\n      dup1\n      0x1f\n      add\n      0x20\n      dup1\n      swap2\n      div\n      mul\n      0x20\n      add\n      mload(0x40)\n      swap1\n      dup2\n      add\n      0x40\n      mstore\n      dup1\n      swap3\n      swap2\n      swap1\n      dup2\n      dup2\n      mstore\n      0x20\n      add\n      dup3\n      dup1\n      sload\n      tag_90\n      swap1\n      tag_89\n      jump\t// in\n    tag_90:\n      dup1\n      iszero\n      tag_91\n      jumpi\n      dup1\n      0x1f\n      lt\n      tag_92\n      jumpi\n      0x0100\n      dup1\n      dup4\n      sload\n      div\n      mul\n      dup4\n      mstore\n      swap2\n      0x20\n      add\n      swap2\n      jump(tag_91)\n    tag_92:\n      dup3\n      add\n      swap2\n      swap1\n      0x00\n      mstore\n      keccak256(0x00, 0x20)\n      swap1\n    tag_93:\n      dup2\n      sload\n      dup2\n      mstore\n      swap1\n      0x01\n      add\n      swap1\n      0x20\n      add\n      dup1\n      dup4\n      gt\n      tag_93\n      jumpi\n      dup3\n      swap1\n      sub\n      0x1f\n      and\n      dup3\n      add\n      swap2\n    tag_91:\n      pop\n      pop\n      pop\n      pop\n      pop\n      swap1\n      pop\n        /* \"@openzeppelin/contracts/token/ERC721/ERC721.sol\":2473:2571  function name() public view virtual override returns (string memory) {... */\n      swap1\n      jump\t// out\n        /* \"@openzeppelin/contracts/token/ERC721/ERC721.sol\":3984:4201  function getApproved(uint256 tokenId) public view virtual override returns (address) {... */\n    tag_33:\n        /* \"@openzeppelin/contracts/token/ERC721/ERC721.sol\":4060:4067  address */\n      0x00\n        /* \"@openzeppelin/contracts/token/ERC721/ERC721.sol\":4087:4103  _exists(tokenId) */\n      tag_95\n        /* \"@openzeppelin/contracts/token/ERC721/ERC721.sol\":4095:4102  tokenId */\n      dup3\n        /* \"@openzeppelin/contracts/token/ERC721/ERC721.sol\":4087:4094  _exists */\n      tag_96\n        /* \"@openzeppelin/contracts/token/ERC721/ERC721.sol\":4087:4103  _exists(tokenId) */\n      jump\t// in\n    tag_95:\n        /* \"@openzeppelin/contracts/token/ERC721/ERC721.sol\":4079:4152  require(_exists(tokenId), \"ERC721: approved query for nonexistent token\") */\n      tag_97\n      jumpi\n      mload(0x40)\n      shl(0xe5, 0x461bcd)\n      dup2\n      mstore\n        /* \"#utility.yul\":10561:10563   */\n      0x20\n        /* \"@openzeppelin/contracts/token/ERC721/ERC721.sol\":4079:4152  require(_exists(tokenId), \"ERC721: approved query for nonexistent token\") */\n      0x04\n      dup3\n      add\n        /* \"#utility.yul\":10543:10564   */\n      mstore\n        /* \"#utility.yul\":10600:10602   */\n      0x2c\n        /* \"#utility.yul\":10580:10598   */\n      0x24\n      dup3\n      add\n        /* \"#utility.yul\":10573:10603   */\n      mstore\n        /* \"#utility.yul\":10639:10673   */\n      0x4552433732313a20617070726f76656420717565727920666f72206e6f6e6578\n        /* \"#utility.yul\":10619:10637   */\n      0x44\n      dup3\n      add\n        /* \"#utility.yul\":10612:10674   */\n      mstore\n      shl(0xa1, 0x34b9ba32b73a103a37b5b2b7)\n        /* \"#utility.yul\":10690:10708   */\n      0x64\n      dup3\n      add\n        /* \"#utility.yul\":10683:10725   */\n      mstore\n        /* \"#utility.yul\":10742:10761   */\n      0x84\n      add\n        /* \"@openzeppelin/contracts/token/ERC721/ERC721.sol\":4079:4152  require(_exists(tokenId), \"ERC721: approved query for nonexistent token\") */\n    tag_98:\n      mload(0x40)\n      dup1\n      swap2\n      sub\n      swap1\n      revert\n    tag_97:\n      pop\n        /* \"@openzeppelin/contracts/token/ERC721/ERC721.sol\":4170:4194  _tokenApprovals[tokenId] */\n      0x00\n      swap1\n      dup2\n      mstore\n        /* \"@openzeppelin/contracts/token/ERC721/ERC721.sol\":4170:4185  _tokenApprovals */\n      0x04\n        /* \"@openzeppelin/contracts/token/ERC721/ERC721.sol\":4170:4194  _tokenApprovals[tokenId] */\n      0x20\n      mstore\n      0x40\n      swap1\n      keccak256\n      sload\n      sub(shl(0xa0, 0x01), 0x01)\n      and\n      swap1\n        /* \"@openzeppelin/contracts/token/ERC721/ERC721.sol\":3984:4201  function getApproved(uint256 tokenId) public view virtual override returns (address) {... */\n      jump\t// out\n        /* \"@openzeppelin/contracts/token/ERC721/ERC721.sol\":3522:3923  function approve(address to, uint256 tokenId) public virtual override {... */\n    tag_39:\n        /* \"@openzeppelin/contracts/token/ERC721/ERC721.sol\":3602:3615  address owner */\n      0x00\n        /* \"@openzeppelin/contracts/token/ERC721/ERC721.sol\":3618:3641  ERC721.ownerOf(tokenId) */\n      tag_101\n        /* \"@openzeppelin/contracts/token/ERC721/ERC721.sol\":3633:3640  tokenId */\n      dup3\n        /* \"@openzeppelin/contracts/token/ERC721/ERC721.sol\":3618:3632  ERC721.ownerOf */\n      tag_49\n        /* \"@openzeppelin/contracts/token/ERC721/ERC721.sol\":3618:3641  ERC721.ownerOf(tokenId) */\n      jump\t// in\n    tag_101:\n        /* \"@openzeppelin/contracts/token/ERC721/ERC721.sol\":3602:3641  address owner = ERC721.ownerOf(tokenId) */\n      swap1\n      pop\n        /* \"@openzeppelin/contracts/token/ERC721/ERC721.sol\":3665:3670  owner */\n      dup1\n      sub(shl(0xa0, 0x01), 0x01)\n        /* \"@openzeppelin/contracts/token/ERC721/ERC721.sol\":3659:3670  to != owner */\n      and\n        /* \"@openzeppelin/contracts/token/ERC721/ERC721.sol\":3659:3661  to */\n      dup4\n      sub(shl(0xa0, 0x01), 0x01)\n        /* \"@openzeppelin/contracts/token/ERC721/ERC721.sol\":3659:3670  to != owner */\n      and\n      eq\n      iszero\n        /* \"@openzeppelin/contracts/token/ERC721/ERC721.sol\":3651:3708  require(to != owner, \"ERC721: approval to current owner\") */\n      tag_102\n      jumpi\n      mload(0x40)\n      shl(0xe5, 0x461bcd)\n      dup2\n      mstore\n        /* \"#utility.yul\":11800:11802   */\n      0x20\n        /* \"@openzeppelin/contracts/token/ERC721/ERC721.sol\":3651:3708  require(to != owner, \"ERC721: approval to current owner\") */\n      0x04\n      dup3\n      add\n        /* \"#utility.yul\":11782:11803   */\n      mstore\n        /* \"#utility.yul\":11839:11841   */\n      0x21\n        /* \"#utility.yul\":11819:11837   */\n      0x24\n      dup3\n      add\n        /* \"#utility.yul\":11812:11842   */\n      mstore\n        /* \"#utility.yul\":11878:11912   */\n      0x4552433732313a20617070726f76616c20746f2063757272656e74206f776e65\n        /* \"#utility.yul\":11858:11876   */\n      0x44\n      dup3\n      add\n        /* \"#utility.yul\":11851:11913   */\n      mstore\n      shl(0xf9, 0x39)\n        /* \"#utility.yul\":11929:11947   */\n      0x64\n      dup3\n      add\n        /* \"#utility.yul\":11922:11953   */\n      mstore\n        /* \"#utility.yul\":11970:11989   */\n      0x84\n      add\n        /* \"@openzeppelin/contracts/token/ERC721/ERC721.sol\":3651:3708  require(to != owner, \"ERC721: approval to current owner\") */\n      tag_98\n        /* \"#utility.yul\":11598:11995   */\n      jump\n        /* \"@openzeppelin/contracts/token/ERC721/ERC721.sol\":3651:3708  require(to != owner, \"ERC721: approval to current owner\") */\n    tag_102:\n        /* \"@openzeppelin/contracts/utils/Context.sol\":719:729  msg.sender */\n      caller\n      sub(shl(0xa0, 0x01), 0x01)\n        /* \"@openzeppelin/contracts/token/ERC721/ERC721.sol\":3740:3761  _msgSender() == owner */\n      dup3\n      and\n      eq\n      dup1\n        /* \"@openzeppelin/contracts/token/ERC721/ERC721.sol\":3740:3802  _msgSender() == owner || isApprovedForAll(owner, _msgSender()) */\n      tag_108\n      jumpi\n      pop\n        /* \"@openzeppelin/contracts/token/ERC721/ERC721.sol\":3765:3802  isApprovedForAll(owner, _msgSender()) */\n      tag_108\n        /* \"@openzeppelin/contracts/token/ERC721/ERC721.sol\":3782:3787  owner */\n      dup2\n        /* \"@openzeppelin/contracts/utils/Context.sol\":719:729  msg.sender */\n      caller\n        /* \"@openzeppelin/contracts/token/ERC721/ERC721.sol\":4487:4649  function isApprovedForAll(address owner, address operator) public view virtual override returns (bool) {... */\n      tag_78\n      jump\t// in\n        /* \"@openzeppelin/contracts/token/ERC721/ERC721.sol\":3765:3802  isApprovedForAll(owner, _msgSender()) */\n    tag_108:\n        /* \"@openzeppelin/contracts/token/ERC721/ERC721.sol\":3719:3884  require(... */\n      tag_110\n      jumpi\n      mload(0x40)\n      shl(0xe5, 0x461bcd)\n      dup2\n      mstore\n        /* \"#utility.yul\":8121:8123   */\n      0x20\n        /* \"@openzeppelin/contracts/token/ERC721/ERC721.sol\":3719:3884  require(... */\n      0x04\n      dup3\n      add\n        /* \"#utility.yul\":8103:8124   */\n      mstore\n        /* \"#utility.yul\":8160:8162   */\n      0x38\n        /* \"#utility.yul\":8140:8158   */\n      0x24\n      dup3\n      add\n        /* \"#utility.yul\":8133:8163   */\n      mstore\n        /* \"#utility.yul\":8199:8233   */\n      0x4552433732313a20617070726f76652063616c6c6572206973206e6f74206f77\n        /* \"#utility.yul\":8179:8197   */\n      0x44\n      dup3\n      add\n        /* \"#utility.yul\":8172:8234   */\n      mstore\n        /* \"#utility.yul\":8270:8296   */\n      0x6e6572206e6f7220617070726f76656420666f7220616c6c0000000000000000\n        /* \"#utility.yul\":8250:8268   */\n      0x64\n      dup3\n      add\n        /* \"#utility.yul\":8243:8297   */\n      mstore\n        /* \"#utility.yul\":8314:8333   */\n      0x84\n      add\n        /* \"@openzeppelin/contracts/token/ERC721/ERC721.sol\":3719:3884  require(... */\n      tag_98\n        /* \"#utility.yul\":7919:8339   */\n      jump\n        /* \"@openzeppelin/contracts/token/ERC721/ERC721.sol\":3719:3884  require(... */\n    tag_110:\n        /* \"@openzeppelin/contracts/token/ERC721/ERC721.sol\":3895:3916  _approve(to, tokenId) */\n      tag_113\n        /* \"@openzeppelin/contracts/token/ERC721/ERC721.sol\":3904:3906  to */\n      dup4\n        /* \"@openzeppelin/contracts/token/ERC721/ERC721.sol\":3908:3915  tokenId */\n      dup4\n        /* \"@openzeppelin/contracts/token/ERC721/ERC721.sol\":3895:3903  _approve */\n      tag_114\n        /* \"@openzeppelin/contracts/token/ERC721/ERC721.sol\":3895:3916  _approve(to, tokenId) */\n      jump\t// in\n    tag_113:\n        /* \"@openzeppelin/contracts/token/ERC721/ERC721.sol\":3592:3923  {... */\n      pop\n        /* \"@openzeppelin/contracts/token/ERC721/ERC721.sol\":3522:3923  function approve(address to, uint256 tokenId) public virtual override {... */\n      pop\n      pop\n      jump\t// out\n        /* \"@openzeppelin/contracts/token/ERC721/ERC721.sol\":4711:5041  function transferFrom(... */\n    tag_43:\n        /* \"@openzeppelin/contracts/token/ERC721/ERC721.sol\":4900:4941  _isApprovedOrOwner(_msgSender(), tokenId) */\n      tag_116\n        /* \"@openzeppelin/contracts/utils/Context.sol\":719:729  msg.sender */\n      caller\n        /* \"@openzeppelin/contracts/token/ERC721/ERC721.sol\":4933:4940  tokenId */\n      dup3\n        /* \"@openzeppelin/contracts/token/ERC721/ERC721.sol\":4900:4918  _isApprovedOrOwner */\n      tag_118\n        /* \"@openzeppelin/contracts/token/ERC721/ERC721.sol\":4900:4941  _isApprovedOrOwner(_msgSender(), tokenId) */\n      jump\t// in\n    tag_116:\n        /* \"@openzeppelin/contracts/token/ERC721/ERC721.sol\":4892:4995  require(_isApprovedOrOwner(_msgSender(), tokenId), \"ERC721: transfer caller is not owner nor approved\") */\n      tag_119\n      jumpi\n      mload(0x40)\n      shl(0xe5, 0x461bcd)\n      dup2\n      mstore\n      0x04\n      add\n      tag_98\n      swap1\n      tag_121\n      jump\t// in\n    tag_119:\n        /* \"@openzeppelin/contracts/token/ERC721/ERC721.sol\":5006:5034  _transfer(from, to, tokenId) */\n      tag_113\n        /* \"@openzeppelin/contracts/token/ERC721/ERC721.sol\":5016:5020  from */\n      dup4\n        /* \"@openzeppelin/contracts/token/ERC721/ERC721.sol\":5022:5024  to */\n      dup4\n        /* \"@openzeppelin/contracts/token/ERC721/ERC721.sol\":5026:5033  tokenId */\n      dup4\n        /* \"@openzeppelin/contracts/token/ERC721/ERC721.sol\":5006:5015  _transfer */\n      tag_123\n        /* \"@openzeppelin/contracts/token/ERC721/ERC721.sol\":5006:5034  _transfer(from, to, tokenId) */\n      jump\t// in\n        /* \"@openzeppelin/contracts/token/ERC721/ERC721.sol\":5107:5286  function safeTransferFrom(... */\n    tag_46:\n        /* \"@openzeppelin/contracts/token/ERC721/ERC721.sol\":5240:5279  safeTransferFrom(from, to, tokenId, \"\") */\n      tag_113\n        /* \"@openzeppelin/contracts/token/ERC721/ERC721.sol\":5257:5261  from */\n      dup4\n        /* \"@openzeppelin/contracts/token/ERC721/ERC721.sol\":5263:5265  to */\n      dup4\n        /* \"@openzeppelin/contracts/token/ERC721/ERC721.sol\":5267:5274  tokenId */\n      dup4\n        /* \"@openzeppelin/contracts/token/ERC721/ERC721.sol\":5240:5279  safeTransferFrom(from, to, tokenId, \"\") */\n      mload(0x40)\n      dup1\n      0x20\n      add\n      0x40\n      mstore\n      dup1\n      0x00\n      dup2\n      mstore\n      pop\n        /* \"@openzeppelin/contracts/token/ERC721/ERC721.sol\":5240:5256  safeTransferFrom */\n      tag_67\n        /* \"@openzeppelin/contracts/token/ERC721/ERC721.sol\":5240:5279  safeTransferFrom(from, to, tokenId, \"\") */\n      jump\t// in\n        /* \"@openzeppelin/contracts/token/ERC721/ERC721.sol\":2176:2411  function ownerOf(uint256 tokenId) public view virtual override returns (address) {... */\n    tag_49:\n        /* \"@openzeppelin/contracts/token/ERC721/ERC721.sol\":2248:2255  address */\n      0x00\n        /* \"@openzeppelin/contracts/token/ERC721/ERC721.sol\":2283:2299  _owners[tokenId] */\n      dup2\n      dup2\n      mstore\n        /* \"@openzeppelin/contracts/token/ERC721/ERC721.sol\":2283:2290  _owners */\n      0x02\n        /* \"@openzeppelin/contracts/token/ERC721/ERC721.sol\":2283:2299  _owners[tokenId] */\n      0x20\n      mstore\n      0x40\n      dup2\n      keccak256\n      sload\n      sub(shl(0xa0, 0x01), 0x01)\n      and\n        /* \"@openzeppelin/contracts/token/ERC721/ERC721.sol\":2317:2336  owner != address(0) */\n      dup1\n        /* \"@openzeppelin/contracts/token/ERC721/ERC721.sol\":2309:2382  require(owner != address(0), \"ERC721: owner query for nonexistent token\") */\n      tag_85\n      jumpi\n      mload(0x40)\n      shl(0xe5, 0x461bcd)\n      dup2\n      mstore\n        /* \"#utility.yul\":8957:8959   */\n      0x20\n        /* \"@openzeppelin/contracts/token/ERC721/ERC721.sol\":2309:2382  require(owner != address(0), \"ERC721: owner query for nonexistent token\") */\n      0x04\n      dup3\n      add\n        /* \"#utility.yul\":8939:8960   */\n      mstore\n        /* \"#utility.yul\":8996:8998   */\n      0x29\n        /* \"#utility.yul\":8976:8994   */\n      0x24\n      dup3\n      add\n        /* \"#utility.yul\":8969:8999   */\n      mstore\n        /* \"#utility.yul\":9035:9069   */\n      0x4552433732313a206f776e657220717565727920666f72206e6f6e6578697374\n        /* \"#utility.yul\":9015:9033   */\n      0x44\n      dup3\n      add\n        /* \"#utility.yul\":9008:9070   */\n      mstore\n      shl(0xb9, 0x32b73a103a37b5b2b7)\n        /* \"#utility.yul\":9086:9104   */\n      0x64\n      dup3\n      add\n        /* \"#utility.yul\":9079:9118   */\n      mstore\n        /* \"#utility.yul\":9135:9154   */\n      0x84\n      add\n        /* \"@openzeppelin/contracts/token/ERC721/ERC721.sol\":2309:2382  require(owner != address(0), \"ERC721: owner query for nonexistent token\") */\n      tag_98\n        /* \"#utility.yul\":8755:9160   */\n      jump\n        /* \"@openzeppelin/contracts/token/ERC721/ERC721.sol\":1914:2119  function balanceOf(address owner) public view virtual override returns (uint256) {... */\n    tag_54:\n        /* \"@openzeppelin/contracts/token/ERC721/ERC721.sol\":1986:1993  uint256 */\n      0x00\n      sub(shl(0xa0, 0x01), 0x01)\n        /* \"@openzeppelin/contracts/token/ERC721/ERC721.sol\":2013:2032  owner != address(0) */\n      dup3\n      and\n        /* \"@openzeppelin/contracts/token/ERC721/ERC721.sol\":2005:2079  require(owner != address(0), \"ERC721: balance query for the zero address\") */\n      tag_131\n      jumpi\n      mload(0x40)\n      shl(0xe5, 0x461bcd)\n      dup2\n      mstore\n        /* \"#utility.yul\":8546:8548   */\n      0x20\n        /* \"@openzeppelin/contracts/token/ERC721/ERC721.sol\":2005:2079  require(owner != address(0), \"ERC721: balance query for the zero address\") */\n      0x04\n      dup3\n      add\n        /* \"#utility.yul\":8528:8549   */\n      mstore\n        /* \"#utility.yul\":8585:8587   */\n      0x2a\n        /* \"#utility.yul\":8565:8583   */\n      0x24\n      dup3\n      add\n        /* \"#utility.yul\":8558:8588   */\n      mstore\n        /* \"#utility.yul\":8624:8658   */\n      0x4552433732313a2062616c616e636520717565727920666f7220746865207a65\n        /* \"#utility.yul\":8604:8622   */\n      0x44\n      dup3\n      add\n        /* \"#utility.yul\":8597:8659   */\n      mstore\n      shl(0xb0, 0x726f2061646472657373)\n        /* \"#utility.yul\":8675:8693   */\n      0x64\n      dup3\n      add\n        /* \"#utility.yul\":8668:8708   */\n      mstore\n        /* \"#utility.yul\":8725:8744   */\n      0x84\n      add\n        /* \"@openzeppelin/contracts/token/ERC721/ERC721.sol\":2005:2079  require(owner != address(0), \"ERC721: balance query for the zero address\") */\n      tag_98\n        /* \"#utility.yul\":8344:8750   */\n      jump\n        /* \"@openzeppelin/contracts/token/ERC721/ERC721.sol\":2005:2079  require(owner != address(0), \"ERC721: balance query for the zero address\") */\n    tag_131:\n      pop\n      sub(shl(0xa0, 0x01), 0x01)\n        /* \"@openzeppelin/contracts/token/ERC721/ERC721.sol\":2096:2112  _balances[owner] */\n      and\n      0x00\n      swap1\n      dup2\n      mstore\n        /* \"@openzeppelin/contracts/token/ERC721/ERC721.sol\":2096:2105  _balances */\n      0x03\n        /* \"@openzeppelin/contracts/token/ERC721/ERC721.sol\":2096:2112  _balances[owner] */\n      0x20\n      mstore\n      0x40\n      swap1\n      keccak256\n      sload\n      swap1\n        /* \"@openzeppelin/contracts/token/ERC721/ERC721.sol\":1914:2119  function balanceOf(address owner) public view virtual override returns (uint256) {... */\n      jump\t// out\n        /* \"@openzeppelin/contracts/token/ERC721/ERC721.sol\":2635:2737  function symbol() public view virtual override returns (string memory) {... */\n    tag_58:\n        /* \"@openzeppelin/contracts/token/ERC721/ERC721.sol\":2691:2704  string memory */\n      0x60\n        /* \"@openzeppelin/contracts/token/ERC721/ERC721.sol\":2723:2730  _symbol */\n      0x01\n        /* \"@openzeppelin/contracts/token/ERC721/ERC721.sol\":2716:2730  return _symbol */\n      dup1\n      sload\n      tag_88\n      swap1\n      tag_89\n      jump\t// in\n        /* \"@openzeppelin/contracts/token/ERC721/ERC721.sol\":4268:4421  function setApprovalForAll(address operator, bool approved) public virtual override {... */\n    tag_63:\n        /* \"@openzeppelin/contracts/token/ERC721/ERC721.sol\":4362:4414  _setApprovalForAll(_msgSender(), operator, approved) */\n      tag_141\n        /* \"@openzeppelin/contracts/utils/Context.sol\":719:729  msg.sender */\n      caller\n        /* \"@openzeppelin/contracts/token/ERC721/ERC721.sol\":4395:4403  operator */\n      dup4\n        /* \"@openzeppelin/contracts/token/ERC721/ERC721.sol\":4405:4413  approved */\n      dup4\n        /* \"@openzeppelin/contracts/token/ERC721/ERC721.sol\":4362:4380  _setApprovalForAll */\n      tag_143\n        /* \"@openzeppelin/contracts/token/ERC721/ERC721.sol\":4362:4414  _setApprovalForAll(_msgSender(), operator, approved) */\n      jump\t// in\n    tag_141:\n        /* \"@openzeppelin/contracts/token/ERC721/ERC721.sol\":4268:4421  function setApprovalForAll(address operator, bool approved) public virtual override {... */\n      pop\n      pop\n      jump\t// out\n        /* \"@openzeppelin/contracts/token/ERC721/ERC721.sol\":5352:5672  function safeTransferFrom(... */\n    tag_67:\n        /* \"@openzeppelin/contracts/token/ERC721/ERC721.sol\":5521:5562  _isApprovedOrOwner(_msgSender(), tokenId) */\n      tag_145\n        /* \"@openzeppelin/contracts/utils/Context.sol\":719:729  msg.sender */\n      caller\n        /* \"@openzeppelin/contracts/token/ERC721/ERC721.sol\":5554:5561  tokenId */\n      dup4\n        /* \"@openzeppelin/contracts/token/ERC721/ERC721.sol\":5521:5539  _isApprovedOrOwner */\n      tag_118\n        /* \"@openzeppelin/contracts/token/ERC721/ERC721.sol\":5521:5562  _isApprovedOrOwner(_msgSender(), tokenId) */\n      jump\t// in\n    tag_145:\n        /* \"@openzeppelin/contracts/token/ERC721/ERC721.sol\":5513:5616  require(_isApprovedOrOwner(_msgSender(), tokenId), \"ERC721: transfer caller is not owner nor approved\") */\n      tag_147\n      jumpi\n      mload(0x40)\n      shl(0xe5, 0x461bcd)\n      dup2\n      mstore\n      0x04\n      add\n      tag_98\n      swap1\n      tag_121\n      jump\t// in\n    tag_147:\n        /* \"@openzeppelin/contracts/token/ERC721/ERC721.sol\":5626:5665  _safeTransfer(from, to, tokenId, _data) */\n      tag_149\n        /* \"@openzeppelin/contracts/token/ERC721/ERC721.sol\":5640:5644  from */\n      dup5\n        /* \"@openzeppelin/contracts/token/ERC721/ERC721.sol\":5646:5648  to */\n      dup5\n        /* \"@openzeppelin/contracts/token/ERC721/ERC721.sol\":5650:5657  tokenId */\n      dup5\n        /* \"@openzeppelin/contracts/token/ERC721/ERC721.sol\":5659:5664  _data */\n      dup5\n        /* \"@openzeppelin/contracts/token/ERC721/ERC721.sol\":5626:5639  _safeTransfer */\n      tag_150\n        /* \"@openzeppelin/contracts/token/ERC721/ERC721.sol\":5626:5665  _safeTransfer(from, to, tokenId, _data) */\n      jump\t// in\n    tag_149:\n        /* \"@openzeppelin/contracts/token/ERC721/ERC721.sol\":5352:5672  function safeTransferFrom(... */\n      pop\n      pop\n      pop\n      pop\n      jump\t// out\n        /* \"@openzeppelin/contracts/token/ERC721/extensions/ERC721URIStorage.sol\":467:1130  function tokenURI(uint256 tokenId) public view virtual override returns (string memory) {... */\n    tag_70:\n        /* \"@openzeppelin/contracts/token/ERC721/extensions/ERC721URIStorage.sol\":540:553  string memory */\n      0x60\n        /* \"@openzeppelin/contracts/token/ERC721/extensions/ERC721URIStorage.sol\":573:589  _exists(tokenId) */\n      tag_152\n        /* \"@openzeppelin/contracts/token/ERC721/extensions/ERC721URIStorage.sol\":581:588  tokenId */\n      dup3\n        /* \"@openzeppelin/contracts/token/ERC721/extensions/ERC721URIStorage.sol\":573:580  _exists */\n      tag_96\n        /* \"@openzeppelin/contracts/token/ERC721/extensions/ERC721URIStorage.sol\":573:589  _exists(tokenId) */\n      jump\t// in\n    tag_152:\n        /* \"@openzeppelin/contracts/token/ERC721/extensions/ERC721URIStorage.sol\":565:643  require(_exists(tokenId), \"ERC721URIStorage: URI query for nonexistent token\") */\n      tag_153\n      jumpi\n      mload(0x40)\n      shl(0xe5, 0x461bcd)\n      dup2\n      mstore\n        /* \"#utility.yul\":10143:10145   */\n      0x20\n        /* \"@openzeppelin/contracts/token/ERC721/extensions/ERC721URIStorage.sol\":565:643  require(_exists(tokenId), \"ERC721URIStorage: URI query for nonexistent token\") */\n      0x04\n      dup3\n      add\n        /* \"#utility.yul\":10125:10146   */\n      mstore\n        /* \"#utility.yul\":10182:10184   */\n      0x31\n        /* \"#utility.yul\":10162:10180   */\n      0x24\n      dup3\n      add\n        /* \"#utility.yul\":10155:10185   */\n      mstore\n        /* \"#utility.yul\":10221:10255   */\n      0x45524337323155524953746f726167653a2055524920717565727920666f7220\n        /* \"#utility.yul\":10201:10219   */\n      0x44\n      dup3\n      add\n        /* \"#utility.yul\":10194:10256   */\n      mstore\n      shl(0x79, 0x3737b732bc34b9ba32b73a103a37b5b2b7)\n        /* \"#utility.yul\":10272:10290   */\n      0x64\n      dup3\n      add\n        /* \"#utility.yul\":10265:10312   */\n      mstore\n        /* \"#utility.yul\":10329:10348   */\n      0x84\n      add\n        /* \"@openzeppelin/contracts/token/ERC721/extensions/ERC721URIStorage.sol\":565:643  require(_exists(tokenId), \"ERC721URIStorage: URI query for nonexistent token\") */\n      tag_98\n        /* \"#utility.yul\":9941:10354   */\n      jump\n        /* \"@openzeppelin/contracts/token/ERC721/extensions/ERC721URIStorage.sol\":565:643  require(_exists(tokenId), \"ERC721URIStorage: URI query for nonexistent token\") */\n    tag_153:\n        /* \"@openzeppelin/contracts/token/ERC721/extensions/ERC721URIStorage.sol\":654:677  string memory _tokenURI */\n      0x00\n        /* \"@openzeppelin/contracts/token/ERC721/extensions/ERC721URIStorage.sol\":680:699  _tokenURIs[tokenId] */\n      dup3\n      dup2\n      mstore\n        /* \"@openzeppelin/contracts/token/ERC721/extensions/ERC721URIStorage.sol\":680:690  _tokenURIs */\n      0x06\n        /* \"@openzeppelin/contracts/token/ERC721/extensions/ERC721URIStorage.sol\":680:699  _tokenURIs[tokenId] */\n      0x20\n      mstore\n      0x40\n      dup2\n      keccak256\n        /* \"@openzeppelin/contracts/token/ERC721/extensions/ERC721URIStorage.sol\":654:699  string memory _tokenURI = _tokenURIs[tokenId] */\n      dup1\n      sload\n      tag_156\n      swap1\n      tag_89\n      jump\t// in\n    tag_156:\n      dup1\n      0x1f\n      add\n      0x20\n      dup1\n      swap2\n      div\n      mul\n      0x20\n      add\n      mload(0x40)\n      swap1\n      dup2\n      add\n      0x40\n      mstore\n      dup1\n      swap3\n      swap2\n      swap1\n      dup2\n      dup2\n      mstore\n      0x20\n      add\n      dup3\n      dup1\n      sload\n      tag_157\n      swap1\n      tag_89\n      jump\t// in\n    tag_157:\n      dup1\n      iszero\n      tag_158\n      jumpi\n      dup1\n      0x1f\n      lt\n      tag_159\n      jumpi\n      0x0100\n      dup1\n      dup4\n      sload\n      div\n      mul\n      dup4\n      mstore\n      swap2\n      0x20\n      add\n      swap2\n      jump(tag_158)\n    tag_159:\n      dup3\n      add\n      swap2\n      swap1\n      0x00\n      mstore\n      keccak256(0x00, 0x20)\n      swap1\n    tag_160:\n      dup2\n      sload\n      dup2\n      mstore\n      swap1\n      0x01\n      add\n      swap1\n      0x20\n      add\n      dup1\n      dup4\n      gt\n      tag_160\n      jumpi\n      dup3\n      swap1\n      sub\n      0x1f\n      and\n      dup3\n      add\n      swap2\n    tag_158:\n      pop\n      pop\n      pop\n      pop\n      pop\n      swap1\n      pop\n        /* \"@openzeppelin/contracts/token/ERC721/extensions/ERC721URIStorage.sol\":709:727  string memory base */\n      0x00\n        /* \"@openzeppelin/contracts/token/ERC721/extensions/ERC721URIStorage.sol\":730:740  _baseURI() */\n      tag_161\n        /* \"@openzeppelin/contracts/token/ERC721/ERC721.sol\":3449:3458  return \"\" */\n      0x40\n      dup1\n      mload\n      0x20\n      dup2\n      add\n      swap1\n      swap2\n      mstore\n      0x00\n      dup2\n      mstore\n      swap1\n        /* \"@openzeppelin/contracts/token/ERC721/ERC721.sol\":3373:3465  function _baseURI() internal view virtual returns (string memory) {... */\n      jump\n        /* \"@openzeppelin/contracts/token/ERC721/extensions/ERC721URIStorage.sol\":730:740  _baseURI() */\n    tag_161:\n        /* \"@openzeppelin/contracts/token/ERC721/extensions/ERC721URIStorage.sol\":709:740  string memory base = _baseURI() */\n      swap1\n      pop\n        /* \"@openzeppelin/contracts/token/ERC721/extensions/ERC721URIStorage.sol\":819:823  base */\n      dup1\n        /* \"@openzeppelin/contracts/token/ERC721/extensions/ERC721URIStorage.sol\":813:831  bytes(base).length */\n      mload\n        /* \"@openzeppelin/contracts/token/ERC721/extensions/ERC721URIStorage.sol\":835:836  0 */\n      0x00\n        /* \"@openzeppelin/contracts/token/ERC721/extensions/ERC721URIStorage.sol\":813:836  bytes(base).length == 0 */\n      eq\n        /* \"@openzeppelin/contracts/token/ERC721/extensions/ERC721URIStorage.sol\":809:879  if (bytes(base).length == 0) {... */\n      iszero\n      tag_163\n      jumpi\n      pop\n        /* \"@openzeppelin/contracts/token/ERC721/extensions/ERC721URIStorage.sol\":859:868  _tokenURI */\n      swap3\n        /* \"@openzeppelin/contracts/token/ERC721/extensions/ERC721URIStorage.sol\":467:1130  function tokenURI(uint256 tokenId) public view virtual override returns (string memory) {... */\n      swap2\n      pop\n      pop\n      jump\t// out\n        /* \"@openzeppelin/contracts/token/ERC721/extensions/ERC721URIStorage.sol\":809:879  if (bytes(base).length == 0) {... */\n    tag_163:\n        /* \"@openzeppelin/contracts/token/ERC721/extensions/ERC721URIStorage.sol\":981:1004  bytes(_tokenURI).length */\n      dup2\n      mload\n        /* \"@openzeppelin/contracts/token/ERC721/extensions/ERC721URIStorage.sol\":981:1008  bytes(_tokenURI).length > 0 */\n      iszero\n        /* \"@openzeppelin/contracts/token/ERC721/extensions/ERC721URIStorage.sol\":977:1083  if (bytes(_tokenURI).length > 0) {... */\n      tag_164\n      jumpi\n        /* \"@openzeppelin/contracts/token/ERC721/extensions/ERC721URIStorage.sol\":1055:1059  base */\n      dup1\n        /* \"@openzeppelin/contracts/token/ERC721/extensions/ERC721URIStorage.sol\":1061:1070  _tokenURI */\n      dup3\n        /* \"@openzeppelin/contracts/token/ERC721/extensions/ERC721URIStorage.sol\":1038:1071  abi.encodePacked(base, _tokenURI) */\n      add(0x20, mload(0x40))\n      tag_165\n      swap3\n      swap2\n      swap1\n      tag_166\n      jump\t// in\n    tag_165:\n      mload(0x40)\n      0x20\n      dup2\n      dup4\n      sub\n      sub\n      dup2\n      mstore\n      swap1\n      0x40\n      mstore\n        /* \"@openzeppelin/contracts/token/ERC721/extensions/ERC721URIStorage.sol\":1024:1072  return string(abi.encodePacked(base, _tokenURI)) */\n      swap3\n      pop\n      pop\n      pop\n        /* \"@openzeppelin/contracts/token/ERC721/extensions/ERC721URIStorage.sol\":467:1130  function tokenURI(uint256 tokenId) public view virtual override returns (string memory) {... */\n      swap2\n      swap1\n      pop\n      jump\t// out\n        /* \"@openzeppelin/contracts/token/ERC721/extensions/ERC721URIStorage.sol\":977:1083  if (bytes(_tokenURI).length > 0) {... */\n    tag_164:\n        /* \"@openzeppelin/contracts/token/ERC721/extensions/ERC721URIStorage.sol\":1100:1123  super.tokenURI(tokenId) */\n      tag_167\n        /* \"@openzeppelin/contracts/token/ERC721/extensions/ERC721URIStorage.sol\":1115:1122  tokenId */\n      dup5\n        /* \"@openzeppelin/contracts/token/ERC721/extensions/ERC721URIStorage.sol\":1100:1114  super.tokenURI */\n      tag_168\n        /* \"@openzeppelin/contracts/token/ERC721/extensions/ERC721URIStorage.sol\":1100:1123  super.tokenURI(tokenId) */\n      jump\t// in\n    tag_167:\n        /* \"@openzeppelin/contracts/token/ERC721/extensions/ERC721URIStorage.sol\":1093:1123  return super.tokenURI(tokenId) */\n      swap5\n        /* \"@openzeppelin/contracts/token/ERC721/extensions/ERC721URIStorage.sol\":467:1130  function tokenURI(uint256 tokenId) public view virtual override returns (string memory) {... */\n      swap4\n      pop\n      pop\n      pop\n      pop\n      jump\t// out\n        /* \"contracts/WavyNFT.sol\":452:882  function awardItem(address addr, string memory tokenURI) public returns (uint256)\r... */\n    tag_75:\n        /* \"contracts/WavyNFT.sol\":525:532  uint256 */\n      0x00\n        /* \"contracts/WavyNFT.sol\":581:602  _tokenIds.increment() */\n      tag_170\n        /* \"contracts/WavyNFT.sol\":581:590  _tokenIds */\n      0x07\n        /* \"@openzeppelin/contracts/utils/Counters.sol\":1032:1051  counter._value += 1 */\n      dup1\n      sload\n        /* \"@openzeppelin/contracts/utils/Counters.sol\":1050:1051  1 */\n      0x01\n        /* \"@openzeppelin/contracts/utils/Counters.sol\":1032:1051  counter._value += 1 */\n      add\n      swap1\n      sstore\n        /* \"@openzeppelin/contracts/utils/Counters.sol\":945:1068  function increment(Counter storage counter) internal {... */\n      jump\n        /* \"contracts/WavyNFT.sol\":581:602  _tokenIds.increment() */\n    tag_170:\n        /* \"contracts/WavyNFT.sol\":647:664  uint256 newItemId */\n      0x00\n        /* \"contracts/WavyNFT.sol\":667:686  _tokenIds.current() */\n      tag_172\n        /* \"contracts/WavyNFT.sol\":667:676  _tokenIds */\n      0x07\n        /* \"@openzeppelin/contracts/utils/Counters.sol\":918:932  counter._value */\n      sload\n      swap1\n        /* \"@openzeppelin/contracts/utils/Counters.sol\":827:939  function current(Counter storage counter) internal view returns (uint256) {... */\n      jump\n        /* \"contracts/WavyNFT.sol\":667:686  _tokenIds.current() */\n    tag_172:\n        /* \"contracts/WavyNFT.sol\":647:686  uint256 newItemId = _tokenIds.current() */\n      swap1\n      pop\n        /* \"contracts/WavyNFT.sol\":737:759  _mint(addr, newItemId) */\n      tag_174\n        /* \"contracts/WavyNFT.sol\":743:747  addr */\n      dup5\n        /* \"contracts/WavyNFT.sol\":749:758  newItemId */\n      dup3\n        /* \"contracts/WavyNFT.sol\":737:742  _mint */\n      tag_175\n        /* \"contracts/WavyNFT.sol\":737:759  _mint(addr, newItemId) */\n      jump\t// in\n    tag_174:\n        /* \"contracts/WavyNFT.sol\":812:845  _setTokenURI(newItemId, tokenURI) */\n      tag_176\n        /* \"contracts/WavyNFT.sol\":825:834  newItemId */\n      dup2\n        /* \"contracts/WavyNFT.sol\":836:844  tokenURI */\n      dup5\n        /* \"contracts/WavyNFT.sol\":812:824  _setTokenURI */\n      tag_177\n        /* \"contracts/WavyNFT.sol\":812:845  _setTokenURI(newItemId, tokenURI) */\n      jump\t// in\n    tag_176:\n        /* \"contracts/WavyNFT.sol\":865:874  newItemId */\n      swap4\n        /* \"contracts/WavyNFT.sol\":452:882  function awardItem(address addr, string memory tokenURI) public returns (uint256)\r... */\n      swap3\n      pop\n      pop\n      pop\n      jump\t// out\n        /* \"@openzeppelin/contracts/token/ERC721/ERC721.sol\":7144:7269  function _exists(uint256 tokenId) internal view virtual returns (bool) {... */\n    tag_96:\n        /* \"@openzeppelin/contracts/token/ERC721/ERC721.sol\":7209:7213  bool */\n      0x00\n        /* \"@openzeppelin/contracts/token/ERC721/ERC721.sol\":7232:7248  _owners[tokenId] */\n      swap1\n      dup2\n      mstore\n        /* \"@openzeppelin/contracts/token/ERC721/ERC721.sol\":7232:7239  _owners */\n      0x02\n        /* \"@openzeppelin/contracts/token/ERC721/ERC721.sol\":7232:7248  _owners[tokenId] */\n      0x20\n      mstore\n      0x40\n      swap1\n      keccak256\n      sload\n      sub(shl(0xa0, 0x01), 0x01)\n      and\n        /* \"@openzeppelin/contracts/token/ERC721/ERC721.sol\":7232:7262  _owners[tokenId] != address(0) */\n      iszero\n      iszero\n      swap1\n        /* \"@openzeppelin/contracts/token/ERC721/ERC721.sol\":7144:7269  function _exists(uint256 tokenId) internal view virtual returns (bool) {... */\n      jump\t// out\n        /* \"@openzeppelin/contracts/token/ERC721/ERC721.sol\":10995:11166  function _approve(address to, uint256 tokenId) internal virtual {... */\n    tag_114:\n        /* \"@openzeppelin/contracts/token/ERC721/ERC721.sol\":11069:11093  _tokenApprovals[tokenId] */\n      0x00\n      dup2\n      dup2\n      mstore\n        /* \"@openzeppelin/contracts/token/ERC721/ERC721.sol\":11069:11084  _tokenApprovals */\n      0x04\n        /* \"@openzeppelin/contracts/token/ERC721/ERC721.sol\":11069:11093  _tokenApprovals[tokenId] */\n      0x20\n      mstore\n      0x40\n      swap1\n      keccak256\n        /* \"@openzeppelin/contracts/token/ERC721/ERC721.sol\":11069:11098  _tokenApprovals[tokenId] = to */\n      dup1\n      sload\n      not(sub(shl(0xa0, 0x01), 0x01))\n      and\n      sub(shl(0xa0, 0x01), 0x01)\n      dup5\n      and\n      swap1\n      dup2\n      or\n      swap1\n      swap2\n      sstore\n        /* \"@openzeppelin/contracts/token/ERC721/ERC721.sol\":11069:11093  _tokenApprovals[tokenId] */\n      dup2\n      swap1\n        /* \"@openzeppelin/contracts/token/ERC721/ERC721.sol\":11122:11145  ERC721.ownerOf(tokenId) */\n      tag_183\n        /* \"@openzeppelin/contracts/token/ERC721/ERC721.sol\":11069:11093  _tokenApprovals[tokenId] */\n      dup3\n        /* \"@openzeppelin/contracts/token/ERC721/ERC721.sol\":11122:11136  ERC721.ownerOf */\n      tag_49\n        /* \"@openzeppelin/contracts/token/ERC721/ERC721.sol\":11122:11145  ERC721.ownerOf(tokenId) */\n      jump\t// in\n    tag_183:\n      sub(shl(0xa0, 0x01), 0x01)\n        /* \"@openzeppelin/contracts/token/ERC721/ERC721.sol\":11113:11159  Approval(ERC721.ownerOf(tokenId), to, tokenId) */\n      and\n      0x8c5be1e5ebec7d5bd14f71427d1e84f3dd0314c0f7b2291e5b200ac8c7c3b925\n      mload(0x40)\n      mload(0x40)\n      dup1\n      swap2\n      sub\n      swap1\n      log4\n        /* \"@openzeppelin/contracts/token/ERC721/ERC721.sol\":10995:11166  function _approve(address to, uint256 tokenId) internal virtual {... */\n      pop\n      pop\n      jump\t// out\n        /* \"@openzeppelin/contracts/token/ERC721/ERC721.sol\":7427:7771  function _isApprovedOrOwner(address spender, uint256 tokenId) internal view virtual returns (bool) {... */\n    tag_118:\n        /* \"@openzeppelin/contracts/token/ERC721/ERC721.sol\":7520:7524  bool */\n      0x00\n        /* \"@openzeppelin/contracts/token/ERC721/ERC721.sol\":7544:7560  _exists(tokenId) */\n      tag_185\n        /* \"@openzeppelin/contracts/token/ERC721/ERC721.sol\":7552:7559  tokenId */\n      dup3\n        /* \"@openzeppelin/contracts/token/ERC721/ERC721.sol\":7544:7551  _exists */\n      tag_96\n        /* \"@openzeppelin/contracts/token/ERC721/ERC721.sol\":7544:7560  _exists(tokenId) */\n      jump\t// in\n    tag_185:\n        /* \"@openzeppelin/contracts/token/ERC721/ERC721.sol\":7536:7609  require(_exists(tokenId), \"ERC721: operator query for nonexistent token\") */\n      tag_186\n      jumpi\n      mload(0x40)\n      shl(0xe5, 0x461bcd)\n      dup2\n      mstore\n        /* \"#utility.yul\":7708:7710   */\n      0x20\n        /* \"@openzeppelin/contracts/token/ERC721/ERC721.sol\":7536:7609  require(_exists(tokenId), \"ERC721: operator query for nonexistent token\") */\n      0x04\n      dup3\n      add\n        /* \"#utility.yul\":7690:7711   */\n      mstore\n        /* \"#utility.yul\":7747:7749   */\n      0x2c\n        /* \"#utility.yul\":7727:7745   */\n      0x24\n      dup3\n      add\n        /* \"#utility.yul\":7720:7750   */\n      mstore\n        /* \"#utility.yul\":7786:7820   */\n      0x4552433732313a206f70657261746f7220717565727920666f72206e6f6e6578\n        /* \"#utility.yul\":7766:7784   */\n      0x44\n      dup3\n      add\n        /* \"#utility.yul\":7759:7821   */\n      mstore\n      shl(0xa1, 0x34b9ba32b73a103a37b5b2b7)\n        /* \"#utility.yul\":7837:7855   */\n      0x64\n      dup3\n      add\n        /* \"#utility.yul\":7830:7872   */\n      mstore\n        /* \"#utility.yul\":7889:7908   */\n      0x84\n      add\n        /* \"@openzeppelin/contracts/token/ERC721/ERC721.sol\":7536:7609  require(_exists(tokenId), \"ERC721: operator query for nonexistent token\") */\n      tag_98\n        /* \"#utility.yul\":7506:7914   */\n      jump\n        /* \"@openzeppelin/contracts/token/ERC721/ERC721.sol\":7536:7609  require(_exists(tokenId), \"ERC721: operator query for nonexistent token\") */\n    tag_186:\n        /* \"@openzeppelin/contracts/token/ERC721/ERC721.sol\":7619:7632  address owner */\n      0x00\n        /* \"@openzeppelin/contracts/token/ERC721/ERC721.sol\":7635:7658  ERC721.ownerOf(tokenId) */\n      tag_189\n        /* \"@openzeppelin/contracts/token/ERC721/ERC721.sol\":7650:7657  tokenId */\n      dup4\n        /* \"@openzeppelin/contracts/token/ERC721/ERC721.sol\":7635:7649  ERC721.ownerOf */\n      tag_49\n        /* \"@openzeppelin/contracts/token/ERC721/ERC721.sol\":7635:7658  ERC721.ownerOf(tokenId) */\n      jump\t// in\n    tag_189:\n        /* \"@openzeppelin/contracts/token/ERC721/ERC721.sol\":7619:7658  address owner = ERC721.ownerOf(tokenId) */\n      swap1\n      pop\n        /* \"@openzeppelin/contracts/token/ERC721/ERC721.sol\":7687:7692  owner */\n      dup1\n      sub(shl(0xa0, 0x01), 0x01)\n        /* \"@openzeppelin/contracts/token/ERC721/ERC721.sol\":7676:7692  spender == owner */\n      and\n        /* \"@openzeppelin/contracts/token/ERC721/ERC721.sol\":7676:7683  spender */\n      dup5\n      sub(shl(0xa0, 0x01), 0x01)\n        /* \"@openzeppelin/contracts/token/ERC721/ERC721.sol\":7676:7692  spender == owner */\n      and\n      eq\n        /* \"@openzeppelin/contracts/token/ERC721/ERC721.sol\":7676:7727  spender == owner || getApproved(tokenId) == spender */\n      dup1\n      tag_190\n      jumpi\n      pop\n        /* \"@openzeppelin/contracts/token/ERC721/ERC721.sol\":7720:7727  spender */\n      dup4\n      sub(shl(0xa0, 0x01), 0x01)\n        /* \"@openzeppelin/contracts/token/ERC721/ERC721.sol\":7696:7727  getApproved(tokenId) == spender */\n      and\n        /* \"@openzeppelin/contracts/token/ERC721/ERC721.sol\":7696:7716  getApproved(tokenId) */\n      tag_191\n        /* \"@openzeppelin/contracts/token/ERC721/ERC721.sol\":7708:7715  tokenId */\n      dup5\n        /* \"@openzeppelin/contracts/token/ERC721/ERC721.sol\":7696:7707  getApproved */\n      tag_33\n        /* \"@openzeppelin/contracts/token/ERC721/ERC721.sol\":7696:7716  getApproved(tokenId) */\n      jump\t// in\n    tag_191:\n      sub(shl(0xa0, 0x01), 0x01)\n        /* \"@openzeppelin/contracts/token/ERC721/ERC721.sol\":7696:7727  getApproved(tokenId) == spender */\n      and\n      eq\n        /* \"@openzeppelin/contracts/token/ERC721/ERC721.sol\":7676:7727  spender == owner || getApproved(tokenId) == spender */\n    tag_190:\n        /* \"@openzeppelin/contracts/token/ERC721/ERC721.sol\":7676:7763  spender == owner || getApproved(tokenId) == spender || isApprovedForAll(owner, spender) */\n      dup1\n      tag_167\n      jumpi\n      pop\n      sub(shl(0xa0, 0x01), 0x01)\n        /* \"@openzeppelin/contracts/token/ERC721/ERC721.sol\":4607:4632  _operatorApprovals[owner] */\n      dup1\n      dup3\n      and\n        /* \"@openzeppelin/contracts/token/ERC721/ERC721.sol\":4584:4588  bool */\n      0x00\n        /* \"@openzeppelin/contracts/token/ERC721/ERC721.sol\":4607:4632  _operatorApprovals[owner] */\n      swap1\n      dup2\n      mstore\n        /* \"@openzeppelin/contracts/token/ERC721/ERC721.sol\":4607:4625  _operatorApprovals */\n      0x05\n        /* \"@openzeppelin/contracts/token/ERC721/ERC721.sol\":4607:4632  _operatorApprovals[owner] */\n      0x20\n      swap1\n      dup2\n      mstore\n      0x40\n      dup1\n      dup4\n      keccak256\n        /* \"@openzeppelin/contracts/token/ERC721/ERC721.sol\":4607:4642  _operatorApprovals[owner][operator] */\n      swap4\n      dup9\n      and\n      dup4\n      mstore\n      swap3\n      swap1\n      mstore\n      keccak256\n      sload\n      0xff\n      and\n        /* \"@openzeppelin/contracts/token/ERC721/ERC721.sol\":7731:7763  isApprovedForAll(owner, spender) */\n      tag_167\n        /* \"@openzeppelin/contracts/token/ERC721/ERC721.sol\":4487:4649  function isApprovedForAll(address owner, address operator) public view virtual override returns (bool) {... */\n      jump\n        /* \"@openzeppelin/contracts/token/ERC721/ERC721.sol\":10324:10884  function _transfer(... */\n    tag_123:\n        /* \"@openzeppelin/contracts/token/ERC721/ERC721.sol\":10478:10482  from */\n      dup3\n      sub(shl(0xa0, 0x01), 0x01)\n        /* \"@openzeppelin/contracts/token/ERC721/ERC721.sol\":10451:10482  ERC721.ownerOf(tokenId) == from */\n      and\n        /* \"@openzeppelin/contracts/token/ERC721/ERC721.sol\":10451:10474  ERC721.ownerOf(tokenId) */\n      tag_195\n        /* \"@openzeppelin/contracts/token/ERC721/ERC721.sol\":10466:10473  tokenId */\n      dup3\n        /* \"@openzeppelin/contracts/token/ERC721/ERC721.sol\":10451:10465  ERC721.ownerOf */\n      tag_49\n        /* \"@openzeppelin/contracts/token/ERC721/ERC721.sol\":10451:10474  ERC721.ownerOf(tokenId) */\n      jump\t// in\n    tag_195:\n      sub(shl(0xa0, 0x01), 0x01)\n        /* \"@openzeppelin/contracts/token/ERC721/ERC721.sol\":10451:10482  ERC721.ownerOf(tokenId) == from */\n      and\n      eq\n        /* \"@openzeppelin/contracts/token/ERC721/ERC721.sol\":10443:10528  require(ERC721.ownerOf(tokenId) == from, \"ERC721: transfer of token that is not own\") */\n      tag_196\n      jumpi\n      mload(0x40)\n      shl(0xe5, 0x461bcd)\n      dup2\n      mstore\n        /* \"#utility.yul\":10974:10976   */\n      0x20\n        /* \"@openzeppelin/contracts/token/ERC721/ERC721.sol\":10443:10528  require(ERC721.ownerOf(tokenId) == from, \"ERC721: transfer of token that is not own\") */\n      0x04\n      dup3\n      add\n        /* \"#utility.yul\":10956:10977   */\n      mstore\n        /* \"#utility.yul\":11013:11015   */\n      0x29\n        /* \"#utility.yul\":10993:11011   */\n      0x24\n      dup3\n      add\n        /* \"#utility.yul\":10986:11016   */\n      mstore\n        /* \"#utility.yul\":11052:11086   */\n      0x4552433732313a207472616e73666572206f6620746f6b656e20746861742069\n        /* \"#utility.yul\":11032:11050   */\n      0x44\n      dup3\n      add\n        /* \"#utility.yul\":11025:11087   */\n      mstore\n      shl(0xb9, 0x39903737ba1037bbb7)\n        /* \"#utility.yul\":11103:11121   */\n      0x64\n      dup3\n      add\n        /* \"#utility.yul\":11096:11135   */\n      mstore\n        /* \"#utility.yul\":11152:11171   */\n      0x84\n      add\n        /* \"@openzeppelin/contracts/token/ERC721/ERC721.sol\":10443:10528  require(ERC721.ownerOf(tokenId) == from, \"ERC721: transfer of token that is not own\") */\n      tag_98\n        /* \"#utility.yul\":10772:11177   */\n      jump\n        /* \"@openzeppelin/contracts/token/ERC721/ERC721.sol\":10443:10528  require(ERC721.ownerOf(tokenId) == from, \"ERC721: transfer of token that is not own\") */\n    tag_196:\n      sub(shl(0xa0, 0x01), 0x01)\n        /* \"@openzeppelin/contracts/token/ERC721/ERC721.sol\":10546:10562  to != address(0) */\n      dup3\n      and\n        /* \"@openzeppelin/contracts/token/ERC721/ERC721.sol\":10538:10603  require(to != address(0), \"ERC721: transfer to the zero address\") */\n      tag_199\n      jumpi\n      mload(0x40)\n      shl(0xe5, 0x461bcd)\n      dup2\n      mstore\n        /* \"#utility.yul\":6949:6951   */\n      0x20\n        /* \"@openzeppelin/contracts/token/ERC721/ERC721.sol\":10538:10603  require(to != address(0), \"ERC721: transfer to the zero address\") */\n      0x04\n      dup3\n      add\n        /* \"#utility.yul\":6931:6952   */\n      mstore\n        /* \"#utility.yul\":6988:6990   */\n      0x24\n        /* \"#utility.yul\":6968:6986   */\n      dup1\n      dup3\n      add\n        /* \"#utility.yul\":6961:6991   */\n      mstore\n        /* \"#utility.yul\":7027:7061   */\n      0x4552433732313a207472616e7366657220746f20746865207a65726f20616464\n        /* \"#utility.yul\":7007:7025   */\n      0x44\n      dup3\n      add\n        /* \"#utility.yul\":7000:7062   */\n      mstore\n      shl(0xe0, 0x72657373)\n        /* \"#utility.yul\":7078:7096   */\n      0x64\n      dup3\n      add\n        /* \"#utility.yul\":7071:7105   */\n      mstore\n        /* \"#utility.yul\":7122:7141   */\n      0x84\n      add\n        /* \"@openzeppelin/contracts/token/ERC721/ERC721.sol\":10538:10603  require(to != address(0), \"ERC721: transfer to the zero address\") */\n      tag_98\n        /* \"#utility.yul\":6747:7147   */\n      jump\n        /* \"@openzeppelin/contracts/token/ERC721/ERC721.sol\":10538:10603  require(to != address(0), \"ERC721: transfer to the zero address\") */\n    tag_199:\n        /* \"@openzeppelin/contracts/token/ERC721/ERC721.sol\":10715:10744  _approve(address(0), tokenId) */\n      tag_204\n        /* \"@openzeppelin/contracts/token/ERC721/ERC721.sol\":10732:10733  0 */\n      0x00\n        /* \"@openzeppelin/contracts/token/ERC721/ERC721.sol\":10736:10743  tokenId */\n      dup3\n        /* \"@openzeppelin/contracts/token/ERC721/ERC721.sol\":10715:10723  _approve */\n      tag_114\n        /* \"@openzeppelin/contracts/token/ERC721/ERC721.sol\":10715:10744  _approve(address(0), tokenId) */\n      jump\t// in\n    tag_204:\n      sub(shl(0xa0, 0x01), 0x01)\n        /* \"@openzeppelin/contracts/token/ERC721/ERC721.sol\":10755:10770  _balances[from] */\n      dup4\n      and\n      0x00\n      swap1\n      dup2\n      mstore\n        /* \"@openzeppelin/contracts/token/ERC721/ERC721.sol\":10755:10764  _balances */\n      0x03\n        /* \"@openzeppelin/contracts/token/ERC721/ERC721.sol\":10755:10770  _balances[from] */\n      0x20\n      mstore\n      0x40\n      dup2\n      keccak256\n        /* \"@openzeppelin/contracts/token/ERC721/ERC721.sol\":10755:10775  _balances[from] -= 1 */\n      dup1\n      sload\n        /* \"@openzeppelin/contracts/token/ERC721/ERC721.sol\":10774:10775  1 */\n      0x01\n      swap3\n        /* \"@openzeppelin/contracts/token/ERC721/ERC721.sol\":10755:10770  _balances[from] */\n      swap1\n        /* \"@openzeppelin/contracts/token/ERC721/ERC721.sol\":10755:10775  _balances[from] -= 1 */\n      tag_205\n      swap1\n        /* \"@openzeppelin/contracts/token/ERC721/ERC721.sol\":10774:10775  1 */\n      dup5\n      swap1\n        /* \"@openzeppelin/contracts/token/ERC721/ERC721.sol\":10755:10775  _balances[from] -= 1 */\n      tag_206\n      jump\t// in\n    tag_205:\n      swap1\n      swap2\n      sstore\n      pop\n      pop\n      sub(shl(0xa0, 0x01), 0x01)\n        /* \"@openzeppelin/contracts/token/ERC721/ERC721.sol\":10785:10798  _balances[to] */\n      dup3\n      and\n      0x00\n      swap1\n      dup2\n      mstore\n        /* \"@openzeppelin/contracts/token/ERC721/ERC721.sol\":10785:10794  _balances */\n      0x03\n        /* \"@openzeppelin/contracts/token/ERC721/ERC721.sol\":10785:10798  _balances[to] */\n      0x20\n      mstore\n      0x40\n      dup2\n      keccak256\n        /* \"@openzeppelin/contracts/token/ERC721/ERC721.sol\":10785:10803  _balances[to] += 1 */\n      dup1\n      sload\n        /* \"@openzeppelin/contracts/token/ERC721/ERC721.sol\":10802:10803  1 */\n      0x01\n      swap3\n        /* \"@openzeppelin/contracts/token/ERC721/ERC721.sol\":10785:10798  _balances[to] */\n      swap1\n        /* \"@openzeppelin/contracts/token/ERC721/ERC721.sol\":10785:10803  _balances[to] += 1 */\n      tag_207\n      swap1\n        /* \"@openzeppelin/contracts/token/ERC721/ERC721.sol\":10802:10803  1 */\n      dup5\n      swap1\n        /* \"@openzeppelin/contracts/token/ERC721/ERC721.sol\":10785:10803  _balances[to] += 1 */\n      tag_208\n      jump\t// in\n    tag_207:\n      swap1\n      swap2\n      sstore\n      pop\n      pop\n        /* \"@openzeppelin/contracts/token/ERC721/ERC721.sol\":10813:10829  _owners[tokenId] */\n      0x00\n      dup2\n      dup2\n      mstore\n        /* \"@openzeppelin/contracts/token/ERC721/ERC721.sol\":10813:10820  _owners */\n      0x02\n        /* \"@openzeppelin/contracts/token/ERC721/ERC721.sol\":10813:10829  _owners[tokenId] */\n      0x20\n      mstore\n      0x40\n      dup1\n      dup3\n      keccak256\n        /* \"@openzeppelin/contracts/token/ERC721/ERC721.sol\":10813:10834  _owners[tokenId] = to */\n      dup1\n      sload\n      not(sub(shl(0xa0, 0x01), 0x01))\n      and\n      sub(shl(0xa0, 0x01), 0x01)\n      dup7\n      dup2\n      and\n      swap2\n      dup3\n      or\n      swap1\n      swap3\n      sstore\n        /* \"@openzeppelin/contracts/token/ERC721/ERC721.sol\":10850:10877  Transfer(from, to, tokenId) */\n      swap2\n      mload\n        /* \"@openzeppelin/contracts/token/ERC721/ERC721.sol\":10813:10829  _owners[tokenId] */\n      dup5\n      swap4\n        /* \"@openzeppelin/contracts/token/ERC721/ERC721.sol\":10850:10877  Transfer(from, to, tokenId) */\n      swap2\n      dup8\n      and\n      swap2\n      0xddf252ad1be2c89b69c2b068fc378daa952ba7f163c4a11628f55a4df523b3ef\n      swap2\n      log4\n        /* \"@openzeppelin/contracts/token/ERC721/ERC721.sol\":10324:10884  function _transfer(... */\n      pop\n      pop\n      pop\n      jump\t// out\n        /* \"@openzeppelin/contracts/token/ERC721/ERC721.sol\":11301:11608  function _setApprovalForAll(... */\n    tag_143:\n        /* \"@openzeppelin/contracts/token/ERC721/ERC721.sol\":11451:11459  operator */\n      dup2\n      sub(shl(0xa0, 0x01), 0x01)\n        /* \"@openzeppelin/contracts/token/ERC721/ERC721.sol\":11442:11459  owner != operator */\n      and\n        /* \"@openzeppelin/contracts/token/ERC721/ERC721.sol\":11442:11447  owner */\n      dup4\n      sub(shl(0xa0, 0x01), 0x01)\n        /* \"@openzeppelin/contracts/token/ERC721/ERC721.sol\":11442:11459  owner != operator */\n      and\n      eq\n      iszero\n        /* \"@openzeppelin/contracts/token/ERC721/ERC721.sol\":11434:11489  require(owner != operator, \"ERC721: approve to caller\") */\n      tag_210\n      jumpi\n      mload(0x40)\n      shl(0xe5, 0x461bcd)\n      dup2\n      mstore\n        /* \"#utility.yul\":7354:7356   */\n      0x20\n        /* \"@openzeppelin/contracts/token/ERC721/ERC721.sol\":11434:11489  require(owner != operator, \"ERC721: approve to caller\") */\n      0x04\n      dup3\n      add\n        /* \"#utility.yul\":7336:7357   */\n      mstore\n        /* \"#utility.yul\":7393:7395   */\n      0x19\n        /* \"#utility.yul\":7373:7391   */\n      0x24\n      dup3\n      add\n        /* \"#utility.yul\":7366:7396   */\n      mstore\n        /* \"#utility.yul\":7432:7459   */\n      0x4552433732313a20617070726f766520746f2063616c6c657200000000000000\n        /* \"#utility.yul\":7412:7430   */\n      0x44\n      dup3\n      add\n        /* \"#utility.yul\":7405:7460   */\n      mstore\n        /* \"#utility.yul\":7477:7495   */\n      0x64\n      add\n        /* \"@openzeppelin/contracts/token/ERC721/ERC721.sol\":11434:11489  require(owner != operator, \"ERC721: approve to caller\") */\n      tag_98\n        /* \"#utility.yul\":7152:7501   */\n      jump\n        /* \"@openzeppelin/contracts/token/ERC721/ERC721.sol\":11434:11489  require(owner != operator, \"ERC721: approve to caller\") */\n    tag_210:\n      sub(shl(0xa0, 0x01), 0x01)\n        /* \"@openzeppelin/contracts/token/ERC721/ERC721.sol\":11499:11524  _operatorApprovals[owner] */\n      dup4\n      dup2\n      and\n      0x00\n      dup2\n      dup2\n      mstore\n        /* \"@openzeppelin/contracts/token/ERC721/ERC721.sol\":11499:11517  _operatorApprovals */\n      0x05\n        /* \"@openzeppelin/contracts/token/ERC721/ERC721.sol\":11499:11524  _operatorApprovals[owner] */\n      0x20\n      swap1\n      dup2\n      mstore\n      0x40\n      dup1\n      dup4\n      keccak256\n        /* \"@openzeppelin/contracts/token/ERC721/ERC721.sol\":11499:11534  _operatorApprovals[owner][operator] */\n      swap5\n      dup8\n      and\n      dup1\n      dup5\n      mstore\n      swap5\n      dup3\n      mstore\n      swap2\n      dup3\n      swap1\n      keccak256\n        /* \"@openzeppelin/contracts/token/ERC721/ERC721.sol\":11499:11545  _operatorApprovals[owner][operator] = approved */\n      dup1\n      sload\n      not(0xff)\n      and\n      dup7\n      iszero\n      iszero\n      swap1\n      dup2\n      or\n      swap1\n      swap2\n      sstore\n        /* \"@openzeppelin/contracts/token/ERC721/ERC721.sol\":11560:11601  ApprovalForAll(owner, operator, approved) */\n      swap2\n      mload\n        /* \"#utility.yul\":5695:5736   */\n      swap2\n      dup3\n      mstore\n        /* \"@openzeppelin/contracts/token/ERC721/ERC721.sol\":11560:11601  ApprovalForAll(owner, operator, approved) */\n      0x17307eab39ab6107e8899845ad3d59bd9653f200f220920489ca2b5937696c31\n      swap2\n        /* \"#utility.yul\":5668:5686   */\n      add\n        /* \"@openzeppelin/contracts/token/ERC721/ERC721.sol\":11560:11601  ApprovalForAll(owner, operator, approved) */\n      mload(0x40)\n      dup1\n      swap2\n      sub\n      swap1\n      log3\n        /* \"@openzeppelin/contracts/token/ERC721/ERC721.sol\":11301:11608  function _setApprovalForAll(... */\n      pop\n      pop\n      pop\n      jump\t// out\n        /* \"@openzeppelin/contracts/token/ERC721/ERC721.sol\":6534:6841  function _safeTransfer(... */\n    tag_150:\n        /* \"@openzeppelin/contracts/token/ERC721/ERC721.sol\":6685:6713  _transfer(from, to, tokenId) */\n      tag_215\n        /* \"@openzeppelin/contracts/token/ERC721/ERC721.sol\":6695:6699  from */\n      dup5\n        /* \"@openzeppelin/contracts/token/ERC721/ERC721.sol\":6701:6703  to */\n      dup5\n        /* \"@openzeppelin/contracts/token/ERC721/ERC721.sol\":6705:6712  tokenId */\n      dup5\n        /* \"@openzeppelin/contracts/token/ERC721/ERC721.sol\":6685:6694  _transfer */\n      tag_123\n        /* \"@openzeppelin/contracts/token/ERC721/ERC721.sol\":6685:6713  _transfer(from, to, tokenId) */\n      jump\t// in\n    tag_215:\n        /* \"@openzeppelin/contracts/token/ERC721/ERC721.sol\":6731:6779  _checkOnERC721Received(from, to, tokenId, _data) */\n      tag_216\n        /* \"@openzeppelin/contracts/token/ERC721/ERC721.sol\":6754:6758  from */\n      dup5\n        /* \"@openzeppelin/contracts/token/ERC721/ERC721.sol\":6760:6762  to */\n      dup5\n        /* \"@openzeppelin/contracts/token/ERC721/ERC721.sol\":6764:6771  tokenId */\n      dup5\n        /* \"@openzeppelin/contracts/token/ERC721/ERC721.sol\":6773:6778  _data */\n      dup5\n        /* \"@openzeppelin/contracts/token/ERC721/ERC721.sol\":6731:6753  _checkOnERC721Received */\n      tag_217\n        /* \"@openzeppelin/contracts/token/ERC721/ERC721.sol\":6731:6779  _checkOnERC721Received(from, to, tokenId, _data) */\n      jump\t// in\n    tag_216:\n        /* \"@openzeppelin/contracts/token/ERC721/ERC721.sol\":6723:6834  require(_checkOnERC721Received(from, to, tokenId, _data), \"ERC721: transfer to non ERC721Receiver implementer\") */\n      tag_149\n      jumpi\n      mload(0x40)\n      shl(0xe5, 0x461bcd)\n      dup2\n      mstore\n      0x04\n      add\n      tag_98\n      swap1\n      tag_220\n      jump\t// in\n        /* \"@openzeppelin/contracts/token/ERC721/ERC721.sol\":2803:3132  function tokenURI(uint256 tokenId) public view virtual override returns (string memory) {... */\n    tag_168:\n        /* \"@openzeppelin/contracts/token/ERC721/ERC721.sol\":2876:2889  string memory */\n      0x60\n        /* \"@openzeppelin/contracts/token/ERC721/ERC721.sol\":2909:2925  _exists(tokenId) */\n      tag_223\n        /* \"@openzeppelin/contracts/token/ERC721/ERC721.sol\":2917:2924  tokenId */\n      dup3\n        /* \"@openzeppelin/contracts/token/ERC721/ERC721.sol\":2909:2916  _exists */\n      tag_96\n        /* \"@openzeppelin/contracts/token/ERC721/ERC721.sol\":2909:2925  _exists(tokenId) */\n      jump\t// in\n    tag_223:\n        /* \"@openzeppelin/contracts/token/ERC721/ERC721.sol\":2901:2977  require(_exists(tokenId), \"ERC721Metadata: URI query for nonexistent token\") */\n      tag_224\n      jumpi\n      mload(0x40)\n      shl(0xe5, 0x461bcd)\n      dup2\n      mstore\n        /* \"#utility.yul\":11384:11386   */\n      0x20\n        /* \"@openzeppelin/contracts/token/ERC721/ERC721.sol\":2901:2977  require(_exists(tokenId), \"ERC721Metadata: URI query for nonexistent token\") */\n      0x04\n      dup3\n      add\n        /* \"#utility.yul\":11366:11387   */\n      mstore\n        /* \"#utility.yul\":11423:11425   */\n      0x2f\n        /* \"#utility.yul\":11403:11421   */\n      0x24\n      dup3\n      add\n        /* \"#utility.yul\":11396:11426   */\n      mstore\n        /* \"#utility.yul\":11462:11496   */\n      0x4552433732314d657461646174613a2055524920717565727920666f72206e6f\n        /* \"#utility.yul\":11442:11460   */\n      0x44\n      dup3\n      add\n        /* \"#utility.yul\":11435:11497   */\n      mstore\n      shl(0x89, 0x3732bc34b9ba32b73a103a37b5b2b7)\n        /* \"#utility.yul\":11513:11531   */\n      0x64\n      dup3\n      add\n        /* \"#utility.yul\":11506:11551   */\n      mstore\n        /* \"#utility.yul\":11568:11587   */\n      0x84\n      add\n        /* \"@openzeppelin/contracts/token/ERC721/ERC721.sol\":2901:2977  require(_exists(tokenId), \"ERC721Metadata: URI query for nonexistent token\") */\n      tag_98\n        /* \"#utility.yul\":11182:11593   */\n      jump\n        /* \"@openzeppelin/contracts/token/ERC721/ERC721.sol\":2901:2977  require(_exists(tokenId), \"ERC721Metadata: URI query for nonexistent token\") */\n    tag_224:\n        /* \"@openzeppelin/contracts/token/ERC721/ERC721.sol\":2988:3009  string memory baseURI */\n      0x00\n        /* \"@openzeppelin/contracts/token/ERC721/ERC721.sol\":3012:3022  _baseURI() */\n      tag_227\n        /* \"@openzeppelin/contracts/token/ERC721/ERC721.sol\":3449:3458  return \"\" */\n      0x40\n      dup1\n      mload\n      0x20\n      dup2\n      add\n      swap1\n      swap2\n      mstore\n      0x00\n      dup2\n      mstore\n      swap1\n        /* \"@openzeppelin/contracts/token/ERC721/ERC721.sol\":3373:3465  function _baseURI() internal view virtual returns (string memory) {... */\n      jump\n        /* \"@openzeppelin/contracts/token/ERC721/ERC721.sol\":3012:3022  _baseURI() */\n    tag_227:\n        /* \"@openzeppelin/contracts/token/ERC721/ERC721.sol\":2988:3022  string memory baseURI = _baseURI() */\n      swap1\n      pop\n        /* \"@openzeppelin/contracts/token/ERC721/ERC721.sol\":3063:3064  0 */\n      0x00\n        /* \"@openzeppelin/contracts/token/ERC721/ERC721.sol\":3045:3052  baseURI */\n      dup2\n        /* \"@openzeppelin/contracts/token/ERC721/ERC721.sol\":3039:3060  bytes(baseURI).length */\n      mload\n        /* \"@openzeppelin/contracts/token/ERC721/ERC721.sol\":3039:3064  bytes(baseURI).length > 0 */\n      gt\n        /* \"@openzeppelin/contracts/token/ERC721/ERC721.sol\":3039:3125  bytes(baseURI).length > 0 ? string(abi.encodePacked(baseURI, tokenId.toString())) : \"\" */\n      tag_228\n      jumpi\n      mload(0x40)\n      dup1\n      0x20\n      add\n      0x40\n      mstore\n      dup1\n      0x00\n      dup2\n      mstore\n      pop\n      jump(tag_176)\n    tag_228:\n        /* \"@openzeppelin/contracts/token/ERC721/ERC721.sol\":3091:3098  baseURI */\n      dup1\n        /* \"@openzeppelin/contracts/token/ERC721/ERC721.sol\":3100:3118  tokenId.toString() */\n      tag_230\n        /* \"@openzeppelin/contracts/token/ERC721/ERC721.sol\":3100:3107  tokenId */\n      dup5\n        /* \"@openzeppelin/contracts/token/ERC721/ERC721.sol\":3100:3116  tokenId.toString */\n      tag_231\n        /* \"@openzeppelin/contracts/token/ERC721/ERC721.sol\":3100:3118  tokenId.toString() */\n      jump\t// in\n    tag_230:\n        /* \"@openzeppelin/contracts/token/ERC721/ERC721.sol\":3074:3119  abi.encodePacked(baseURI, tokenId.toString()) */\n      add(0x20, mload(0x40))\n      tag_232\n      swap3\n      swap2\n      swap1\n      tag_166\n      jump\t// in\n    tag_232:\n      mload(0x40)\n      0x20\n      dup2\n      dup4\n      sub\n      sub\n      dup2\n      mstore\n      swap1\n      0x40\n      mstore\n        /* \"@openzeppelin/contracts/token/ERC721/ERC721.sol\":3032:3125  return bytes(baseURI).length > 0 ? string(abi.encodePacked(baseURI, tokenId.toString())) : \"\" */\n      swap4\n        /* \"@openzeppelin/contracts/token/ERC721/ERC721.sol\":2803:3132  function tokenURI(uint256 tokenId) public view virtual override returns (string memory) {... */\n      swap3\n      pop\n      pop\n      pop\n      jump\t// out\n        /* \"@openzeppelin/contracts/token/ERC721/ERC721.sol\":9063:9435  function _mint(address to, uint256 tokenId) internal virtual {... */\n    tag_175:\n      sub(shl(0xa0, 0x01), 0x01)\n        /* \"@openzeppelin/contracts/token/ERC721/ERC721.sol\":9142:9158  to != address(0) */\n      dup3\n      and\n        /* \"@openzeppelin/contracts/token/ERC721/ERC721.sol\":9134:9195  require(to != address(0), \"ERC721: mint to the zero address\") */\n      tag_236\n      jumpi\n      mload(0x40)\n      shl(0xe5, 0x461bcd)\n      dup2\n      mstore\n        /* \"#utility.yul\":9782:9784   */\n      0x20\n        /* \"@openzeppelin/contracts/token/ERC721/ERC721.sol\":9134:9195  require(to != address(0), \"ERC721: mint to the zero address\") */\n      0x04\n      dup3\n      add\n        /* \"#utility.yul\":9764:9785   */\n      dup2\n      swap1\n      mstore\n        /* \"#utility.yul\":9801:9819   */\n      0x24\n      dup3\n      add\n        /* \"#utility.yul\":9794:9824   */\n      mstore\n        /* \"#utility.yul\":9860:9894   */\n      0x4552433732313a206d696e7420746f20746865207a65726f2061646472657373\n        /* \"#utility.yul\":9840:9858   */\n      0x44\n      dup3\n      add\n        /* \"#utility.yul\":9833:9895   */\n      mstore\n        /* \"#utility.yul\":9912:9930   */\n      0x64\n      add\n        /* \"@openzeppelin/contracts/token/ERC721/ERC721.sol\":9134:9195  require(to != address(0), \"ERC721: mint to the zero address\") */\n      tag_98\n        /* \"#utility.yul\":9580:9936   */\n      jump\n        /* \"@openzeppelin/contracts/token/ERC721/ERC721.sol\":9134:9195  require(to != address(0), \"ERC721: mint to the zero address\") */\n    tag_236:\n        /* \"@openzeppelin/contracts/token/ERC721/ERC721.sol\":9214:9230  _exists(tokenId) */\n      tag_239\n        /* \"@openzeppelin/contracts/token/ERC721/ERC721.sol\":9222:9229  tokenId */\n      dup2\n        /* \"@openzeppelin/contracts/token/ERC721/ERC721.sol\":9214:9221  _exists */\n      tag_96\n        /* \"@openzeppelin/contracts/token/ERC721/ERC721.sol\":9214:9230  _exists(tokenId) */\n      jump\t// in\n    tag_239:\n        /* \"@openzeppelin/contracts/token/ERC721/ERC721.sol\":9213:9230  !_exists(tokenId) */\n      iszero\n        /* \"@openzeppelin/contracts/token/ERC721/ERC721.sol\":9205:9263  require(!_exists(tokenId), \"ERC721: token already minted\") */\n      tag_240\n      jumpi\n      mload(0x40)\n      shl(0xe5, 0x461bcd)\n      dup2\n      mstore\n        /* \"#utility.yul\":6592:6594   */\n      0x20\n        /* \"@openzeppelin/contracts/token/ERC721/ERC721.sol\":9205:9263  require(!_exists(tokenId), \"ERC721: token already minted\") */\n      0x04\n      dup3\n      add\n        /* \"#utility.yul\":6574:6595   */\n      mstore\n        /* \"#utility.yul\":6631:6633   */\n      0x1c\n        /* \"#utility.yul\":6611:6629   */\n      0x24\n      dup3\n      add\n        /* \"#utility.yul\":6604:6634   */\n      mstore\n        /* \"#utility.yul\":6670:6700   */\n      0x4552433732313a20746f6b656e20616c7265616479206d696e74656400000000\n        /* \"#utility.yul\":6650:6668   */\n      0x44\n      dup3\n      add\n        /* \"#utility.yul\":6643:6701   */\n      mstore\n        /* \"#utility.yul\":6718:6736   */\n      0x64\n      add\n        /* \"@openzeppelin/contracts/token/ERC721/ERC721.sol\":9205:9263  require(!_exists(tokenId), \"ERC721: token already minted\") */\n      tag_98\n        /* \"#utility.yul\":6390:6742   */\n      jump\n        /* \"@openzeppelin/contracts/token/ERC721/ERC721.sol\":9205:9263  require(!_exists(tokenId), \"ERC721: token already minted\") */\n    tag_240:\n      sub(shl(0xa0, 0x01), 0x01)\n        /* \"@openzeppelin/contracts/token/ERC721/ERC721.sol\":9330:9343  _balances[to] */\n      dup3\n      and\n      0x00\n      swap1\n      dup2\n      mstore\n        /* \"@openzeppelin/contracts/token/ERC721/ERC721.sol\":9330:9339  _balances */\n      0x03\n        /* \"@openzeppelin/contracts/token/ERC721/ERC721.sol\":9330:9343  _balances[to] */\n      0x20\n      mstore\n      0x40\n      dup2\n      keccak256\n        /* \"@openzeppelin/contracts/token/ERC721/ERC721.sol\":9330:9348  _balances[to] += 1 */\n      dup1\n      sload\n        /* \"@openzeppelin/contracts/token/ERC721/ERC721.sol\":9347:9348  1 */\n      0x01\n      swap3\n        /* \"@openzeppelin/contracts/token/ERC721/ERC721.sol\":9330:9343  _balances[to] */\n      swap1\n        /* \"@openzeppelin/contracts/token/ERC721/ERC721.sol\":9330:9348  _balances[to] += 1 */\n      tag_244\n      swap1\n        /* \"@openzeppelin/contracts/token/ERC721/ERC721.sol\":9347:9348  1 */\n      dup5\n      swap1\n        /* \"@openzeppelin/contracts/token/ERC721/ERC721.sol\":9330:9348  _balances[to] += 1 */\n      tag_208\n      jump\t// in\n    tag_244:\n      swap1\n      swap2\n      sstore\n      pop\n      pop\n        /* \"@openzeppelin/contracts/token/ERC721/ERC721.sol\":9358:9374  _owners[tokenId] */\n      0x00\n      dup2\n      dup2\n      mstore\n        /* \"@openzeppelin/contracts/token/ERC721/ERC721.sol\":9358:9365  _owners */\n      0x02\n        /* \"@openzeppelin/contracts/token/ERC721/ERC721.sol\":9358:9374  _owners[tokenId] */\n      0x20\n      mstore\n      0x40\n      dup1\n      dup3\n      keccak256\n        /* \"@openzeppelin/contracts/token/ERC721/ERC721.sol\":9358:9379  _owners[tokenId] = to */\n      dup1\n      sload\n      not(sub(shl(0xa0, 0x01), 0x01))\n      and\n      sub(shl(0xa0, 0x01), 0x01)\n      dup7\n      and\n      swap1\n      dup2\n      or\n      swap1\n      swap2\n      sstore\n        /* \"@openzeppelin/contracts/token/ERC721/ERC721.sol\":9395:9428  Transfer(address(0), to, tokenId) */\n      swap1\n      mload\n        /* \"@openzeppelin/contracts/token/ERC721/ERC721.sol\":9358:9374  _owners[tokenId] */\n      dup4\n      swap3\n      swap1\n        /* \"@openzeppelin/contracts/token/ERC721/ERC721.sol\":9395:9428  Transfer(address(0), to, tokenId) */\n      0xddf252ad1be2c89b69c2b068fc378daa952ba7f163c4a11628f55a4df523b3ef\n      swap1\n        /* \"@openzeppelin/contracts/token/ERC721/ERC721.sol\":9358:9374  _owners[tokenId] */\n      dup3\n      swap1\n        /* \"@openzeppelin/contracts/token/ERC721/ERC721.sol\":9395:9428  Transfer(address(0), to, tokenId) */\n      log4\n        /* \"@openzeppelin/contracts/token/ERC721/ERC721.sol\":9063:9435  function _mint(address to, uint256 tokenId) internal virtual {... */\n      pop\n      pop\n      jump\t// out\n        /* \"@openzeppelin/contracts/token/ERC721/extensions/ERC721URIStorage.sol\":1277:1491  function _setTokenURI(uint256 tokenId, string memory _tokenURI) internal virtual {... */\n    tag_177:\n        /* \"@openzeppelin/contracts/token/ERC721/extensions/ERC721URIStorage.sol\":1376:1392  _exists(tokenId) */\n      tag_246\n        /* \"@openzeppelin/contracts/token/ERC721/extensions/ERC721URIStorage.sol\":1384:1391  tokenId */\n      dup3\n        /* \"@openzeppelin/contracts/token/ERC721/extensions/ERC721URIStorage.sol\":1376:1383  _exists */\n      tag_96\n        /* \"@openzeppelin/contracts/token/ERC721/extensions/ERC721URIStorage.sol\":1376:1392  _exists(tokenId) */\n      jump\t// in\n    tag_246:\n        /* \"@openzeppelin/contracts/token/ERC721/extensions/ERC721URIStorage.sol\":1368:1443  require(_exists(tokenId), \"ERC721URIStorage: URI set of nonexistent token\") */\n      tag_247\n      jumpi\n      mload(0x40)\n      shl(0xe5, 0x461bcd)\n      dup2\n      mstore\n        /* \"#utility.yul\":9367:9369   */\n      0x20\n        /* \"@openzeppelin/contracts/token/ERC721/extensions/ERC721URIStorage.sol\":1368:1443  require(_exists(tokenId), \"ERC721URIStorage: URI set of nonexistent token\") */\n      0x04\n      dup3\n      add\n        /* \"#utility.yul\":9349:9370   */\n      mstore\n        /* \"#utility.yul\":9406:9408   */\n      0x2e\n        /* \"#utility.yul\":9386:9404   */\n      0x24\n      dup3\n      add\n        /* \"#utility.yul\":9379:9409   */\n      mstore\n        /* \"#utility.yul\":9445:9479   */\n      0x45524337323155524953746f726167653a2055524920736574206f66206e6f6e\n        /* \"#utility.yul\":9425:9443   */\n      0x44\n      dup3\n      add\n        /* \"#utility.yul\":9418:9480   */\n      mstore\n      shl(0x91, 0x32bc34b9ba32b73a103a37b5b2b7)\n        /* \"#utility.yul\":9496:9514   */\n      0x64\n      dup3\n      add\n        /* \"#utility.yul\":9489:9533   */\n      mstore\n        /* \"#utility.yul\":9550:9569   */\n      0x84\n      add\n        /* \"@openzeppelin/contracts/token/ERC721/extensions/ERC721URIStorage.sol\":1368:1443  require(_exists(tokenId), \"ERC721URIStorage: URI set of nonexistent token\") */\n      tag_98\n        /* \"#utility.yul\":9165:9575   */\n      jump\n        /* \"@openzeppelin/contracts/token/ERC721/extensions/ERC721URIStorage.sol\":1368:1443  require(_exists(tokenId), \"ERC721URIStorage: URI set of nonexistent token\") */\n    tag_247:\n        /* \"@openzeppelin/contracts/token/ERC721/extensions/ERC721URIStorage.sol\":1453:1472  _tokenURIs[tokenId] */\n      0x00\n      dup3\n      dup2\n      mstore\n        /* \"@openzeppelin/contracts/token/ERC721/extensions/ERC721URIStorage.sol\":1453:1463  _tokenURIs */\n      0x06\n        /* \"@openzeppelin/contracts/token/ERC721/extensions/ERC721URIStorage.sol\":1453:1472  _tokenURIs[tokenId] */\n      0x20\n      swap1\n      dup2\n      mstore\n      0x40\n      swap1\n      swap2\n      keccak256\n        /* \"@openzeppelin/contracts/token/ERC721/extensions/ERC721URIStorage.sol\":1453:1484  _tokenURIs[tokenId] = _tokenURI */\n      dup3\n      mload\n      tag_113\n      swap3\n      dup5\n      add\n      swap1\n      tag_251\n      jump\t// in\n        /* \"@openzeppelin/contracts/token/ERC721/ERC721.sol\":12161:12939  function _checkOnERC721Received(... */\n    tag_217:\n        /* \"@openzeppelin/contracts/token/ERC721/ERC721.sol\":12311:12315  bool */\n      0x00\n      sub(shl(0xa0, 0x01), 0x01)\n        /* \"@openzeppelin/contracts/token/ERC721/ERC721.sol\":12331:12344  to.isContract */\n      dup5\n      and\n        /* \"@openzeppelin/contracts/utils/Address.sol\":1087:1107  extcodesize(account) */\n      extcodesize\n        /* \"@openzeppelin/contracts/utils/Address.sol\":1133:1141  size > 0 */\n      iszero\n        /* \"@openzeppelin/contracts/token/ERC721/ERC721.sol\":12327:12933  if (to.isContract()) {... */\n      tag_256\n      jumpi\n        /* \"@openzeppelin/contracts/token/ERC721/ERC721.sol\":12366:12438  IERC721Receiver(to).onERC721Received(_msgSender(), from, tokenId, _data) */\n      mload(0x40)\n      shl(0xe1, 0x0a85bd01)\n      dup2\n      mstore\n      sub(shl(0xa0, 0x01), 0x01)\n        /* \"@openzeppelin/contracts/token/ERC721/ERC721.sol\":12366:12402  IERC721Receiver(to).onERC721Received */\n      dup6\n      and\n      swap1\n      0x150b7a02\n      swap1\n        /* \"@openzeppelin/contracts/token/ERC721/ERC721.sol\":12366:12438  IERC721Receiver(to).onERC721Received(_msgSender(), from, tokenId, _data) */\n      tag_258\n      swap1\n        /* \"@openzeppelin/contracts/utils/Context.sol\":719:729  msg.sender */\n      caller\n      swap1\n        /* \"@openzeppelin/contracts/token/ERC721/ERC721.sol\":12417:12421  from */\n      dup10\n      swap1\n        /* \"@openzeppelin/contracts/token/ERC721/ERC721.sol\":12423:12430  tokenId */\n      dup9\n      swap1\n        /* \"@openzeppelin/contracts/token/ERC721/ERC721.sol\":12432:12437  _data */\n      dup9\n      swap1\n        /* \"@openzeppelin/contracts/token/ERC721/ERC721.sol\":12366:12438  IERC721Receiver(to).onERC721Received(_msgSender(), from, tokenId, _data) */\n      0x04\n      add\n      tag_259\n      jump\t// in\n    tag_258:\n      0x20\n      mload(0x40)\n      dup1\n      dup4\n      sub\n      dup2\n      0x00\n      dup8\n      dup1\n      extcodesize\n      iszero\n      dup1\n      iszero\n      tag_260\n      jumpi\n      0x00\n      dup1\n      revert\n    tag_260:\n      pop\n      gas\n      call\n      swap3\n      pop\n      pop\n      pop\n      dup1\n      iszero\n      tag_261\n      jumpi\n      pop\n      0x40\n      dup1\n      mload\n      0x1f\n      returndatasize\n      swap1\n      dup2\n      add\n      not(0x1f)\n      and\n      dup3\n      add\n      swap1\n      swap3\n      mstore\n      tag_262\n      swap2\n      dup2\n      add\n      swap1\n      tag_263\n      jump\t// in\n    tag_262:\n      0x01\n    tag_261:\n        /* \"@openzeppelin/contracts/token/ERC721/ERC721.sol\":12362:12881  try IERC721Receiver(to).onERC721Received(_msgSender(), from, tokenId, _data) returns (bytes4 retval) {... */\n      tag_264\n      jumpi\n      returndatasize\n      dup1\n      dup1\n      iszero\n      tag_269\n      jumpi\n      mload(0x40)\n      swap2\n      pop\n      and(add(returndatasize, 0x3f), not(0x1f))\n      dup3\n      add\n      0x40\n      mstore\n      returndatasize\n      dup3\n      mstore\n      returndatasize\n      0x00\n      0x20\n      dup5\n      add\n      returndatacopy\n      jump(tag_268)\n    tag_269:\n      0x60\n      swap2\n      pop\n    tag_268:\n      pop\n        /* \"@openzeppelin/contracts/token/ERC721/ERC721.sol\":12605:12618  reason.length */\n      dup1\n      mload\n        /* \"@openzeppelin/contracts/token/ERC721/ERC721.sol\":12601:12867  if (reason.length == 0) {... */\n      tag_270\n      jumpi\n        /* \"@openzeppelin/contracts/token/ERC721/ERC721.sol\":12647:12707  revert(\"ERC721: transfer to non ERC721Receiver implementer\") */\n      mload(0x40)\n      shl(0xe5, 0x461bcd)\n      dup2\n      mstore\n      0x04\n      add\n      tag_98\n      swap1\n      tag_220\n      jump\t// in\n        /* \"@openzeppelin/contracts/token/ERC721/ERC721.sol\":12601:12867  if (reason.length == 0) {... */\n    tag_270:\n        /* \"@openzeppelin/contracts/token/ERC721/ERC721.sol\":12819:12825  reason */\n      dup1\n        /* \"@openzeppelin/contracts/token/ERC721/ERC721.sol\":12813:12826  mload(reason) */\n      mload\n        /* \"@openzeppelin/contracts/token/ERC721/ERC721.sol\":12804:12810  reason */\n      dup2\n        /* \"@openzeppelin/contracts/token/ERC721/ERC721.sol\":12800:12802  32 */\n      0x20\n        /* \"@openzeppelin/contracts/token/ERC721/ERC721.sol\":12796:12811  add(32, reason) */\n      add\n        /* \"@openzeppelin/contracts/token/ERC721/ERC721.sol\":12789:12827  revert(add(32, reason), mload(reason)) */\n      revert\n        /* \"@openzeppelin/contracts/token/ERC721/ERC721.sol\":12362:12881  try IERC721Receiver(to).onERC721Received(_msgSender(), from, tokenId, _data) returns (bytes4 retval) {... */\n    tag_264:\n      not(sub(shl(0xe0, 0x01), 0x01))\n        /* \"@openzeppelin/contracts/token/ERC721/ERC721.sol\":12488:12539  retval == IERC721Receiver.onERC721Received.selector */\n      and\n      shl(0xe1, 0x0a85bd01)\n      eq\n      swap1\n      pop\n        /* \"@openzeppelin/contracts/token/ERC721/ERC721.sol\":12481:12539  return retval == IERC721Receiver.onERC721Received.selector */\n      jump(tag_167)\n        /* \"@openzeppelin/contracts/token/ERC721/ERC721.sol\":12327:12933  if (to.isContract()) {... */\n    tag_256:\n      pop\n        /* \"@openzeppelin/contracts/token/ERC721/ERC721.sol\":12918:12922  true */\n      0x01\n        /* \"@openzeppelin/contracts/token/ERC721/ERC721.sol\":12161:12939  function _checkOnERC721Received(... */\n      swap5\n      swap4\n      pop\n      pop\n      pop\n      pop\n      jump\t// out\n        /* \"@openzeppelin/contracts/utils/Strings.sol\":328:1031  function toString(uint256 value) internal pure returns (string memory) {... */\n    tag_231:\n        /* \"@openzeppelin/contracts/utils/Strings.sol\":384:397  string memory */\n      0x60\n        /* \"@openzeppelin/contracts/utils/Strings.sol\":601:611  value == 0 */\n      dup2\n        /* \"@openzeppelin/contracts/utils/Strings.sol\":597:648  if (value == 0) {... */\n      tag_276\n      jumpi\n      pop\n      pop\n        /* \"@openzeppelin/contracts/utils/Strings.sol\":627:637  return \"0\" */\n      0x40\n      dup1\n      mload\n      dup1\n      dup3\n      add\n      swap1\n      swap2\n      mstore\n      0x01\n      dup2\n      mstore\n      shl(0xfc, 0x03)\n      0x20\n      dup3\n      add\n      mstore\n      swap1\n        /* \"@openzeppelin/contracts/utils/Strings.sol\":328:1031  function toString(uint256 value) internal pure returns (string memory) {... */\n      jump\t// out\n        /* \"@openzeppelin/contracts/utils/Strings.sol\":597:648  if (value == 0) {... */\n    tag_276:\n        /* \"@openzeppelin/contracts/utils/Strings.sol\":672:677  value */\n      dup2\n        /* \"@openzeppelin/contracts/utils/Strings.sol\":657:669  uint256 temp */\n      0x00\n        /* \"@openzeppelin/contracts/utils/Strings.sol\":711:786  while (temp != 0) {... */\n    tag_277:\n        /* \"@openzeppelin/contracts/utils/Strings.sol\":718:727  temp != 0 */\n      dup2\n      iszero\n        /* \"@openzeppelin/contracts/utils/Strings.sol\":711:786  while (temp != 0) {... */\n      tag_278\n      jumpi\n        /* \"@openzeppelin/contracts/utils/Strings.sol\":743:751  digits++ */\n      dup1\n      tag_279\n      dup2\n      tag_280\n      jump\t// in\n    tag_279:\n      swap2\n      pop\n        /* \"@openzeppelin/contracts/utils/Strings.sol\":765:775  temp /= 10 */\n      tag_281\n      swap1\n      pop\n        /* \"@openzeppelin/contracts/utils/Strings.sol\":773:775  10 */\n      0x0a\n        /* \"@openzeppelin/contracts/utils/Strings.sol\":765:775  temp /= 10 */\n      dup4\n      tag_282\n      jump\t// in\n    tag_281:\n      swap2\n      pop\n        /* \"@openzeppelin/contracts/utils/Strings.sol\":711:786  while (temp != 0) {... */\n      jump(tag_277)\n    tag_278:\n        /* \"@openzeppelin/contracts/utils/Strings.sol\":795:814  bytes memory buffer */\n      0x00\n        /* \"@openzeppelin/contracts/utils/Strings.sol\":827:833  digits */\n      dup2\n        /* \"@openzeppelin/contracts/utils/Strings.sol\":817:834  new bytes(digits) */\n      0xffffffffffffffff\n      dup2\n      gt\n      iszero\n      tag_284\n      jumpi\n      tag_284\n      tag_285\n      jump\t// in\n    tag_284:\n      mload(0x40)\n      swap1\n      dup1\n      dup3\n      mstore\n      dup1\n      0x1f\n      add\n      not(0x1f)\n      and\n      0x20\n      add\n      dup3\n      add\n      0x40\n      mstore\n      dup1\n      iszero\n      tag_286\n      jumpi\n      0x20\n      dup3\n      add\n      dup2\n      dup1\n      calldatasize\n      dup4\n      calldatacopy\n      add\n      swap1\n      pop\n    tag_286:\n      pop\n        /* \"@openzeppelin/contracts/utils/Strings.sol\":795:834  bytes memory buffer = new bytes(digits) */\n      swap1\n      pop\n        /* \"@openzeppelin/contracts/utils/Strings.sol\":844:994  while (value != 0) {... */\n    tag_287:\n        /* \"@openzeppelin/contracts/utils/Strings.sol\":851:861  value != 0 */\n      dup5\n      iszero\n        /* \"@openzeppelin/contracts/utils/Strings.sol\":844:994  while (value != 0) {... */\n      tag_167\n      jumpi\n        /* \"@openzeppelin/contracts/utils/Strings.sol\":877:888  digits -= 1 */\n      tag_289\n        /* \"@openzeppelin/contracts/utils/Strings.sol\":887:888  1 */\n      0x01\n        /* \"@openzeppelin/contracts/utils/Strings.sol\":877:888  digits -= 1 */\n      dup4\n      tag_206\n      jump\t// in\n    tag_289:\n      swap2\n      pop\n        /* \"@openzeppelin/contracts/utils/Strings.sol\":945:955  value % 10 */\n      tag_290\n        /* \"@openzeppelin/contracts/utils/Strings.sol\":953:955  10 */\n      0x0a\n        /* \"@openzeppelin/contracts/utils/Strings.sol\":945:950  value */\n      dup7\n        /* \"@openzeppelin/contracts/utils/Strings.sol\":945:955  value % 10 */\n      tag_291\n      jump\t// in\n    tag_290:\n        /* \"@openzeppelin/contracts/utils/Strings.sol\":932:956  48 + uint256(value % 10) */\n      tag_292\n      swap1\n        /* \"@openzeppelin/contracts/utils/Strings.sol\":932:934  48 */\n      0x30\n        /* \"@openzeppelin/contracts/utils/Strings.sol\":932:956  48 + uint256(value % 10) */\n      tag_208\n      jump\t// in\n    tag_292:\n        /* \"@openzeppelin/contracts/utils/Strings.sol\":919:958  bytes1(uint8(48 + uint256(value % 10))) */\n      0xf8\n      shl\n        /* \"@openzeppelin/contracts/utils/Strings.sol\":902:908  buffer */\n      dup2\n        /* \"@openzeppelin/contracts/utils/Strings.sol\":909:915  digits */\n      dup4\n        /* \"@openzeppelin/contracts/utils/Strings.sol\":902:916  buffer[digits] */\n      dup2\n      mload\n      dup2\n      lt\n      tag_294\n      jumpi\n      tag_294\n      tag_295\n      jump\t// in\n    tag_294:\n      0x20\n      add\n      add\n        /* \"@openzeppelin/contracts/utils/Strings.sol\":902:958  buffer[digits] = bytes1(uint8(48 + uint256(value % 10))) */\n      swap1\n      not(sub(shl(0xf8, 0x01), 0x01))\n      and\n      swap1\n      dup2\n      0x00\n      byte\n      swap1\n      mstore8\n      pop\n        /* \"@openzeppelin/contracts/utils/Strings.sol\":972:983  value /= 10 */\n      tag_296\n        /* \"@openzeppelin/contracts/utils/Strings.sol\":981:983  10 */\n      0x0a\n        /* \"@openzeppelin/contracts/utils/Strings.sol\":972:983  value /= 10 */\n      dup7\n      tag_282\n      jump\t// in\n    tag_296:\n      swap5\n      pop\n        /* \"@openzeppelin/contracts/utils/Strings.sol\":844:994  while (value != 0) {... */\n      jump(tag_287)\n    tag_251:\n      dup3\n      dup1\n      sload\n      tag_298\n      swap1\n      tag_89\n      jump\t// in\n    tag_298:\n      swap1\n      0x00\n      mstore\n      keccak256(0x00, 0x20)\n      swap1\n      0x1f\n      add\n      0x20\n      swap1\n      div\n      dup2\n      add\n      swap3\n      dup3\n      tag_300\n      jumpi\n      0x00\n      dup6\n      sstore\n      jump(tag_303)\n    tag_300:\n      dup3\n      0x1f\n      lt\n      tag_301\n      jumpi\n      dup1\n      mload\n      not(0xff)\n      and\n      dup4\n      dup1\n      add\n      or\n      dup6\n      sstore\n      jump(tag_303)\n    tag_301:\n      dup3\n      dup1\n      add\n      0x01\n      add\n      dup6\n      sstore\n      dup3\n      iszero\n      tag_303\n      jumpi\n      swap2\n      dup3\n      add\n    tag_302:\n      dup3\n      dup2\n      gt\n      iszero\n      tag_303\n      jumpi\n      dup3\n      mload\n      dup3\n      sstore\n      swap2\n      0x20\n      add\n      swap2\n      swap1\n      0x01\n      add\n      swap1\n      jump(tag_302)\n    tag_303:\n      pop\n      tag_304\n      swap3\n      swap2\n      pop\n      tag_305\n      jump\t// in\n    tag_304:\n      pop\n      swap1\n      jump\t// out\n    tag_305:\n    tag_306:\n      dup1\n      dup3\n      gt\n      iszero\n      tag_304\n      jumpi\n      0x00\n      dup2\n      sstore\n      0x01\n      add\n      jump(tag_306)\n        /* \"#utility.yul\":14:645   */\n    tag_309:\n        /* \"#utility.yul\":78:83   */\n      0x00\n        /* \"#utility.yul\":108:126   */\n      0xffffffffffffffff\n        /* \"#utility.yul\":149:151   */\n      dup1\n        /* \"#utility.yul\":141:147   */\n      dup5\n        /* \"#utility.yul\":138:152   */\n      gt\n        /* \"#utility.yul\":135:175   */\n      iszero\n      tag_312\n      jumpi\n        /* \"#utility.yul\":155:173   */\n      tag_312\n      tag_285\n      jump\t// in\n    tag_312:\n        /* \"#utility.yul\":230:232   */\n      0x40\n        /* \"#utility.yul\":224:233   */\n      mload\n        /* \"#utility.yul\":198:200   */\n      0x1f\n        /* \"#utility.yul\":284:299   */\n      dup6\n      add\n      not(0x1f)\n        /* \"#utility.yul\":280:304   */\n      swap1\n      dup2\n      and\n        /* \"#utility.yul\":306:308   */\n      0x3f\n        /* \"#utility.yul\":276:309   */\n      add\n        /* \"#utility.yul\":272:314   */\n      and\n        /* \"#utility.yul\":260:315   */\n      dup2\n      add\n      swap1\n        /* \"#utility.yul\":330:348   */\n      dup3\n      dup3\n      gt\n        /* \"#utility.yul\":350:372   */\n      dup2\n      dup4\n      lt\n        /* \"#utility.yul\":327:373   */\n      or\n        /* \"#utility.yul\":324:396   */\n      iszero\n      tag_314\n      jumpi\n        /* \"#utility.yul\":376:394   */\n      tag_314\n      tag_285\n      jump\t// in\n    tag_314:\n        /* \"#utility.yul\":416:426   */\n      dup2\n        /* \"#utility.yul\":412:414   */\n      0x40\n        /* \"#utility.yul\":405:427   */\n      mstore\n        /* \"#utility.yul\":445:451   */\n      dup1\n        /* \"#utility.yul\":436:451   */\n      swap4\n      pop\n        /* \"#utility.yul\":475:481   */\n      dup6\n        /* \"#utility.yul\":467:473   */\n      dup2\n        /* \"#utility.yul\":460:482   */\n      mstore\n        /* \"#utility.yul\":515:518   */\n      dup7\n        /* \"#utility.yul\":506:512   */\n      dup7\n        /* \"#utility.yul\":501:504   */\n      dup7\n        /* \"#utility.yul\":497:513   */\n      add\n        /* \"#utility.yul\":494:519   */\n      gt\n        /* \"#utility.yul\":491:536   */\n      iszero\n      tag_315\n      jumpi\n        /* \"#utility.yul\":532:533   */\n      0x00\n        /* \"#utility.yul\":529:530   */\n      dup1\n        /* \"#utility.yul\":522:534   */\n      revert\n        /* \"#utility.yul\":491:536   */\n    tag_315:\n        /* \"#utility.yul\":582:588   */\n      dup6\n        /* \"#utility.yul\":577:580   */\n      dup6\n        /* \"#utility.yul\":570:574   */\n      0x20\n        /* \"#utility.yul\":562:568   */\n      dup4\n        /* \"#utility.yul\":558:575   */\n      add\n        /* \"#utility.yul\":545:589   */\n      calldatacopy\n        /* \"#utility.yul\":637:638   */\n      0x00\n        /* \"#utility.yul\":630:634   */\n      0x20\n        /* \"#utility.yul\":621:627   */\n      dup8\n        /* \"#utility.yul\":613:619   */\n      dup4\n        /* \"#utility.yul\":609:628   */\n      add\n        /* \"#utility.yul\":605:635   */\n      add\n        /* \"#utility.yul\":598:639   */\n      mstore\n      pop\n      pop\n      pop\n        /* \"#utility.yul\":14:645   */\n      swap4\n      swap3\n      pop\n      pop\n      pop\n      jump\t// out\n        /* \"#utility.yul\":650:823   */\n    tag_316:\n        /* \"#utility.yul\":718:738   */\n      dup1\n      calldataload\n      sub(shl(0xa0, 0x01), 0x01)\n        /* \"#utility.yul\":767:798   */\n      dup2\n      and\n        /* \"#utility.yul\":757:799   */\n      dup2\n      eq\n        /* \"#utility.yul\":747:817   */\n      tag_318\n      jumpi\n        /* \"#utility.yul\":813:814   */\n      0x00\n        /* \"#utility.yul\":810:811   */\n      dup1\n        /* \"#utility.yul\":803:815   */\n      revert\n        /* \"#utility.yul\":747:817   */\n    tag_318:\n        /* \"#utility.yul\":650:823   */\n      swap2\n      swap1\n      pop\n      jump\t// out\n        /* \"#utility.yul\":828:1014   */\n    tag_53:\n        /* \"#utility.yul\":887:893   */\n      0x00\n        /* \"#utility.yul\":940:942   */\n      0x20\n        /* \"#utility.yul\":928:937   */\n      dup3\n        /* \"#utility.yul\":919:926   */\n      dup5\n        /* \"#utility.yul\":915:938   */\n      sub\n        /* \"#utility.yul\":911:943   */\n      slt\n        /* \"#utility.yul\":908:960   */\n      iszero\n      tag_320\n      jumpi\n        /* \"#utility.yul\":956:957   */\n      0x00\n        /* \"#utility.yul\":953:954   */\n      dup1\n        /* \"#utility.yul\":946:958   */\n      revert\n        /* \"#utility.yul\":908:960   */\n    tag_320:\n        /* \"#utility.yul\":979:1008   */\n      tag_176\n        /* \"#utility.yul\":998:1007   */\n      dup3\n        /* \"#utility.yul\":979:1008   */\n      tag_316\n      jump\t// in\n        /* \"#utility.yul\":1019:1279   */\n    tag_79:\n        /* \"#utility.yul\":1087:1093   */\n      0x00\n        /* \"#utility.yul\":1095:1101   */\n      dup1\n        /* \"#utility.yul\":1148:1150   */\n      0x40\n        /* \"#utility.yul\":1136:1145   */\n      dup4\n        /* \"#utility.yul\":1127:1134   */\n      dup6\n        /* \"#utility.yul\":1123:1146   */\n      sub\n        /* \"#utility.yul\":1119:1151   */\n      slt\n        /* \"#utility.yul\":1116:1168   */\n      iszero\n      tag_323\n      jumpi\n        /* \"#utility.yul\":1164:1165   */\n      0x00\n        /* \"#utility.yul\":1161:1162   */\n      dup1\n        /* \"#utility.yul\":1154:1166   */\n      revert\n        /* \"#utility.yul\":1116:1168   */\n    tag_323:\n        /* \"#utility.yul\":1187:1216   */\n      tag_324\n        /* \"#utility.yul\":1206:1215   */\n      dup4\n        /* \"#utility.yul\":1187:1216   */\n      tag_316\n      jump\t// in\n    tag_324:\n        /* \"#utility.yul\":1177:1216   */\n      swap2\n      pop\n        /* \"#utility.yul\":1235:1273   */\n      tag_325\n        /* \"#utility.yul\":1269:1271   */\n      0x20\n        /* \"#utility.yul\":1258:1267   */\n      dup5\n        /* \"#utility.yul\":1254:1272   */\n      add\n        /* \"#utility.yul\":1235:1273   */\n      tag_316\n      jump\t// in\n    tag_325:\n        /* \"#utility.yul\":1225:1273   */\n      swap1\n      pop\n        /* \"#utility.yul\":1019:1279   */\n      swap3\n      pop\n      swap3\n      swap1\n      pop\n      jump\t// out\n        /* \"#utility.yul\":1284:1612   */\n    tag_42:\n        /* \"#utility.yul\":1361:1367   */\n      0x00\n        /* \"#utility.yul\":1369:1375   */\n      dup1\n        /* \"#utility.yul\":1377:1383   */\n      0x00\n        /* \"#utility.yul\":1430:1432   */\n      0x60\n        /* \"#utility.yul\":1418:1427   */\n      dup5\n        /* \"#utility.yul\":1409:1416   */\n      dup7\n        /* \"#utility.yul\":1405:1428   */\n      sub\n        /* \"#utility.yul\":1401:1433   */\n      slt\n        /* \"#utility.yul\":1398:1450   */\n      iszero\n      tag_327\n      jumpi\n        /* \"#utility.yul\":1446:1447   */\n      0x00\n        /* \"#utility.yul\":1443:1444   */\n      dup1\n        /* \"#utility.yul\":1436:1448   */\n      revert\n        /* \"#utility.yul\":1398:1450   */\n    tag_327:\n        /* \"#utility.yul\":1469:1498   */\n      tag_328\n        /* \"#utility.yul\":1488:1497   */\n      dup5\n        /* \"#utility.yul\":1469:1498   */\n      tag_316\n      jump\t// in\n    tag_328:\n        /* \"#utility.yul\":1459:1498   */\n      swap3\n      pop\n        /* \"#utility.yul\":1517:1555   */\n      tag_329\n        /* \"#utility.yul\":1551:1553   */\n      0x20\n        /* \"#utility.yul\":1540:1549   */\n      dup6\n        /* \"#utility.yul\":1536:1554   */\n      add\n        /* \"#utility.yul\":1517:1555   */\n      tag_316\n      jump\t// in\n    tag_329:\n        /* \"#utility.yul\":1507:1555   */\n      swap2\n      pop\n        /* \"#utility.yul\":1602:1604   */\n      0x40\n        /* \"#utility.yul\":1591:1600   */\n      dup5\n        /* \"#utility.yul\":1587:1605   */\n      add\n        /* \"#utility.yul\":1574:1606   */\n      calldataload\n        /* \"#utility.yul\":1564:1606   */\n      swap1\n      pop\n        /* \"#utility.yul\":1284:1612   */\n      swap3\n      pop\n      swap3\n      pop\n      swap3\n      jump\t// out\n        /* \"#utility.yul\":1617:2283   */\n    tag_66:\n        /* \"#utility.yul\":1712:1718   */\n      0x00\n        /* \"#utility.yul\":1720:1726   */\n      dup1\n        /* \"#utility.yul\":1728:1734   */\n      0x00\n        /* \"#utility.yul\":1736:1742   */\n      dup1\n        /* \"#utility.yul\":1789:1792   */\n      0x80\n        /* \"#utility.yul\":1777:1786   */\n      dup6\n        /* \"#utility.yul\":1768:1775   */\n      dup8\n        /* \"#utility.yul\":1764:1787   */\n      sub\n        /* \"#utility.yul\":1760:1793   */\n      slt\n        /* \"#utility.yul\":1757:1810   */\n      iszero\n      tag_331\n      jumpi\n        /* \"#utility.yul\":1806:1807   */\n      0x00\n        /* \"#utility.yul\":1803:1804   */\n      dup1\n        /* \"#utility.yul\":1796:1808   */\n      revert\n        /* \"#utility.yul\":1757:1810   */\n    tag_331:\n        /* \"#utility.yul\":1829:1858   */\n      tag_332\n        /* \"#utility.yul\":1848:1857   */\n      dup6\n        /* \"#utility.yul\":1829:1858   */\n      tag_316\n      jump\t// in\n    tag_332:\n        /* \"#utility.yul\":1819:1858   */\n      swap4\n      pop\n        /* \"#utility.yul\":1877:1915   */\n      tag_333\n        /* \"#utility.yul\":1911:1913   */\n      0x20\n        /* \"#utility.yul\":1900:1909   */\n      dup7\n        /* \"#utility.yul\":1896:1914   */\n      add\n        /* \"#utility.yul\":1877:1915   */\n      tag_316\n      jump\t// in\n    tag_333:\n        /* \"#utility.yul\":1867:1915   */\n      swap3\n      pop\n        /* \"#utility.yul\":1962:1964   */\n      0x40\n        /* \"#utility.yul\":1951:1960   */\n      dup6\n        /* \"#utility.yul\":1947:1965   */\n      add\n        /* \"#utility.yul\":1934:1966   */\n      calldataload\n        /* \"#utility.yul\":1924:1966   */\n      swap2\n      pop\n        /* \"#utility.yul\":2017:2019   */\n      0x60\n        /* \"#utility.yul\":2006:2015   */\n      dup6\n        /* \"#utility.yul\":2002:2020   */\n      add\n        /* \"#utility.yul\":1989:2021   */\n      calldataload\n        /* \"#utility.yul\":2044:2062   */\n      0xffffffffffffffff\n        /* \"#utility.yul\":2036:2042   */\n      dup2\n        /* \"#utility.yul\":2033:2063   */\n      gt\n        /* \"#utility.yul\":2030:2080   */\n      iszero\n      tag_334\n      jumpi\n        /* \"#utility.yul\":2076:2077   */\n      0x00\n        /* \"#utility.yul\":2073:2074   */\n      dup1\n        /* \"#utility.yul\":2066:2078   */\n      revert\n        /* \"#utility.yul\":2030:2080   */\n    tag_334:\n        /* \"#utility.yul\":2099:2121   */\n      dup6\n      add\n        /* \"#utility.yul\":2152:2156   */\n      0x1f\n        /* \"#utility.yul\":2144:2157   */\n      dup2\n      add\n        /* \"#utility.yul\":2140:2167   */\n      dup8\n      sgt\n        /* \"#utility.yul\":2130:2185   */\n      tag_335\n      jumpi\n        /* \"#utility.yul\":2181:2182   */\n      0x00\n        /* \"#utility.yul\":2178:2179   */\n      dup1\n        /* \"#utility.yul\":2171:2183   */\n      revert\n        /* \"#utility.yul\":2130:2185   */\n    tag_335:\n        /* \"#utility.yul\":2204:2277   */\n      tag_336\n        /* \"#utility.yul\":2269:2276   */\n      dup8\n        /* \"#utility.yul\":2264:2266   */\n      dup3\n        /* \"#utility.yul\":2251:2267   */\n      calldataload\n        /* \"#utility.yul\":2246:2248   */\n      0x20\n        /* \"#utility.yul\":2242:2244   */\n      dup5\n        /* \"#utility.yul\":2238:2249   */\n      add\n        /* \"#utility.yul\":2204:2277   */\n      tag_309\n      jump\t// in\n    tag_336:\n        /* \"#utility.yul\":2194:2277   */\n      swap2\n      pop\n      pop\n        /* \"#utility.yul\":1617:2283   */\n      swap3\n      swap6\n      swap2\n      swap5\n      pop\n      swap3\n      pop\n      jump\t// out\n        /* \"#utility.yul\":2288:2635   */\n    tag_62:\n        /* \"#utility.yul\":2353:2359   */\n      0x00\n        /* \"#utility.yul\":2361:2367   */\n      dup1\n        /* \"#utility.yul\":2414:2416   */\n      0x40\n        /* \"#utility.yul\":2402:2411   */\n      dup4\n        /* \"#utility.yul\":2393:2400   */\n      dup6\n        /* \"#utility.yul\":2389:2412   */\n      sub\n        /* \"#utility.yul\":2385:2417   */\n      slt\n        /* \"#utility.yul\":2382:2434   */\n      iszero\n      tag_338\n      jumpi\n        /* \"#utility.yul\":2430:2431   */\n      0x00\n        /* \"#utility.yul\":2427:2428   */\n      dup1\n        /* \"#utility.yul\":2420:2432   */\n      revert\n        /* \"#utility.yul\":2382:2434   */\n    tag_338:\n        /* \"#utility.yul\":2453:2482   */\n      tag_339\n        /* \"#utility.yul\":2472:2481   */\n      dup4\n        /* \"#utility.yul\":2453:2482   */\n      tag_316\n      jump\t// in\n    tag_339:\n        /* \"#utility.yul\":2443:2482   */\n      swap2\n      pop\n        /* \"#utility.yul\":2532:2534   */\n      0x20\n        /* \"#utility.yul\":2521:2530   */\n      dup4\n        /* \"#utility.yul\":2517:2535   */\n      add\n        /* \"#utility.yul\":2504:2536   */\n      calldataload\n        /* \"#utility.yul\":2579:2584   */\n      dup1\n        /* \"#utility.yul\":2572:2585   */\n      iszero\n        /* \"#utility.yul\":2565:2586   */\n      iszero\n        /* \"#utility.yul\":2558:2563   */\n      dup2\n        /* \"#utility.yul\":2555:2587   */\n      eq\n        /* \"#utility.yul\":2545:2605   */\n      tag_340\n      jumpi\n        /* \"#utility.yul\":2601:2602   */\n      0x00\n        /* \"#utility.yul\":2598:2599   */\n      dup1\n        /* \"#utility.yul\":2591:2603   */\n      revert\n        /* \"#utility.yul\":2545:2605   */\n    tag_340:\n        /* \"#utility.yul\":2624:2629   */\n      dup1\n        /* \"#utility.yul\":2614:2629   */\n      swap2\n      pop\n      pop\n        /* \"#utility.yul\":2288:2635   */\n      swap3\n      pop\n      swap3\n      swap1\n      pop\n      jump\t// out\n        /* \"#utility.yul\":2640:3164   */\n    tag_74:\n        /* \"#utility.yul\":2718:2724   */\n      0x00\n        /* \"#utility.yul\":2726:2732   */\n      dup1\n        /* \"#utility.yul\":2779:2781   */\n      0x40\n        /* \"#utility.yul\":2767:2776   */\n      dup4\n        /* \"#utility.yul\":2758:2765   */\n      dup6\n        /* \"#utility.yul\":2754:2777   */\n      sub\n        /* \"#utility.yul\":2750:2782   */\n      slt\n        /* \"#utility.yul\":2747:2799   */\n      iszero\n      tag_342\n      jumpi\n        /* \"#utility.yul\":2795:2796   */\n      0x00\n        /* \"#utility.yul\":2792:2793   */\n      dup1\n        /* \"#utility.yul\":2785:2797   */\n      revert\n        /* \"#utility.yul\":2747:2799   */\n    tag_342:\n        /* \"#utility.yul\":2818:2847   */\n      tag_343\n        /* \"#utility.yul\":2837:2846   */\n      dup4\n        /* \"#utility.yul\":2818:2847   */\n      tag_316\n      jump\t// in\n    tag_343:\n        /* \"#utility.yul\":2808:2847   */\n      swap2\n      pop\n        /* \"#utility.yul\":2898:2900   */\n      0x20\n        /* \"#utility.yul\":2887:2896   */\n      dup4\n        /* \"#utility.yul\":2883:2901   */\n      add\n        /* \"#utility.yul\":2870:2902   */\n      calldataload\n        /* \"#utility.yul\":2925:2943   */\n      0xffffffffffffffff\n        /* \"#utility.yul\":2917:2923   */\n      dup2\n        /* \"#utility.yul\":2914:2944   */\n      gt\n        /* \"#utility.yul\":2911:2961   */\n      iszero\n      tag_344\n      jumpi\n        /* \"#utility.yul\":2957:2958   */\n      0x00\n        /* \"#utility.yul\":2954:2955   */\n      dup1\n        /* \"#utility.yul\":2947:2959   */\n      revert\n        /* \"#utility.yul\":2911:2961   */\n    tag_344:\n        /* \"#utility.yul\":2980:3002   */\n      dup4\n      add\n        /* \"#utility.yul\":3033:3037   */\n      0x1f\n        /* \"#utility.yul\":3025:3038   */\n      dup2\n      add\n        /* \"#utility.yul\":3021:3048   */\n      dup6\n      sgt\n        /* \"#utility.yul\":3011:3066   */\n      tag_345\n      jumpi\n        /* \"#utility.yul\":3062:3063   */\n      0x00\n        /* \"#utility.yul\":3059:3060   */\n      dup1\n        /* \"#utility.yul\":3052:3064   */\n      revert\n        /* \"#utility.yul\":3011:3066   */\n    tag_345:\n        /* \"#utility.yul\":3085:3158   */\n      tag_346\n        /* \"#utility.yul\":3150:3157   */\n      dup6\n        /* \"#utility.yul\":3145:3147   */\n      dup3\n        /* \"#utility.yul\":3132:3148   */\n      calldataload\n        /* \"#utility.yul\":3127:3129   */\n      0x20\n        /* \"#utility.yul\":3123:3125   */\n      dup5\n        /* \"#utility.yul\":3119:3130   */\n      add\n        /* \"#utility.yul\":3085:3158   */\n      tag_309\n      jump\t// in\n    tag_346:\n        /* \"#utility.yul\":3075:3158   */\n      swap2\n      pop\n      pop\n        /* \"#utility.yul\":2640:3164   */\n      swap3\n      pop\n      swap3\n      swap1\n      pop\n      jump\t// out\n        /* \"#utility.yul\":3169:3423   */\n    tag_38:\n        /* \"#utility.yul\":3237:3243   */\n      0x00\n        /* \"#utility.yul\":3245:3251   */\n      dup1\n        /* \"#utility.yul\":3298:3300   */\n      0x40\n        /* \"#utility.yul\":3286:3295   */\n      dup4\n        /* \"#utility.yul\":3277:3284   */\n      dup6\n        /* \"#utility.yul\":3273:3296   */\n      sub\n        /* \"#utility.yul\":3269:3301   */\n      slt\n        /* \"#utility.yul\":3266:3318   */\n      iszero\n      tag_348\n      jumpi\n        /* \"#utility.yul\":3314:3315   */\n      0x00\n        /* \"#utility.yul\":3311:3312   */\n      dup1\n        /* \"#utility.yul\":3304:3316   */\n      revert\n        /* \"#utility.yul\":3266:3318   */\n    tag_348:\n        /* \"#utility.yul\":3337:3366   */\n      tag_349\n        /* \"#utility.yul\":3356:3365   */\n      dup4\n        /* \"#utility.yul\":3337:3366   */\n      tag_316\n      jump\t// in\n    tag_349:\n        /* \"#utility.yul\":3327:3366   */\n      swap5\n        /* \"#utility.yul\":3413:3415   */\n      0x20\n        /* \"#utility.yul\":3398:3416   */\n      swap4\n      swap1\n      swap4\n      add\n        /* \"#utility.yul\":3385:3417   */\n      calldataload\n      swap4\n      pop\n      pop\n      pop\n        /* \"#utility.yul\":3169:3423   */\n      jump\t// out\n        /* \"#utility.yul\":3428:3673   */\n    tag_22:\n        /* \"#utility.yul\":3486:3492   */\n      0x00\n        /* \"#utility.yul\":3539:3541   */\n      0x20\n        /* \"#utility.yul\":3527:3536   */\n      dup3\n        /* \"#utility.yul\":3518:3525   */\n      dup5\n        /* \"#utility.yul\":3514:3537   */\n      sub\n        /* \"#utility.yul\":3510:3542   */\n      slt\n        /* \"#utility.yul\":3507:3559   */\n      iszero\n      tag_351\n      jumpi\n        /* \"#utility.yul\":3555:3556   */\n      0x00\n        /* \"#utility.yul\":3552:3553   */\n      dup1\n        /* \"#utility.yul\":3545:3557   */\n      revert\n        /* \"#utility.yul\":3507:3559   */\n    tag_351:\n        /* \"#utility.yul\":3594:3603   */\n      dup2\n        /* \"#utility.yul\":3581:3604   */\n      calldataload\n        /* \"#utility.yul\":3613:3643   */\n      tag_176\n        /* \"#utility.yul\":3637:3642   */\n      dup2\n        /* \"#utility.yul\":3613:3643   */\n      tag_353\n      jump\t// in\n        /* \"#utility.yul\":3678:3927   */\n    tag_263:\n        /* \"#utility.yul\":3747:3753   */\n      0x00\n        /* \"#utility.yul\":3800:3802   */\n      0x20\n        /* \"#utility.yul\":3788:3797   */\n      dup3\n        /* \"#utility.yul\":3779:3786   */\n      dup5\n        /* \"#utility.yul\":3775:3798   */\n      sub\n        /* \"#utility.yul\":3771:3803   */\n      slt\n        /* \"#utility.yul\":3768:3820   */\n      iszero\n      tag_355\n      jumpi\n        /* \"#utility.yul\":3816:3817   */\n      0x00\n        /* \"#utility.yul\":3813:3814   */\n      dup1\n        /* \"#utility.yul\":3806:3818   */\n      revert\n        /* \"#utility.yul\":3768:3820   */\n    tag_355:\n        /* \"#utility.yul\":3848:3857   */\n      dup2\n        /* \"#utility.yul\":3842:3858   */\n      mload\n        /* \"#utility.yul\":3867:3897   */\n      tag_176\n        /* \"#utility.yul\":3891:3896   */\n      dup2\n        /* \"#utility.yul\":3867:3897   */\n      tag_353\n      jump\t// in\n        /* \"#utility.yul\":3932:4112   */\n    tag_32:\n        /* \"#utility.yul\":3991:3997   */\n      0x00\n        /* \"#utility.yul\":4044:4046   */\n      0x20\n        /* \"#utility.yul\":4032:4041   */\n      dup3\n        /* \"#utility.yul\":4023:4030   */\n      dup5\n        /* \"#utility.yul\":4019:4042   */\n      sub\n        /* \"#utility.yul\":4015:4047   */\n      slt\n        /* \"#utility.yul\":4012:4064   */\n      iszero\n      tag_358\n      jumpi\n        /* \"#utility.yul\":4060:4061   */\n      0x00\n        /* \"#utility.yul\":4057:4058   */\n      dup1\n        /* \"#utility.yul\":4050:4062   */\n      revert\n        /* \"#utility.yul\":4012:4064   */\n    tag_358:\n      pop\n        /* \"#utility.yul\":4083:4106   */\n      calldataload\n      swap2\n        /* \"#utility.yul\":3932:4112   */\n      swap1\n      pop\n      jump\t// out\n        /* \"#utility.yul\":4117:4374   */\n    tag_359:\n        /* \"#utility.yul\":4158:4161   */\n      0x00\n        /* \"#utility.yul\":4196:4201   */\n      dup2\n        /* \"#utility.yul\":4190:4202   */\n      mload\n        /* \"#utility.yul\":4223:4229   */\n      dup1\n        /* \"#utility.yul\":4218:4221   */\n      dup5\n        /* \"#utility.yul\":4211:4230   */\n      mstore\n        /* \"#utility.yul\":4239:4302   */\n      tag_361\n        /* \"#utility.yul\":4295:4301   */\n      dup2\n        /* \"#utility.yul\":4288:4292   */\n      0x20\n        /* \"#utility.yul\":4283:4286   */\n      dup7\n        /* \"#utility.yul\":4279:4293   */\n      add\n        /* \"#utility.yul\":4272:4276   */\n      0x20\n        /* \"#utility.yul\":4265:4270   */\n      dup7\n        /* \"#utility.yul\":4261:4277   */\n      add\n        /* \"#utility.yul\":4239:4302   */\n      tag_362\n      jump\t// in\n    tag_361:\n        /* \"#utility.yul\":4356:4358   */\n      0x1f\n        /* \"#utility.yul\":4335:4350   */\n      add\n      not(0x1f)\n        /* \"#utility.yul\":4331:4360   */\n      and\n        /* \"#utility.yul\":4322:4361   */\n      swap3\n      swap1\n      swap3\n      add\n        /* \"#utility.yul\":4363:4367   */\n      0x20\n        /* \"#utility.yul\":4318:4368   */\n      add\n      swap3\n        /* \"#utility.yul\":4117:4374   */\n      swap2\n      pop\n      pop\n      jump\t// out\n        /* \"#utility.yul\":4379:4849   */\n    tag_166:\n        /* \"#utility.yul\":4558:4561   */\n      0x00\n        /* \"#utility.yul\":4596:4602   */\n      dup4\n        /* \"#utility.yul\":4590:4603   */\n      mload\n        /* \"#utility.yul\":4612:4665   */\n      tag_364\n        /* \"#utility.yul\":4658:4664   */\n      dup2\n        /* \"#utility.yul\":4653:4656   */\n      dup5\n        /* \"#utility.yul\":4646:4650   */\n      0x20\n        /* \"#utility.yul\":4638:4644   */\n      dup9\n        /* \"#utility.yul\":4634:4651   */\n      add\n        /* \"#utility.yul\":4612:4665   */\n      tag_362\n      jump\t// in\n    tag_364:\n        /* \"#utility.yul\":4728:4741   */\n      dup4\n      mload\n        /* \"#utility.yul\":4687:4703   */\n      swap1\n      dup4\n      add\n      swap1\n        /* \"#utility.yul\":4750:4807   */\n      tag_365\n        /* \"#utility.yul\":4728:4741   */\n      dup2\n        /* \"#utility.yul\":4687:4703   */\n      dup4\n        /* \"#utility.yul\":4784:4788   */\n      0x20\n        /* \"#utility.yul\":4772:4789   */\n      dup9\n      add\n        /* \"#utility.yul\":4750:4807   */\n      tag_362\n      jump\t// in\n    tag_365:\n        /* \"#utility.yul\":4823:4843   */\n      add\n      swap5\n        /* \"#utility.yul\":4379:4849   */\n      swap4\n      pop\n      pop\n      pop\n      pop\n      jump\t// out\n        /* \"#utility.yul\":5062:5550   */\n    tag_259:\n      sub(shl(0xa0, 0x01), 0x01)\n        /* \"#utility.yul\":5331:5346   */\n      dup6\n      dup2\n      and\n        /* \"#utility.yul\":5313:5347   */\n      dup3\n      mstore\n        /* \"#utility.yul\":5383:5398   */\n      dup5\n      and\n        /* \"#utility.yul\":5378:5380   */\n      0x20\n        /* \"#utility.yul\":5363:5381   */\n      dup3\n      add\n        /* \"#utility.yul\":5356:5399   */\n      mstore\n        /* \"#utility.yul\":5430:5432   */\n      0x40\n        /* \"#utility.yul\":5415:5433   */\n      dup2\n      add\n        /* \"#utility.yul\":5408:5442   */\n      dup4\n      swap1\n      mstore\n        /* \"#utility.yul\":5478:5481   */\n      0x80\n        /* \"#utility.yul\":5473:5475   */\n      0x60\n        /* \"#utility.yul\":5458:5476   */\n      dup3\n      add\n        /* \"#utility.yul\":5451:5482   */\n      dup2\n      swap1\n      mstore\n        /* \"#utility.yul\":5256:5260   */\n      0x00\n      swap1\n        /* \"#utility.yul\":5499:5544   */\n      tag_368\n      swap1\n        /* \"#utility.yul\":5524:5543   */\n      dup4\n      add\n        /* \"#utility.yul\":5516:5522   */\n      dup5\n        /* \"#utility.yul\":5499:5544   */\n      tag_359\n      jump\t// in\n    tag_368:\n        /* \"#utility.yul\":5491:5544   */\n      swap7\n        /* \"#utility.yul\":5062:5550   */\n      swap6\n      pop\n      pop\n      pop\n      pop\n      pop\n      pop\n      jump\t// out\n        /* \"#utility.yul\":5747:5966   */\n    tag_29:\n        /* \"#utility.yul\":5896:5898   */\n      0x20\n        /* \"#utility.yul\":5885:5894   */\n      dup2\n        /* \"#utility.yul\":5878:5899   */\n      mstore\n        /* \"#utility.yul\":5859:5863   */\n      0x00\n        /* \"#utility.yul\":5916:5960   */\n      tag_176\n        /* \"#utility.yul\":5956:5958   */\n      0x20\n        /* \"#utility.yul\":5945:5954   */\n      dup4\n        /* \"#utility.yul\":5941:5959   */\n      add\n        /* \"#utility.yul\":5933:5939   */\n      dup5\n        /* \"#utility.yul\":5916:5960   */\n      tag_359\n      jump\t// in\n        /* \"#utility.yul\":5971:6385   */\n    tag_220:\n        /* \"#utility.yul\":6173:6175   */\n      0x20\n        /* \"#utility.yul\":6155:6176   */\n      dup1\n      dup3\n      mstore\n        /* \"#utility.yul\":6212:6214   */\n      0x32\n        /* \"#utility.yul\":6192:6210   */\n      swap1\n      dup3\n      add\n        /* \"#utility.yul\":6185:6215   */\n      mstore\n        /* \"#utility.yul\":6251:6285   */\n      0x4552433732313a207472616e7366657220746f206e6f6e204552433732315265\n        /* \"#utility.yul\":6246:6248   */\n      0x40\n        /* \"#utility.yul\":6231:6249   */\n      dup3\n      add\n        /* \"#utility.yul\":6224:6286   */\n      mstore\n      shl(0x71, 0x31b2b4bb32b91034b6b83632b6b2b73a32b9)\n        /* \"#utility.yul\":6317:6319   */\n      0x60\n        /* \"#utility.yul\":6302:6320   */\n      dup3\n      add\n        /* \"#utility.yul\":6295:6343   */\n      mstore\n        /* \"#utility.yul\":6375:6378   */\n      0x80\n        /* \"#utility.yul\":6360:6379   */\n      add\n      swap1\n        /* \"#utility.yul\":5971:6385   */\n      jump\t// out\n        /* \"#utility.yul\":12000:12413   */\n    tag_121:\n        /* \"#utility.yul\":12202:12204   */\n      0x20\n        /* \"#utility.yul\":12184:12205   */\n      dup1\n      dup3\n      mstore\n        /* \"#utility.yul\":12241:12243   */\n      0x31\n        /* \"#utility.yul\":12221:12239   */\n      swap1\n      dup3\n      add\n        /* \"#utility.yul\":12214:12244   */\n      mstore\n        /* \"#utility.yul\":12280:12314   */\n      0x4552433732313a207472616e736665722063616c6c6572206973206e6f74206f\n        /* \"#utility.yul\":12275:12277   */\n      0x40\n        /* \"#utility.yul\":12260:12278   */\n      dup3\n      add\n        /* \"#utility.yul\":12253:12315   */\n      mstore\n      shl(0x7a, 0x1ddb995c881b9bdc88185c1c1c9bdd9959)\n        /* \"#utility.yul\":12346:12348   */\n      0x60\n        /* \"#utility.yul\":12331:12349   */\n      dup3\n      add\n        /* \"#utility.yul\":12324:12371   */\n      mstore\n        /* \"#utility.yul\":12403:12406   */\n      0x80\n        /* \"#utility.yul\":12388:12407   */\n      add\n      swap1\n        /* \"#utility.yul\":12000:12413   */\n      jump\t// out\n        /* \"#utility.yul\":12600:12728   */\n    tag_208:\n        /* \"#utility.yul\":12640:12643   */\n      0x00\n        /* \"#utility.yul\":12671:12672   */\n      dup3\n        /* \"#utility.yul\":12667:12673   */\n      not\n        /* \"#utility.yul\":12664:12665   */\n      dup3\n        /* \"#utility.yul\":12661:12674   */\n      gt\n        /* \"#utility.yul\":12658:12697   */\n      iszero\n      tag_391\n      jumpi\n        /* \"#utility.yul\":12677:12695   */\n      tag_391\n      tag_392\n      jump\t// in\n    tag_391:\n      pop\n        /* \"#utility.yul\":12713:12722   */\n      add\n      swap1\n        /* \"#utility.yul\":12600:12728   */\n      jump\t// out\n        /* \"#utility.yul\":12733:12853   */\n    tag_282:\n        /* \"#utility.yul\":12773:12774   */\n      0x00\n        /* \"#utility.yul\":12799:12800   */\n      dup3\n        /* \"#utility.yul\":12789:12824   */\n      tag_395\n      jumpi\n        /* \"#utility.yul\":12804:12822   */\n      tag_395\n      tag_396\n      jump\t// in\n    tag_395:\n      pop\n        /* \"#utility.yul\":12838:12847   */\n      div\n      swap1\n        /* \"#utility.yul\":12733:12853   */\n      jump\t// out\n        /* \"#utility.yul\":12858:12983   */\n    tag_206:\n        /* \"#utility.yul\":12898:12902   */\n      0x00\n        /* \"#utility.yul\":12926:12927   */\n      dup3\n        /* \"#utility.yul\":12923:12924   */\n      dup3\n        /* \"#utility.yul\":12920:12928   */\n      lt\n        /* \"#utility.yul\":12917:12951   */\n      iszero\n      tag_399\n      jumpi\n        /* \"#utility.yul\":12931:12949   */\n      tag_399\n      tag_392\n      jump\t// in\n    tag_399:\n      pop\n        /* \"#utility.yul\":12968:12977   */\n      sub\n      swap1\n        /* \"#utility.yul\":12858:12983   */\n      jump\t// out\n        /* \"#utility.yul\":12988:13246   */\n    tag_362:\n        /* \"#utility.yul\":13060:13061   */\n      0x00\n        /* \"#utility.yul\":13070:13183   */\n    tag_401:\n        /* \"#utility.yul\":13084:13090   */\n      dup4\n        /* \"#utility.yul\":13081:13082   */\n      dup2\n        /* \"#utility.yul\":13078:13091   */\n      lt\n        /* \"#utility.yul\":13070:13183   */\n      iszero\n      tag_403\n      jumpi\n        /* \"#utility.yul\":13160:13171   */\n      dup2\n      dup2\n      add\n        /* \"#utility.yul\":13154:13172   */\n      mload\n        /* \"#utility.yul\":13141:13152   */\n      dup4\n      dup3\n      add\n        /* \"#utility.yul\":13134:13173   */\n      mstore\n        /* \"#utility.yul\":13106:13108   */\n      0x20\n        /* \"#utility.yul\":13099:13109   */\n      add\n        /* \"#utility.yul\":13070:13183   */\n      jump(tag_401)\n    tag_403:\n        /* \"#utility.yul\":13201:13207   */\n      dup4\n        /* \"#utility.yul\":13198:13199   */\n      dup2\n        /* \"#utility.yul\":13195:13208   */\n      gt\n        /* \"#utility.yul\":13192:13240   */\n      iszero\n      tag_149\n      jumpi\n      pop\n      pop\n        /* \"#utility.yul\":13236:13237   */\n      0x00\n        /* \"#utility.yul\":13218:13234   */\n      swap2\n      add\n        /* \"#utility.yul\":13211:13238   */\n      mstore\n        /* \"#utility.yul\":12988:13246   */\n      jump\t// out\n        /* \"#utility.yul\":13251:13631   */\n    tag_89:\n        /* \"#utility.yul\":13330:13331   */\n      0x01\n        /* \"#utility.yul\":13326:13338   */\n      dup2\n      dup2\n      shr\n      swap1\n        /* \"#utility.yul\":13373:13385   */\n      dup3\n      and\n      dup1\n        /* \"#utility.yul\":13394:13455   */\n      tag_406\n      jumpi\n        /* \"#utility.yul\":13448:13452   */\n      0x7f\n        /* \"#utility.yul\":13440:13446   */\n      dup3\n        /* \"#utility.yul\":13436:13453   */\n      and\n        /* \"#utility.yul\":13426:13453   */\n      swap2\n      pop\n        /* \"#utility.yul\":13394:13455   */\n    tag_406:\n        /* \"#utility.yul\":13501:13503   */\n      0x20\n        /* \"#utility.yul\":13493:13499   */\n      dup3\n        /* \"#utility.yul\":13490:13504   */\n      lt\n        /* \"#utility.yul\":13470:13488   */\n      dup2\n        /* \"#utility.yul\":13467:13505   */\n      eq\n        /* \"#utility.yul\":13464:13625   */\n      iszero\n      tag_407\n      jumpi\n        /* \"#utility.yul\":13547:13557   */\n      0x4e487b71\n        /* \"#utility.yul\":13542:13545   */\n      0xe0\n        /* \"#utility.yul\":13538:13558   */\n      shl\n        /* \"#utility.yul\":13535:13536   */\n      0x00\n        /* \"#utility.yul\":13528:13559   */\n      mstore\n        /* \"#utility.yul\":13582:13586   */\n      0x22\n        /* \"#utility.yul\":13579:13580   */\n      0x04\n        /* \"#utility.yul\":13572:13587   */\n      mstore\n        /* \"#utility.yul\":13610:13614   */\n      0x24\n        /* \"#utility.yul\":13607:13608   */\n      0x00\n        /* \"#utility.yul\":13600:13615   */\n      revert\n        /* \"#utility.yul\":13464:13625   */\n    tag_407:\n      pop\n        /* \"#utility.yul\":13251:13631   */\n      swap2\n      swap1\n      pop\n      jump\t// out\n        /* \"#utility.yul\":13636:13771   */\n    tag_280:\n        /* \"#utility.yul\":13675:13678   */\n      0x00\n      not(0x00)\n        /* \"#utility.yul\":13696:13713   */\n      dup3\n      eq\n        /* \"#utility.yul\":13693:13736   */\n      iszero\n      tag_410\n      jumpi\n        /* \"#utility.yul\":13716:13734   */\n      tag_410\n      tag_392\n      jump\t// in\n    tag_410:\n      pop\n        /* \"#utility.yul\":13763:13764   */\n      0x01\n        /* \"#utility.yul\":13752:13765   */\n      add\n      swap1\n        /* \"#utility.yul\":13636:13771   */\n      jump\t// out\n        /* \"#utility.yul\":13776:13888   */\n    tag_291:\n        /* \"#utility.yul\":13808:13809   */\n      0x00\n        /* \"#utility.yul\":13834:13835   */\n      dup3\n        /* \"#utility.yul\":13824:13859   */\n      tag_413\n      jumpi\n        /* \"#utility.yul\":13839:13857   */\n      tag_413\n      tag_396\n      jump\t// in\n    tag_413:\n      pop\n        /* \"#utility.yul\":13873:13882   */\n      mod\n      swap1\n        /* \"#utility.yul\":13776:13888   */\n      jump\t// out\n        /* \"#utility.yul\":13893:14020   */\n    tag_392:\n        /* \"#utility.yul\":13954:13964   */\n      0x4e487b71\n        /* \"#utility.yul\":13949:13952   */\n      0xe0\n        /* \"#utility.yul\":13945:13965   */\n      shl\n        /* \"#utility.yul\":13942:13943   */\n      0x00\n        /* \"#utility.yul\":13935:13966   */\n      mstore\n        /* \"#utility.yul\":13985:13989   */\n      0x11\n        /* \"#utility.yul\":13982:13983   */\n      0x04\n        /* \"#utility.yul\":13975:13990   */\n      mstore\n        /* \"#utility.yul\":14009:14013   */\n      0x24\n        /* \"#utility.yul\":14006:14007   */\n      0x00\n        /* \"#utility.yul\":13999:14014   */\n      revert\n        /* \"#utility.yul\":14025:14152   */\n    tag_396:\n        /* \"#utility.yul\":14086:14096   */\n      0x4e487b71\n        /* \"#utility.yul\":14081:14084   */\n      0xe0\n        /* \"#utility.yul\":14077:14097   */\n      shl\n        /* \"#utility.yul\":14074:14075   */\n      0x00\n        /* \"#utility.yul\":14067:14098   */\n      mstore\n        /* \"#utility.yul\":14117:14121   */\n      0x12\n        /* \"#utility.yul\":14114:14115   */\n      0x04\n        /* \"#utility.yul\":14107:14122   */\n      mstore\n        /* \"#utility.yul\":14141:14145   */\n      0x24\n        /* \"#utility.yul\":14138:14139   */\n      0x00\n        /* \"#utility.yul\":14131:14146   */\n      revert\n        /* \"#utility.yul\":14157:14284   */\n    tag_295:\n        /* \"#utility.yul\":14218:14228   */\n      0x4e487b71\n        /* \"#utility.yul\":14213:14216   */\n      0xe0\n        /* \"#utility.yul\":14209:14229   */\n      shl\n        /* \"#utility.yul\":14206:14207   */\n      0x00\n        /* \"#utility.yul\":14199:14230   */\n      mstore\n        /* \"#utility.yul\":14249:14253   */\n      0x32\n        /* \"#utility.yul\":14246:14247   */\n      0x04\n        /* \"#utility.yul\":14239:14254   */\n      mstore\n        /* \"#utility.yul\":14273:14277   */\n      0x24\n        /* \"#utility.yul\":14270:14271   */\n      0x00\n        /* \"#utility.yul\":14263:14278   */\n      revert\n        /* \"#utility.yul\":14289:14416   */\n    tag_285:\n        /* \"#utility.yul\":14350:14360   */\n      0x4e487b71\n        /* \"#utility.yul\":14345:14348   */\n      0xe0\n        /* \"#utility.yul\":14341:14361   */\n      shl\n        /* \"#utility.yul\":14338:14339   */\n      0x00\n        /* \"#utility.yul\":14331:14362   */\n      mstore\n        /* \"#utility.yul\":14381:14385   */\n      0x41\n        /* \"#utility.yul\":14378:14379   */\n      0x04\n        /* \"#utility.yul\":14371:14386   */\n      mstore\n        /* \"#utility.yul\":14405:14409   */\n      0x24\n        /* \"#utility.yul\":14402:14403   */\n      0x00\n        /* \"#utility.yul\":14395:14410   */\n      revert\n        /* \"#utility.yul\":14421:14552   */\n    tag_353:\n      not(sub(shl(0xe0, 0x01), 0x01))\n        /* \"#utility.yul\":14495:14527   */\n      dup2\n      and\n        /* \"#utility.yul\":14485:14528   */\n      dup2\n      eq\n        /* \"#utility.yul\":14475:14546   */\n      tag_419\n      jumpi\n        /* \"#utility.yul\":14542:14543   */\n      0x00\n        /* \"#utility.yul\":14539:14540   */\n      dup1\n        /* \"#utility.yul\":14532:14544   */\n      revert\n        /* \"#utility.yul\":14475:14546   */\n    tag_419:\n        /* \"#utility.yul\":14421:14552   */\n      pop\n      jump\t// out\n\n    auxdata: 0xa26469706673582212205ca9ee18b3d458d32046205e61f36867ee40c5d52fc5bf626ef4516e029e53f264736f6c63430008070033\n}\n",
				"bytecode": {
					"linkReferences": {},
					"object": "60806040523480156200001157600080fd5b50604080518082018252600781526615d85d9e53919560ca1b6020808301918252835180850190945260048452635741565960e01b9084015281519192916200005d916000916200007c565b508051620000739060019060208401906200007c565b5050506200015f565b8280546200008a9062000122565b90600052602060002090601f016020900481019282620000ae5760008555620000f9565b82601f10620000c957805160ff1916838001178555620000f9565b82800160010185558215620000f9579182015b82811115620000f9578251825591602001919060010190620000dc565b50620001079291506200010b565b5090565b5b808211156200010757600081556001016200010c565b600181811c908216806200013757607f821691505b602082108114156200015957634e487b7160e01b600052602260045260246000fd5b50919050565b6116f9806200016f6000396000f3fe608060405234801561001057600080fd5b50600436106100ea5760003560e01c806370a082311161008c578063b88d4fde11610066578063b88d4fde146101e1578063c87b56dd146101f4578063cf37834314610207578063e985e9c51461021a57600080fd5b806370a08231146101a557806395d89b41146101c6578063a22cb465146101ce57600080fd5b8063095ea7b3116100c8578063095ea7b31461015757806323b872dd1461016c57806342842e0e1461017f5780636352211e1461019257600080fd5b806301ffc9a7146100ef57806306fdde0314610117578063081812fc1461012c575b600080fd5b6101026100fd3660046113d8565b610256565b60405190151581526020015b60405180910390f35b61011f6102a8565b60405161010e91906114c3565b61013f61013a366004611412565b61033a565b6040516001600160a01b03909116815260200161010e565b61016a6101653660046113ae565b6103c7565b005b61016a61017a366004611258565b6104dd565b61016a61018d366004611258565b61050e565b61013f6101a0366004611412565b610529565b6101b86101b336600461120a565b6105a0565b60405190815260200161010e565b61011f610627565b61016a6101dc366004611310565b610636565b61016a6101ef366004611294565b610645565b61011f610202366004611412565b61067d565b6101b861021536600461134c565b6107f4565b610102610228366004611225565b6001600160a01b03918216600090815260056020908152604080832093909416825291909152205460ff1690565b60006001600160e01b031982166380ac58cd60e01b148061028757506001600160e01b03198216635b5e139f60e01b145b806102a257506301ffc9a760e01b6001600160e01b03198316145b92915050565b6060600080546102b7906115e8565b80601f01602080910402602001604051908101604052809291908181526020018280546102e3906115e8565b80156103305780601f1061030557610100808354040283529160200191610330565b820191906000526020600020905b81548152906001019060200180831161031357829003601f168201915b5050505050905090565b60006103458261082c565b6103ab5760405162461bcd60e51b815260206004820152602c60248201527f4552433732313a20617070726f76656420717565727920666f72206e6f6e657860448201526b34b9ba32b73a103a37b5b2b760a11b60648201526084015b60405180910390fd5b506000908152600460205260409020546001600160a01b031690565b60006103d282610529565b9050806001600160a01b0316836001600160a01b031614156104405760405162461bcd60e51b815260206004820152602160248201527f4552433732313a20617070726f76616c20746f2063757272656e74206f776e656044820152603960f91b60648201526084016103a2565b336001600160a01b038216148061045c575061045c8133610228565b6104ce5760405162461bcd60e51b815260206004820152603860248201527f4552433732313a20617070726f76652063616c6c6572206973206e6f74206f7760448201527f6e6572206e6f7220617070726f76656420666f7220616c6c000000000000000060648201526084016103a2565b6104d88383610849565b505050565b6104e733826108b7565b6105035760405162461bcd60e51b81526004016103a290611528565b6104d883838361099d565b6104d883838360405180602001604052806000815250610645565b6000818152600260205260408120546001600160a01b0316806102a25760405162461bcd60e51b815260206004820152602960248201527f4552433732313a206f776e657220717565727920666f72206e6f6e657869737460448201526832b73a103a37b5b2b760b91b60648201526084016103a2565b60006001600160a01b03821661060b5760405162461bcd60e51b815260206004820152602a60248201527f4552433732313a2062616c616e636520717565727920666f7220746865207a65604482015269726f206164647265737360b01b60648201526084016103a2565b506001600160a01b031660009081526003602052604090205490565b6060600180546102b7906115e8565b610641338383610b3d565b5050565b61064f33836108b7565b61066b5760405162461bcd60e51b81526004016103a290611528565b61067784848484610c0c565b50505050565b60606106888261082c565b6106ee5760405162461bcd60e51b815260206004820152603160248201527f45524337323155524953746f726167653a2055524920717565727920666f72206044820152703737b732bc34b9ba32b73a103a37b5b2b760791b60648201526084016103a2565b60008281526006602052604081208054610707906115e8565b80601f0160208091040260200160405190810160405280929190818152602001828054610733906115e8565b80156107805780601f1061075557610100808354040283529160200191610780565b820191906000526020600020905b81548152906001019060200180831161076357829003601f168201915b50505050509050600061079e60408051602081019091526000815290565b90508051600014156107b1575092915050565b8151156107e35780826040516020016107cb929190611457565b60405160208183030381529060405292505050919050565b6107ec84610c3f565b949350505050565b6000610804600780546001019055565b600061080f60075490565b905061081b8482610d16565b6108258184610e49565b9392505050565b6000908152600260205260409020546001600160a01b0316151590565b600081815260046020526040902080546001600160a01b0319166001600160a01b038416908117909155819061087e82610529565b6001600160a01b03167f8c5be1e5ebec7d5bd14f71427d1e84f3dd0314c0f7b2291e5b200ac8c7c3b92560405160405180910390a45050565b60006108c28261082c565b6109235760405162461bcd60e51b815260206004820152602c60248201527f4552433732313a206f70657261746f7220717565727920666f72206e6f6e657860448201526b34b9ba32b73a103a37b5b2b760a11b60648201526084016103a2565b600061092e83610529565b9050806001600160a01b0316846001600160a01b031614806109695750836001600160a01b031661095e8461033a565b6001600160a01b0316145b806107ec57506001600160a01b0380821660009081526005602090815260408083209388168352929052205460ff166107ec565b826001600160a01b03166109b082610529565b6001600160a01b031614610a185760405162461bcd60e51b815260206004820152602960248201527f4552433732313a207472616e73666572206f6620746f6b656e2074686174206960448201526839903737ba1037bbb760b91b60648201526084016103a2565b6001600160a01b038216610a7a5760405162461bcd60e51b8152602060048201526024808201527f4552433732313a207472616e7366657220746f20746865207a65726f206164646044820152637265737360e01b60648201526084016103a2565b610a85600082610849565b6001600160a01b0383166000908152600360205260408120805460019290610aae9084906115a5565b90915550506001600160a01b0382166000908152600360205260408120805460019290610adc908490611579565b909155505060008181526002602052604080822080546001600160a01b0319166001600160a01b0386811691821790925591518493918716917fddf252ad1be2c89b69c2b068fc378daa952ba7f163c4a11628f55a4df523b3ef91a4505050565b816001600160a01b0316836001600160a01b03161415610b9f5760405162461bcd60e51b815260206004820152601960248201527f4552433732313a20617070726f766520746f2063616c6c65720000000000000060448201526064016103a2565b6001600160a01b03838116600081815260056020908152604080832094871680845294825291829020805460ff191686151590811790915591519182527f17307eab39ab6107e8899845ad3d59bd9653f200f220920489ca2b5937696c31910160405180910390a3505050565b610c1784848461099d565b610c2384848484610ed4565b6106775760405162461bcd60e51b81526004016103a2906114d6565b6060610c4a8261082c565b610cae5760405162461bcd60e51b815260206004820152602f60248201527f4552433732314d657461646174613a2055524920717565727920666f72206e6f60448201526e3732bc34b9ba32b73a103a37b5b2b760891b60648201526084016103a2565b6000610cc560408051602081019091526000815290565b90506000815111610ce55760405180602001604052806000815250610825565b80610cef84610fe1565b604051602001610d00929190611457565b6040516020818303038152906040529392505050565b6001600160a01b038216610d6c5760405162461bcd60e51b815260206004820181905260248201527f4552433732313a206d696e7420746f20746865207a65726f206164647265737360448201526064016103a2565b610d758161082c565b15610dc25760405162461bcd60e51b815260206004820152601c60248201527f4552433732313a20746f6b656e20616c7265616479206d696e7465640000000060448201526064016103a2565b6001600160a01b0382166000908152600360205260408120805460019290610deb908490611579565b909155505060008181526002602052604080822080546001600160a01b0319166001600160a01b03861690811790915590518392907fddf252ad1be2c89b69c2b068fc378daa952ba7f163c4a11628f55a4df523b3ef908290a45050565b610e528261082c565b610eb55760405162461bcd60e51b815260206004820152602e60248201527f45524337323155524953746f726167653a2055524920736574206f66206e6f6e60448201526d32bc34b9ba32b73a103a37b5b2b760911b60648201526084016103a2565b600082815260066020908152604090912082516104d8928401906110df565b60006001600160a01b0384163b15610fd657604051630a85bd0160e11b81526001600160a01b0385169063150b7a0290610f18903390899088908890600401611486565b602060405180830381600087803b158015610f3257600080fd5b505af1925050508015610f62575060408051601f3d908101601f19168201909252610f5f918101906113f5565b60015b610fbc573d808015610f90576040519150601f19603f3d011682016040523d82523d6000602084013e610f95565b606091505b508051610fb45760405162461bcd60e51b81526004016103a2906114d6565b805181602001fd5b6001600160e01b031916630a85bd0160e11b1490506107ec565b506001949350505050565b6060816110055750506040805180820190915260018152600360fc1b602082015290565b8160005b811561102f578061101981611623565b91506110289050600a83611591565b9150611009565b60008167ffffffffffffffff81111561104a5761104a611694565b6040519080825280601f01601f191660200182016040528015611074576020820181803683370190505b5090505b84156107ec576110896001836115a5565b9150611096600a8661163e565b6110a1906030611579565b60f81b8183815181106110b6576110b661167e565b60200101906001600160f81b031916908160001a9053506110d8600a86611591565b9450611078565b8280546110eb906115e8565b90600052602060002090601f01602090048101928261110d5760008555611153565b82601f1061112657805160ff1916838001178555611153565b82800160010185558215611153579182015b82811115611153578251825591602001919060010190611138565b5061115f929150611163565b5090565b5b8082111561115f5760008155600101611164565b600067ffffffffffffffff8084111561119357611193611694565b604051601f8501601f19908116603f011681019082821181831017156111bb576111bb611694565b816040528093508581528686860111156111d457600080fd5b858560208301376000602087830101525050509392505050565b80356001600160a01b038116811461120557600080fd5b919050565b60006020828403121561121c57600080fd5b610825826111ee565b6000806040838503121561123857600080fd5b611241836111ee565b915061124f602084016111ee565b90509250929050565b60008060006060848603121561126d57600080fd5b611276846111ee565b9250611284602085016111ee565b9150604084013590509250925092565b600080600080608085870312156112aa57600080fd5b6112b3856111ee565b93506112c1602086016111ee565b925060408501359150606085013567ffffffffffffffff8111156112e457600080fd5b8501601f810187136112f557600080fd5b61130487823560208401611178565b91505092959194509250565b6000806040838503121561132357600080fd5b61132c836111ee565b91506020830135801515811461134157600080fd5b809150509250929050565b6000806040838503121561135f57600080fd5b611368836111ee565b9150602083013567ffffffffffffffff81111561138457600080fd5b8301601f8101851361139557600080fd5b6113a485823560208401611178565b9150509250929050565b600080604083850312156113c157600080fd5b6113ca836111ee565b946020939093013593505050565b6000602082840312156113ea57600080fd5b8135610825816116aa565b60006020828403121561140757600080fd5b8151610825816116aa565b60006020828403121561142457600080fd5b5035919050565b600081518084526114438160208601602086016115bc565b601f01601f19169290920160200192915050565b600083516114698184602088016115bc565b83519083019061147d8183602088016115bc565b01949350505050565b6001600160a01b03858116825284166020820152604081018390526080606082018190526000906114b99083018461142b565b9695505050505050565b602081526000610825602083018461142b565b60208082526032908201527f4552433732313a207472616e7366657220746f206e6f6e20455243373231526560408201527131b2b4bb32b91034b6b83632b6b2b73a32b960711b606082015260800190565b60208082526031908201527f4552433732313a207472616e736665722063616c6c6572206973206e6f74206f6040820152701ddb995c881b9bdc88185c1c1c9bdd9959607a1b606082015260800190565b6000821982111561158c5761158c611652565b500190565b6000826115a0576115a0611668565b500490565b6000828210156115b7576115b7611652565b500390565b60005b838110156115d75781810151838201526020016115bf565b838111156106775750506000910152565b600181811c908216806115fc57607f821691505b6020821081141561161d57634e487b7160e01b600052602260045260246000fd5b50919050565b600060001982141561163757611637611652565b5060010190565b60008261164d5761164d611668565b500690565b634e487b7160e01b600052601160045260246000fd5b634e487b7160e01b600052601260045260246000fd5b634e487b7160e01b600052603260045260246000fd5b634e487b7160e01b600052604160045260246000fd5b6001600160e01b0319811681146116c057600080fd5b5056fea26469706673582212205ca9ee18b3d458d32046205e61f36867ee40c5d52fc5bf626ef4516e029e53f264736f6c63430008070033",
					"opcodes": "PUSH1 0x80 PUSH1 0x40 MSTORE CALLVALUE DUP1 ISZERO PUSH3 0x11 JUMPI PUSH1 0x0 DUP1 REVERT JUMPDEST POP PUSH1 0x40 DUP1 MLOAD DUP1 DUP3 ADD DUP3 MSTORE PUSH1 0x7 DUP2 MSTORE PUSH7 0x15D85D9E539195 PUSH1 0xCA SHL PUSH1 0x20 DUP1 DUP4 ADD SWAP2 DUP3 MSTORE DUP4 MLOAD DUP1 DUP6 ADD SWAP1 SWAP5 MSTORE PUSH1 0x4 DUP5 MSTORE PUSH4 0x57415659 PUSH1 0xE0 SHL SWAP1 DUP5 ADD MSTORE DUP2 MLOAD SWAP2 SWAP3 SWAP2 PUSH3 0x5D SWAP2 PUSH1 0x0 SWAP2 PUSH3 0x7C JUMP JUMPDEST POP DUP1 MLOAD PUSH3 0x73 SWAP1 PUSH1 0x1 SWAP1 PUSH1 0x20 DUP5 ADD SWAP1 PUSH3 0x7C JUMP JUMPDEST POP POP POP PUSH3 0x15F JUMP JUMPDEST DUP3 DUP1 SLOAD PUSH3 0x8A SWAP1 PUSH3 0x122 JUMP JUMPDEST SWAP1 PUSH1 0x0 MSTORE PUSH1 0x20 PUSH1 0x0 KECCAK256 SWAP1 PUSH1 0x1F ADD PUSH1 0x20 SWAP1 DIV DUP2 ADD SWAP3 DUP3 PUSH3 0xAE JUMPI PUSH1 0x0 DUP6 SSTORE PUSH3 0xF9 JUMP JUMPDEST DUP3 PUSH1 0x1F LT PUSH3 0xC9 JUMPI DUP1 MLOAD PUSH1 0xFF NOT AND DUP4 DUP1 ADD OR DUP6 SSTORE PUSH3 0xF9 JUMP JUMPDEST DUP3 DUP1 ADD PUSH1 0x1 ADD DUP6 SSTORE DUP3 ISZERO PUSH3 0xF9 JUMPI SWAP2 DUP3 ADD JUMPDEST DUP3 DUP2 GT ISZERO PUSH3 0xF9 JUMPI DUP3 MLOAD DUP3 SSTORE SWAP2 PUSH1 0x20 ADD SWAP2 SWAP1 PUSH1 0x1 ADD SWAP1 PUSH3 0xDC JUMP JUMPDEST POP PUSH3 0x107 SWAP3 SWAP2 POP PUSH3 0x10B JUMP JUMPDEST POP SWAP1 JUMP JUMPDEST JUMPDEST DUP1 DUP3 GT ISZERO PUSH3 0x107 JUMPI PUSH1 0x0 DUP2 SSTORE PUSH1 0x1 ADD PUSH3 0x10C JUMP JUMPDEST PUSH1 0x1 DUP2 DUP2 SHR SWAP1 DUP3 AND DUP1 PUSH3 0x137 JUMPI PUSH1 0x7F DUP3 AND SWAP2 POP JUMPDEST PUSH1 0x20 DUP3 LT DUP2 EQ ISZERO PUSH3 0x159 JUMPI PUSH4 0x4E487B71 PUSH1 0xE0 SHL PUSH1 0x0 MSTORE PUSH1 0x22 PUSH1 0x4 MSTORE PUSH1 0x24 PUSH1 0x0 REVERT JUMPDEST POP SWAP2 SWAP1 POP JUMP JUMPDEST PUSH2 0x16F9 DUP1 PUSH3 0x16F PUSH1 0x0 CODECOPY PUSH1 0x0 RETURN INVALID PUSH1 0x80 PUSH1 0x40 MSTORE CALLVALUE DUP1 ISZERO PUSH2 0x10 JUMPI PUSH1 0x0 DUP1 REVERT JUMPDEST POP PUSH1 0x4 CALLDATASIZE LT PUSH2 0xEA JUMPI PUSH1 0x0 CALLDATALOAD PUSH1 0xE0 SHR DUP1 PUSH4 0x70A08231 GT PUSH2 0x8C JUMPI DUP1 PUSH4 0xB88D4FDE GT PUSH2 0x66 JUMPI DUP1 PUSH4 0xB88D4FDE EQ PUSH2 0x1E1 JUMPI DUP1 PUSH4 0xC87B56DD EQ PUSH2 0x1F4 JUMPI DUP1 PUSH4 0xCF378343 EQ PUSH2 0x207 JUMPI DUP1 PUSH4 0xE985E9C5 EQ PUSH2 0x21A JUMPI PUSH1 0x0 DUP1 REVERT JUMPDEST DUP1 PUSH4 0x70A08231 EQ PUSH2 0x1A5 JUMPI DUP1 PUSH4 0x95D89B41 EQ PUSH2 0x1C6 JUMPI DUP1 PUSH4 0xA22CB465 EQ PUSH2 0x1CE JUMPI PUSH1 0x0 DUP1 REVERT JUMPDEST DUP1 PUSH4 0x95EA7B3 GT PUSH2 0xC8 JUMPI DUP1 PUSH4 0x95EA7B3 EQ PUSH2 0x157 JUMPI DUP1 PUSH4 0x23B872DD EQ PUSH2 0x16C JUMPI DUP1 PUSH4 0x42842E0E EQ PUSH2 0x17F JUMPI DUP1 PUSH4 0x6352211E EQ PUSH2 0x192 JUMPI PUSH1 0x0 DUP1 REVERT JUMPDEST DUP1 PUSH4 0x1FFC9A7 EQ PUSH2 0xEF JUMPI DUP1 PUSH4 0x6FDDE03 EQ PUSH2 0x117 JUMPI DUP1 PUSH4 0x81812FC EQ PUSH2 0x12C JUMPI JUMPDEST PUSH1 0x0 DUP1 REVERT JUMPDEST PUSH2 0x102 PUSH2 0xFD CALLDATASIZE PUSH1 0x4 PUSH2 0x13D8 JUMP JUMPDEST PUSH2 0x256 JUMP JUMPDEST PUSH1 0x40 MLOAD SWAP1 ISZERO ISZERO DUP2 MSTORE PUSH1 0x20 ADD JUMPDEST PUSH1 0x40 MLOAD DUP1 SWAP2 SUB SWAP1 RETURN JUMPDEST PUSH2 0x11F PUSH2 0x2A8 JUMP JUMPDEST PUSH1 0x40 MLOAD PUSH2 0x10E SWAP2 SWAP1 PUSH2 0x14C3 JUMP JUMPDEST PUSH2 0x13F PUSH2 0x13A CALLDATASIZE PUSH1 0x4 PUSH2 0x1412 JUMP JUMPDEST PUSH2 0x33A JUMP JUMPDEST PUSH1 0x40 MLOAD PUSH1 0x1 PUSH1 0x1 PUSH1 0xA0 SHL SUB SWAP1 SWAP2 AND DUP2 MSTORE PUSH1 0x20 ADD PUSH2 0x10E JUMP JUMPDEST PUSH2 0x16A PUSH2 0x165 CALLDATASIZE PUSH1 0x4 PUSH2 0x13AE JUMP JUMPDEST PUSH2 0x3C7 JUMP JUMPDEST STOP JUMPDEST PUSH2 0x16A PUSH2 0x17A CALLDATASIZE PUSH1 0x4 PUSH2 0x1258 JUMP JUMPDEST PUSH2 0x4DD JUMP JUMPDEST PUSH2 0x16A PUSH2 0x18D CALLDATASIZE PUSH1 0x4 PUSH2 0x1258 JUMP JUMPDEST PUSH2 0x50E JUMP JUMPDEST PUSH2 0x13F PUSH2 0x1A0 CALLDATASIZE PUSH1 0x4 PUSH2 0x1412 JUMP JUMPDEST PUSH2 0x529 JUMP JUMPDEST PUSH2 0x1B8 PUSH2 0x1B3 CALLDATASIZE PUSH1 0x4 PUSH2 0x120A JUMP JUMPDEST PUSH2 0x5A0 JUMP JUMPDEST PUSH1 0x40 MLOAD SWAP1 DUP2 MSTORE PUSH1 0x20 ADD PUSH2 0x10E JUMP JUMPDEST PUSH2 0x11F PUSH2 0x627 JUMP JUMPDEST PUSH2 0x16A PUSH2 0x1DC CALLDATASIZE PUSH1 0x4 PUSH2 0x1310 JUMP JUMPDEST PUSH2 0x636 JUMP JUMPDEST PUSH2 0x16A PUSH2 0x1EF CALLDATASIZE PUSH1 0x4 PUSH2 0x1294 JUMP JUMPDEST PUSH2 0x645 JUMP JUMPDEST PUSH2 0x11F PUSH2 0x202 CALLDATASIZE PUSH1 0x4 PUSH2 0x1412 JUMP JUMPDEST PUSH2 0x67D JUMP JUMPDEST PUSH2 0x1B8 PUSH2 0x215 CALLDATASIZE PUSH1 0x4 PUSH2 0x134C JUMP JUMPDEST PUSH2 0x7F4 JUMP JUMPDEST PUSH2 0x102 PUSH2 0x228 CALLDATASIZE PUSH1 0x4 PUSH2 0x1225 JUMP JUMPDEST PUSH1 0x1 PUSH1 0x1 PUSH1 0xA0 SHL SUB SWAP2 DUP3 AND PUSH1 0x0 SWAP1 DUP2 MSTORE PUSH1 0x5 PUSH1 0x20 SWAP1 DUP2 MSTORE PUSH1 0x40 DUP1 DUP4 KECCAK256 SWAP4 SWAP1 SWAP5 AND DUP3 MSTORE SWAP2 SWAP1 SWAP2 MSTORE KECCAK256 SLOAD PUSH1 0xFF AND SWAP1 JUMP JUMPDEST PUSH1 0x0 PUSH1 0x1 PUSH1 0x1 PUSH1 0xE0 SHL SUB NOT DUP3 AND PUSH4 0x80AC58CD PUSH1 0xE0 SHL EQ DUP1 PUSH2 0x287 JUMPI POP PUSH1 0x1 PUSH1 0x1 PUSH1 0xE0 SHL SUB NOT DUP3 AND PUSH4 0x5B5E139F PUSH1 0xE0 SHL EQ JUMPDEST DUP1 PUSH2 0x2A2 JUMPI POP PUSH4 0x1FFC9A7 PUSH1 0xE0 SHL PUSH1 0x1 PUSH1 0x1 PUSH1 0xE0 SHL SUB NOT DUP4 AND EQ JUMPDEST SWAP3 SWAP2 POP POP JUMP JUMPDEST PUSH1 0x60 PUSH1 0x0 DUP1 SLOAD PUSH2 0x2B7 SWAP1 PUSH2 0x15E8 JUMP JUMPDEST DUP1 PUSH1 0x1F ADD PUSH1 0x20 DUP1 SWAP2 DIV MUL PUSH1 0x20 ADD PUSH1 0x40 MLOAD SWAP1 DUP2 ADD PUSH1 0x40 MSTORE DUP1 SWAP3 SWAP2 SWAP1 DUP2 DUP2 MSTORE PUSH1 0x20 ADD DUP3 DUP1 SLOAD PUSH2 0x2E3 SWAP1 PUSH2 0x15E8 JUMP JUMPDEST DUP1 ISZERO PUSH2 0x330 JUMPI DUP1 PUSH1 0x1F LT PUSH2 0x305 JUMPI PUSH2 0x100 DUP1 DUP4 SLOAD DIV MUL DUP4 MSTORE SWAP2 PUSH1 0x20 ADD SWAP2 PUSH2 0x330 JUMP JUMPDEST DUP3 ADD SWAP2 SWAP1 PUSH1 0x0 MSTORE PUSH1 0x20 PUSH1 0x0 KECCAK256 SWAP1 JUMPDEST DUP2 SLOAD DUP2 MSTORE SWAP1 PUSH1 0x1 ADD SWAP1 PUSH1 0x20 ADD DUP1 DUP4 GT PUSH2 0x313 JUMPI DUP3 SWAP1 SUB PUSH1 0x1F AND DUP3 ADD SWAP2 JUMPDEST POP POP POP POP POP SWAP1 POP SWAP1 JUMP JUMPDEST PUSH1 0x0 PUSH2 0x345 DUP3 PUSH2 0x82C JUMP JUMPDEST PUSH2 0x3AB JUMPI PUSH1 0x40 MLOAD PUSH3 0x461BCD PUSH1 0xE5 SHL DUP2 MSTORE PUSH1 0x20 PUSH1 0x4 DUP3 ADD MSTORE PUSH1 0x2C PUSH1 0x24 DUP3 ADD MSTORE PUSH32 0x4552433732313A20617070726F76656420717565727920666F72206E6F6E6578 PUSH1 0x44 DUP3 ADD MSTORE PUSH12 0x34B9BA32B73A103A37B5B2B7 PUSH1 0xA1 SHL PUSH1 0x64 DUP3 ADD MSTORE PUSH1 0x84 ADD JUMPDEST PUSH1 0x40 MLOAD DUP1 SWAP2 SUB SWAP1 REVERT JUMPDEST POP PUSH1 0x0 SWAP1 DUP2 MSTORE PUSH1 0x4 PUSH1 0x20 MSTORE PUSH1 0x40 SWAP1 KECCAK256 SLOAD PUSH1 0x1 PUSH1 0x1 PUSH1 0xA0 SHL SUB AND SWAP1 JUMP JUMPDEST PUSH1 0x0 PUSH2 0x3D2 DUP3 PUSH2 0x529 JUMP JUMPDEST SWAP1 POP DUP1 PUSH1 0x1 PUSH1 0x1 PUSH1 0xA0 SHL SUB AND DUP4 PUSH1 0x1 PUSH1 0x1 PUSH1 0xA0 SHL SUB AND EQ ISZERO PUSH2 0x440 JUMPI PUSH1 0x40 MLOAD PUSH3 0x461BCD PUSH1 0xE5 SHL DUP2 MSTORE PUSH1 0x20 PUSH1 0x4 DUP3 ADD MSTORE PUSH1 0x21 PUSH1 0x24 DUP3 ADD MSTORE PUSH32 0x4552433732313A20617070726F76616C20746F2063757272656E74206F776E65 PUSH1 0x44 DUP3 ADD MSTORE PUSH1 0x39 PUSH1 0xF9 SHL PUSH1 0x64 DUP3 ADD MSTORE PUSH1 0x84 ADD PUSH2 0x3A2 JUMP JUMPDEST CALLER PUSH1 0x1 PUSH1 0x1 PUSH1 0xA0 SHL SUB DUP3 AND EQ DUP1 PUSH2 0x45C JUMPI POP PUSH2 0x45C DUP2 CALLER PUSH2 0x228 JUMP JUMPDEST PUSH2 0x4CE JUMPI PUSH1 0x40 MLOAD PUSH3 0x461BCD PUSH1 0xE5 SHL DUP2 MSTORE PUSH1 0x20 PUSH1 0x4 DUP3 ADD MSTORE PUSH1 0x38 PUSH1 0x24 DUP3 ADD MSTORE PUSH32 0x4552433732313A20617070726F76652063616C6C6572206973206E6F74206F77 PUSH1 0x44 DUP3 ADD MSTORE PUSH32 0x6E6572206E6F7220617070726F76656420666F7220616C6C0000000000000000 PUSH1 0x64 DUP3 ADD MSTORE PUSH1 0x84 ADD PUSH2 0x3A2 JUMP JUMPDEST PUSH2 0x4D8 DUP4 DUP4 PUSH2 0x849 JUMP JUMPDEST POP POP POP JUMP JUMPDEST PUSH2 0x4E7 CALLER DUP3 PUSH2 0x8B7 JUMP JUMPDEST PUSH2 0x503 JUMPI PUSH1 0x40 MLOAD PUSH3 0x461BCD PUSH1 0xE5 SHL DUP2 MSTORE PUSH1 0x4 ADD PUSH2 0x3A2 SWAP1 PUSH2 0x1528 JUMP JUMPDEST PUSH2 0x4D8 DUP4 DUP4 DUP4 PUSH2 0x99D JUMP JUMPDEST PUSH2 0x4D8 DUP4 DUP4 DUP4 PUSH1 0x40 MLOAD DUP1 PUSH1 0x20 ADD PUSH1 0x40 MSTORE DUP1 PUSH1 0x0 DUP2 MSTORE POP PUSH2 0x645 JUMP JUMPDEST PUSH1 0x0 DUP2 DUP2 MSTORE PUSH1 0x2 PUSH1 0x20 MSTORE PUSH1 0x40 DUP2 KECCAK256 SLOAD PUSH1 0x1 PUSH1 0x1 PUSH1 0xA0 SHL SUB AND DUP1 PUSH2 0x2A2 JUMPI PUSH1 0x40 MLOAD PUSH3 0x461BCD PUSH1 0xE5 SHL DUP2 MSTORE PUSH1 0x20 PUSH1 0x4 DUP3 ADD MSTORE PUSH1 0x29 PUSH1 0x24 DUP3 ADD MSTORE PUSH32 0x4552433732313A206F776E657220717565727920666F72206E6F6E6578697374 PUSH1 0x44 DUP3 ADD MSTORE PUSH9 0x32B73A103A37B5B2B7 PUSH1 0xB9 SHL PUSH1 0x64 DUP3 ADD MSTORE PUSH1 0x84 ADD PUSH2 0x3A2 JUMP JUMPDEST PUSH1 0x0 PUSH1 0x1 PUSH1 0x1 PUSH1 0xA0 SHL SUB DUP3 AND PUSH2 0x60B JUMPI PUSH1 0x40 MLOAD PUSH3 0x461BCD PUSH1 0xE5 SHL DUP2 MSTORE PUSH1 0x20 PUSH1 0x4 DUP3 ADD MSTORE PUSH1 0x2A PUSH1 0x24 DUP3 ADD MSTORE PUSH32 0x4552433732313A2062616C616E636520717565727920666F7220746865207A65 PUSH1 0x44 DUP3 ADD MSTORE PUSH10 0x726F2061646472657373 PUSH1 0xB0 SHL PUSH1 0x64 DUP3 ADD MSTORE PUSH1 0x84 ADD PUSH2 0x3A2 JUMP JUMPDEST POP PUSH1 0x1 PUSH1 0x1 PUSH1 0xA0 SHL SUB AND PUSH1 0x0 SWAP1 DUP2 MSTORE PUSH1 0x3 PUSH1 0x20 MSTORE PUSH1 0x40 SWAP1 KECCAK256 SLOAD SWAP1 JUMP JUMPDEST PUSH1 0x60 PUSH1 0x1 DUP1 SLOAD PUSH2 0x2B7 SWAP1 PUSH2 0x15E8 JUMP JUMPDEST PUSH2 0x641 CALLER DUP4 DUP4 PUSH2 0xB3D JUMP JUMPDEST POP POP JUMP JUMPDEST PUSH2 0x64F CALLER DUP4 PUSH2 0x8B7 JUMP JUMPDEST PUSH2 0x66B JUMPI PUSH1 0x40 MLOAD PUSH3 0x461BCD PUSH1 0xE5 SHL DUP2 MSTORE PUSH1 0x4 ADD PUSH2 0x3A2 SWAP1 PUSH2 0x1528 JUMP JUMPDEST PUSH2 0x677 DUP5 DUP5 DUP5 DUP5 PUSH2 0xC0C JUMP JUMPDEST POP POP POP POP JUMP JUMPDEST PUSH1 0x60 PUSH2 0x688 DUP3 PUSH2 0x82C JUMP JUMPDEST PUSH2 0x6EE JUMPI PUSH1 0x40 MLOAD PUSH3 0x461BCD PUSH1 0xE5 SHL DUP2 MSTORE PUSH1 0x20 PUSH1 0x4 DUP3 ADD MSTORE PUSH1 0x31 PUSH1 0x24 DUP3 ADD MSTORE PUSH32 0x45524337323155524953746F726167653A2055524920717565727920666F7220 PUSH1 0x44 DUP3 ADD MSTORE PUSH17 0x3737B732BC34B9BA32B73A103A37B5B2B7 PUSH1 0x79 SHL PUSH1 0x64 DUP3 ADD MSTORE PUSH1 0x84 ADD PUSH2 0x3A2 JUMP JUMPDEST PUSH1 0x0 DUP3 DUP2 MSTORE PUSH1 0x6 PUSH1 0x20 MSTORE PUSH1 0x40 DUP2 KECCAK256 DUP1 SLOAD PUSH2 0x707 SWAP1 PUSH2 0x15E8 JUMP JUMPDEST DUP1 PUSH1 0x1F ADD PUSH1 0x20 DUP1 SWAP2 DIV MUL PUSH1 0x20 ADD PUSH1 0x40 MLOAD SWAP1 DUP2 ADD PUSH1 0x40 MSTORE DUP1 SWAP3 SWAP2 SWAP1 DUP2 DUP2 MSTORE PUSH1 0x20 ADD DUP3 DUP1 SLOAD PUSH2 0x733 SWAP1 PUSH2 0x15E8 JUMP JUMPDEST DUP1 ISZERO PUSH2 0x780 JUMPI DUP1 PUSH1 0x1F LT PUSH2 0x755 JUMPI PUSH2 0x100 DUP1 DUP4 SLOAD DIV MUL DUP4 MSTORE SWAP2 PUSH1 0x20 ADD SWAP2 PUSH2 0x780 JUMP JUMPDEST DUP3 ADD SWAP2 SWAP1 PUSH1 0x0 MSTORE PUSH1 0x20 PUSH1 0x0 KECCAK256 SWAP1 JUMPDEST DUP2 SLOAD DUP2 MSTORE SWAP1 PUSH1 0x1 ADD SWAP1 PUSH1 0x20 ADD DUP1 DUP4 GT PUSH2 0x763 JUMPI DUP3 SWAP1 SUB PUSH1 0x1F AND DUP3 ADD SWAP2 JUMPDEST POP POP POP POP POP SWAP1 POP PUSH1 0x0 PUSH2 0x79E PUSH1 0x40 DUP1 MLOAD PUSH1 0x20 DUP2 ADD SWAP1 SWAP2 MSTORE PUSH1 0x0 DUP2 MSTORE SWAP1 JUMP JUMPDEST SWAP1 POP DUP1 MLOAD PUSH1 0x0 EQ ISZERO PUSH2 0x7B1 JUMPI POP SWAP3 SWAP2 POP POP JUMP JUMPDEST DUP2 MLOAD ISZERO PUSH2 0x7E3 JUMPI DUP1 DUP3 PUSH1 0x40 MLOAD PUSH1 0x20 ADD PUSH2 0x7CB SWAP3 SWAP2 SWAP1 PUSH2 0x1457 JUMP JUMPDEST PUSH1 0x40 MLOAD PUSH1 0x20 DUP2 DUP4 SUB SUB DUP2 MSTORE SWAP1 PUSH1 0x40 MSTORE SWAP3 POP POP POP SWAP2 SWAP1 POP JUMP JUMPDEST PUSH2 0x7EC DUP5 PUSH2 0xC3F JUMP JUMPDEST SWAP5 SWAP4 POP POP POP POP JUMP JUMPDEST PUSH1 0x0 PUSH2 0x804 PUSH1 0x7 DUP1 SLOAD PUSH1 0x1 ADD SWAP1 SSTORE JUMP JUMPDEST PUSH1 0x0 PUSH2 0x80F PUSH1 0x7 SLOAD SWAP1 JUMP JUMPDEST SWAP1 POP PUSH2 0x81B DUP5 DUP3 PUSH2 0xD16 JUMP JUMPDEST PUSH2 0x825 DUP2 DUP5 PUSH2 0xE49 JUMP JUMPDEST SWAP4 SWAP3 POP POP POP JUMP JUMPDEST PUSH1 0x0 SWAP1 DUP2 MSTORE PUSH1 0x2 PUSH1 0x20 MSTORE PUSH1 0x40 SWAP1 KECCAK256 SLOAD PUSH1 0x1 PUSH1 0x1 PUSH1 0xA0 SHL SUB AND ISZERO ISZERO SWAP1 JUMP JUMPDEST PUSH1 0x0 DUP2 DUP2 MSTORE PUSH1 0x4 PUSH1 0x20 MSTORE PUSH1 0x40 SWAP1 KECCAK256 DUP1 SLOAD PUSH1 0x1 PUSH1 0x1 PUSH1 0xA0 SHL SUB NOT AND PUSH1 0x1 PUSH1 0x1 PUSH1 0xA0 SHL SUB DUP5 AND SWAP1 DUP2 OR SWAP1 SWAP2 SSTORE DUP2 SWAP1 PUSH2 0x87E DUP3 PUSH2 0x529 JUMP JUMPDEST PUSH1 0x1 PUSH1 0x1 PUSH1 0xA0 SHL SUB AND PUSH32 0x8C5BE1E5EBEC7D5BD14F71427D1E84F3DD0314C0F7B2291E5B200AC8C7C3B925 PUSH1 0x40 MLOAD PUSH1 0x40 MLOAD DUP1 SWAP2 SUB SWAP1 LOG4 POP POP JUMP JUMPDEST PUSH1 0x0 PUSH2 0x8C2 DUP3 PUSH2 0x82C JUMP JUMPDEST PUSH2 0x923 JUMPI PUSH1 0x40 MLOAD PUSH3 0x461BCD PUSH1 0xE5 SHL DUP2 MSTORE PUSH1 0x20 PUSH1 0x4 DUP3 ADD MSTORE PUSH1 0x2C PUSH1 0x24 DUP3 ADD MSTORE PUSH32 0x4552433732313A206F70657261746F7220717565727920666F72206E6F6E6578 PUSH1 0x44 DUP3 ADD MSTORE PUSH12 0x34B9BA32B73A103A37B5B2B7 PUSH1 0xA1 SHL PUSH1 0x64 DUP3 ADD MSTORE PUSH1 0x84 ADD PUSH2 0x3A2 JUMP JUMPDEST PUSH1 0x0 PUSH2 0x92E DUP4 PUSH2 0x529 JUMP JUMPDEST SWAP1 POP DUP1 PUSH1 0x1 PUSH1 0x1 PUSH1 0xA0 SHL SUB AND DUP5 PUSH1 0x1 PUSH1 0x1 PUSH1 0xA0 SHL SUB AND EQ DUP1 PUSH2 0x969 JUMPI POP DUP4 PUSH1 0x1 PUSH1 0x1 PUSH1 0xA0 SHL SUB AND PUSH2 0x95E DUP5 PUSH2 0x33A JUMP JUMPDEST PUSH1 0x1 PUSH1 0x1 PUSH1 0xA0 SHL SUB AND EQ JUMPDEST DUP1 PUSH2 0x7EC JUMPI POP PUSH1 0x1 PUSH1 0x1 PUSH1 0xA0 SHL SUB DUP1 DUP3 AND PUSH1 0x0 SWAP1 DUP2 MSTORE PUSH1 0x5 PUSH1 0x20 SWAP1 DUP2 MSTORE PUSH1 0x40 DUP1 DUP4 KECCAK256 SWAP4 DUP9 AND DUP4 MSTORE SWAP3 SWAP1 MSTORE KECCAK256 SLOAD PUSH1 0xFF AND PUSH2 0x7EC JUMP JUMPDEST DUP3 PUSH1 0x1 PUSH1 0x1 PUSH1 0xA0 SHL SUB AND PUSH2 0x9B0 DUP3 PUSH2 0x529 JUMP JUMPDEST PUSH1 0x1 PUSH1 0x1 PUSH1 0xA0 SHL SUB AND EQ PUSH2 0xA18 JUMPI PUSH1 0x40 MLOAD PUSH3 0x461BCD PUSH1 0xE5 SHL DUP2 MSTORE PUSH1 0x20 PUSH1 0x4 DUP3 ADD MSTORE PUSH1 0x29 PUSH1 0x24 DUP3 ADD MSTORE PUSH32 0x4552433732313A207472616E73666572206F6620746F6B656E20746861742069 PUSH1 0x44 DUP3 ADD MSTORE PUSH9 0x39903737BA1037BBB7 PUSH1 0xB9 SHL PUSH1 0x64 DUP3 ADD MSTORE PUSH1 0x84 ADD PUSH2 0x3A2 JUMP JUMPDEST PUSH1 0x1 PUSH1 0x1 PUSH1 0xA0 SHL SUB DUP3 AND PUSH2 0xA7A JUMPI PUSH1 0x40 MLOAD PUSH3 0x461BCD PUSH1 0xE5 SHL DUP2 MSTORE PUSH1 0x20 PUSH1 0x4 DUP3 ADD MSTORE PUSH1 0x24 DUP1 DUP3 ADD MSTORE PUSH32 0x4552433732313A207472616E7366657220746F20746865207A65726F20616464 PUSH1 0x44 DUP3 ADD MSTORE PUSH4 0x72657373 PUSH1 0xE0 SHL PUSH1 0x64 DUP3 ADD MSTORE PUSH1 0x84 ADD PUSH2 0x3A2 JUMP JUMPDEST PUSH2 0xA85 PUSH1 0x0 DUP3 PUSH2 0x849 JUMP JUMPDEST PUSH1 0x1 PUSH1 0x1 PUSH1 0xA0 SHL SUB DUP4 AND PUSH1 0x0 SWAP1 DUP2 MSTORE PUSH1 0x3 PUSH1 0x20 MSTORE PUSH1 0x40 DUP2 KECCAK256 DUP1 SLOAD PUSH1 0x1 SWAP3 SWAP1 PUSH2 0xAAE SWAP1 DUP5 SWAP1 PUSH2 0x15A5 JUMP JUMPDEST SWAP1 SWAP2 SSTORE POP POP PUSH1 0x1 PUSH1 0x1 PUSH1 0xA0 SHL SUB DUP3 AND PUSH1 0x0 SWAP1 DUP2 MSTORE PUSH1 0x3 PUSH1 0x20 MSTORE PUSH1 0x40 DUP2 KECCAK256 DUP1 SLOAD PUSH1 0x1 SWAP3 SWAP1 PUSH2 0xADC SWAP1 DUP5 SWAP1 PUSH2 0x1579 JUMP JUMPDEST SWAP1 SWAP2 SSTORE POP POP PUSH1 0x0 DUP2 DUP2 MSTORE PUSH1 0x2 PUSH1 0x20 MSTORE PUSH1 0x40 DUP1 DUP3 KECCAK256 DUP1 SLOAD PUSH1 0x1 PUSH1 0x1 PUSH1 0xA0 SHL SUB NOT AND PUSH1 0x1 PUSH1 0x1 PUSH1 0xA0 SHL SUB DUP7 DUP2 AND SWAP2 DUP3 OR SWAP1 SWAP3 SSTORE SWAP2 MLOAD DUP5 SWAP4 SWAP2 DUP8 AND SWAP2 PUSH32 0xDDF252AD1BE2C89B69C2B068FC378DAA952BA7F163C4A11628F55A4DF523B3EF SWAP2 LOG4 POP POP POP JUMP JUMPDEST DUP2 PUSH1 0x1 PUSH1 0x1 PUSH1 0xA0 SHL SUB AND DUP4 PUSH1 0x1 PUSH1 0x1 PUSH1 0xA0 SHL SUB AND EQ ISZERO PUSH2 0xB9F JUMPI PUSH1 0x40 MLOAD PUSH3 0x461BCD PUSH1 0xE5 SHL DUP2 MSTORE PUSH1 0x20 PUSH1 0x4 DUP3 ADD MSTORE PUSH1 0x19 PUSH1 0x24 DUP3 ADD MSTORE PUSH32 0x4552433732313A20617070726F766520746F2063616C6C657200000000000000 PUSH1 0x44 DUP3 ADD MSTORE PUSH1 0x64 ADD PUSH2 0x3A2 JUMP JUMPDEST PUSH1 0x1 PUSH1 0x1 PUSH1 0xA0 SHL SUB DUP4 DUP2 AND PUSH1 0x0 DUP2 DUP2 MSTORE PUSH1 0x5 PUSH1 0x20 SWAP1 DUP2 MSTORE PUSH1 0x40 DUP1 DUP4 KECCAK256 SWAP5 DUP8 AND DUP1 DUP5 MSTORE SWAP5 DUP3 MSTORE SWAP2 DUP3 SWAP1 KECCAK256 DUP1 SLOAD PUSH1 0xFF NOT AND DUP7 ISZERO ISZERO SWAP1 DUP2 OR SWAP1 SWAP2 SSTORE SWAP2 MLOAD SWAP2 DUP3 MSTORE PUSH32 0x17307EAB39AB6107E8899845AD3D59BD9653F200F220920489CA2B5937696C31 SWAP2 ADD PUSH1 0x40 MLOAD DUP1 SWAP2 SUB SWAP1 LOG3 POP POP POP JUMP JUMPDEST PUSH2 0xC17 DUP5 DUP5 DUP5 PUSH2 0x99D JUMP JUMPDEST PUSH2 0xC23 DUP5 DUP5 DUP5 DUP5 PUSH2 0xED4 JUMP JUMPDEST PUSH2 0x677 JUMPI PUSH1 0x40 MLOAD PUSH3 0x461BCD PUSH1 0xE5 SHL DUP2 MSTORE PUSH1 0x4 ADD PUSH2 0x3A2 SWAP1 PUSH2 0x14D6 JUMP JUMPDEST PUSH1 0x60 PUSH2 0xC4A DUP3 PUSH2 0x82C JUMP JUMPDEST PUSH2 0xCAE JUMPI PUSH1 0x40 MLOAD PUSH3 0x461BCD PUSH1 0xE5 SHL DUP2 MSTORE PUSH1 0x20 PUSH1 0x4 DUP3 ADD MSTORE PUSH1 0x2F PUSH1 0x24 DUP3 ADD MSTORE PUSH32 0x4552433732314D657461646174613A2055524920717565727920666F72206E6F PUSH1 0x44 DUP3 ADD MSTORE PUSH15 0x3732BC34B9BA32B73A103A37B5B2B7 PUSH1 0x89 SHL PUSH1 0x64 DUP3 ADD MSTORE PUSH1 0x84 ADD PUSH2 0x3A2 JUMP JUMPDEST PUSH1 0x0 PUSH2 0xCC5 PUSH1 0x40 DUP1 MLOAD PUSH1 0x20 DUP2 ADD SWAP1 SWAP2 MSTORE PUSH1 0x0 DUP2 MSTORE SWAP1 JUMP JUMPDEST SWAP1 POP PUSH1 0x0 DUP2 MLOAD GT PUSH2 0xCE5 JUMPI PUSH1 0x40 MLOAD DUP1 PUSH1 0x20 ADD PUSH1 0x40 MSTORE DUP1 PUSH1 0x0 DUP2 MSTORE POP PUSH2 0x825 JUMP JUMPDEST DUP1 PUSH2 0xCEF DUP5 PUSH2 0xFE1 JUMP JUMPDEST PUSH1 0x40 MLOAD PUSH1 0x20 ADD PUSH2 0xD00 SWAP3 SWAP2 SWAP1 PUSH2 0x1457 JUMP JUMPDEST PUSH1 0x40 MLOAD PUSH1 0x20 DUP2 DUP4 SUB SUB DUP2 MSTORE SWAP1 PUSH1 0x40 MSTORE SWAP4 SWAP3 POP POP POP JUMP JUMPDEST PUSH1 0x1 PUSH1 0x1 PUSH1 0xA0 SHL SUB DUP3 AND PUSH2 0xD6C JUMPI PUSH1 0x40 MLOAD PUSH3 0x461BCD PUSH1 0xE5 SHL DUP2 MSTORE PUSH1 0x20 PUSH1 0x4 DUP3 ADD DUP2 SWAP1 MSTORE PUSH1 0x24 DUP3 ADD MSTORE PUSH32 0x4552433732313A206D696E7420746F20746865207A65726F2061646472657373 PUSH1 0x44 DUP3 ADD MSTORE PUSH1 0x64 ADD PUSH2 0x3A2 JUMP JUMPDEST PUSH2 0xD75 DUP2 PUSH2 0x82C JUMP JUMPDEST ISZERO PUSH2 0xDC2 JUMPI PUSH1 0x40 MLOAD PUSH3 0x461BCD PUSH1 0xE5 SHL DUP2 MSTORE PUSH1 0x20 PUSH1 0x4 DUP3 ADD MSTORE PUSH1 0x1C PUSH1 0x24 DUP3 ADD MSTORE PUSH32 0x4552433732313A20746F6B656E20616C7265616479206D696E74656400000000 PUSH1 0x44 DUP3 ADD MSTORE PUSH1 0x64 ADD PUSH2 0x3A2 JUMP JUMPDEST PUSH1 0x1 PUSH1 0x1 PUSH1 0xA0 SHL SUB DUP3 AND PUSH1 0x0 SWAP1 DUP2 MSTORE PUSH1 0x3 PUSH1 0x20 MSTORE PUSH1 0x40 DUP2 KECCAK256 DUP1 SLOAD PUSH1 0x1 SWAP3 SWAP1 PUSH2 0xDEB SWAP1 DUP5 SWAP1 PUSH2 0x1579 JUMP JUMPDEST SWAP1 SWAP2 SSTORE POP POP PUSH1 0x0 DUP2 DUP2 MSTORE PUSH1 0x2 PUSH1 0x20 MSTORE PUSH1 0x40 DUP1 DUP3 KECCAK256 DUP1 SLOAD PUSH1 0x1 PUSH1 0x1 PUSH1 0xA0 SHL SUB NOT AND PUSH1 0x1 PUSH1 0x1 PUSH1 0xA0 SHL SUB DUP7 AND SWAP1 DUP2 OR SWAP1 SWAP2 SSTORE SWAP1 MLOAD DUP4 SWAP3 SWAP1 PUSH32 0xDDF252AD1BE2C89B69C2B068FC378DAA952BA7F163C4A11628F55A4DF523B3EF SWAP1 DUP3 SWAP1 LOG4 POP POP JUMP JUMPDEST PUSH2 0xE52 DUP3 PUSH2 0x82C JUMP JUMPDEST PUSH2 0xEB5 JUMPI PUSH1 0x40 MLOAD PUSH3 0x461BCD PUSH1 0xE5 SHL DUP2 MSTORE PUSH1 0x20 PUSH1 0x4 DUP3 ADD MSTORE PUSH1 0x2E PUSH1 0x24 DUP3 ADD MSTORE PUSH32 0x45524337323155524953746F726167653A2055524920736574206F66206E6F6E PUSH1 0x44 DUP3 ADD MSTORE PUSH14 0x32BC34B9BA32B73A103A37B5B2B7 PUSH1 0x91 SHL PUSH1 0x64 DUP3 ADD MSTORE PUSH1 0x84 ADD PUSH2 0x3A2 JUMP JUMPDEST PUSH1 0x0 DUP3 DUP2 MSTORE PUSH1 0x6 PUSH1 0x20 SWAP1 DUP2 MSTORE PUSH1 0x40 SWAP1 SWAP2 KECCAK256 DUP3 MLOAD PUSH2 0x4D8 SWAP3 DUP5 ADD SWAP1 PUSH2 0x10DF JUMP JUMPDEST PUSH1 0x0 PUSH1 0x1 PUSH1 0x1 PUSH1 0xA0 SHL SUB DUP5 AND EXTCODESIZE ISZERO PUSH2 0xFD6 JUMPI PUSH1 0x40 MLOAD PUSH4 0xA85BD01 PUSH1 0xE1 SHL DUP2 MSTORE PUSH1 0x1 PUSH1 0x1 PUSH1 0xA0 SHL SUB DUP6 AND SWAP1 PUSH4 0x150B7A02 SWAP1 PUSH2 0xF18 SWAP1 CALLER SWAP1 DUP10 SWAP1 DUP9 SWAP1 DUP9 SWAP1 PUSH1 0x4 ADD PUSH2 0x1486 JUMP JUMPDEST PUSH1 0x20 PUSH1 0x40 MLOAD DUP1 DUP4 SUB DUP2 PUSH1 0x0 DUP8 DUP1 EXTCODESIZE ISZERO DUP1 ISZERO PUSH2 0xF32 JUMPI PUSH1 0x0 DUP1 REVERT JUMPDEST POP GAS CALL SWAP3 POP POP POP DUP1 ISZERO PUSH2 0xF62 JUMPI POP PUSH1 0x40 DUP1 MLOAD PUSH1 0x1F RETURNDATASIZE SWAP1 DUP2 ADD PUSH1 0x1F NOT AND DUP3 ADD SWAP1 SWAP3 MSTORE PUSH2 0xF5F SWAP2 DUP2 ADD SWAP1 PUSH2 0x13F5 JUMP JUMPDEST PUSH1 0x1 JUMPDEST PUSH2 0xFBC JUMPI RETURNDATASIZE DUP1 DUP1 ISZERO PUSH2 0xF90 JUMPI PUSH1 0x40 MLOAD SWAP2 POP PUSH1 0x1F NOT PUSH1 0x3F RETURNDATASIZE ADD AND DUP3 ADD PUSH1 0x40 MSTORE RETURNDATASIZE DUP3 MSTORE RETURNDATASIZE PUSH1 0x0 PUSH1 0x20 DUP5 ADD RETURNDATACOPY PUSH2 0xF95 JUMP JUMPDEST PUSH1 0x60 SWAP2 POP JUMPDEST POP DUP1 MLOAD PUSH2 0xFB4 JUMPI PUSH1 0x40 MLOAD PUSH3 0x461BCD PUSH1 0xE5 SHL DUP2 MSTORE PUSH1 0x4 ADD PUSH2 0x3A2 SWAP1 PUSH2 0x14D6 JUMP JUMPDEST DUP1 MLOAD DUP2 PUSH1 0x20 ADD REVERT JUMPDEST PUSH1 0x1 PUSH1 0x1 PUSH1 0xE0 SHL SUB NOT AND PUSH4 0xA85BD01 PUSH1 0xE1 SHL EQ SWAP1 POP PUSH2 0x7EC JUMP JUMPDEST POP PUSH1 0x1 SWAP5 SWAP4 POP POP POP POP JUMP JUMPDEST PUSH1 0x60 DUP2 PUSH2 0x1005 JUMPI POP POP PUSH1 0x40 DUP1 MLOAD DUP1 DUP3 ADD SWAP1 SWAP2 MSTORE PUSH1 0x1 DUP2 MSTORE PUSH1 0x3 PUSH1 0xFC SHL PUSH1 0x20 DUP3 ADD MSTORE SWAP1 JUMP JUMPDEST DUP2 PUSH1 0x0 JUMPDEST DUP2 ISZERO PUSH2 0x102F JUMPI DUP1 PUSH2 0x1019 DUP2 PUSH2 0x1623 JUMP JUMPDEST SWAP2 POP PUSH2 0x1028 SWAP1 POP PUSH1 0xA DUP4 PUSH2 0x1591 JUMP JUMPDEST SWAP2 POP PUSH2 0x1009 JUMP JUMPDEST PUSH1 0x0 DUP2 PUSH8 0xFFFFFFFFFFFFFFFF DUP2 GT ISZERO PUSH2 0x104A JUMPI PUSH2 0x104A PUSH2 0x1694 JUMP JUMPDEST PUSH1 0x40 MLOAD SWAP1 DUP1 DUP3 MSTORE DUP1 PUSH1 0x1F ADD PUSH1 0x1F NOT AND PUSH1 0x20 ADD DUP3 ADD PUSH1 0x40 MSTORE DUP1 ISZERO PUSH2 0x1074 JUMPI PUSH1 0x20 DUP3 ADD DUP2 DUP1 CALLDATASIZE DUP4 CALLDATACOPY ADD SWAP1 POP JUMPDEST POP SWAP1 POP JUMPDEST DUP5 ISZERO PUSH2 0x7EC JUMPI PUSH2 0x1089 PUSH1 0x1 DUP4 PUSH2 0x15A5 JUMP JUMPDEST SWAP2 POP PUSH2 0x1096 PUSH1 0xA DUP7 PUSH2 0x163E JUMP JUMPDEST PUSH2 0x10A1 SWAP1 PUSH1 0x30 PUSH2 0x1579 JUMP JUMPDEST PUSH1 0xF8 SHL DUP2 DUP4 DUP2 MLOAD DUP2 LT PUSH2 0x10B6 JUMPI PUSH2 0x10B6 PUSH2 0x167E JUMP JUMPDEST PUSH1 0x20 ADD ADD SWAP1 PUSH1 0x1 PUSH1 0x1 PUSH1 0xF8 SHL SUB NOT AND SWAP1 DUP2 PUSH1 0x0 BYTE SWAP1 MSTORE8 POP PUSH2 0x10D8 PUSH1 0xA DUP7 PUSH2 0x1591 JUMP JUMPDEST SWAP5 POP PUSH2 0x1078 JUMP JUMPDEST DUP3 DUP1 SLOAD PUSH2 0x10EB SWAP1 PUSH2 0x15E8 JUMP JUMPDEST SWAP1 PUSH1 0x0 MSTORE PUSH1 0x20 PUSH1 0x0 KECCAK256 SWAP1 PUSH1 0x1F ADD PUSH1 0x20 SWAP1 DIV DUP2 ADD SWAP3 DUP3 PUSH2 0x110D JUMPI PUSH1 0x0 DUP6 SSTORE PUSH2 0x1153 JUMP JUMPDEST DUP3 PUSH1 0x1F LT PUSH2 0x1126 JUMPI DUP1 MLOAD PUSH1 0xFF NOT AND DUP4 DUP1 ADD OR DUP6 SSTORE PUSH2 0x1153 JUMP JUMPDEST DUP3 DUP1 ADD PUSH1 0x1 ADD DUP6 SSTORE DUP3 ISZERO PUSH2 0x1153 JUMPI SWAP2 DUP3 ADD JUMPDEST DUP3 DUP2 GT ISZERO PUSH2 0x1153 JUMPI DUP3 MLOAD DUP3 SSTORE SWAP2 PUSH1 0x20 ADD SWAP2 SWAP1 PUSH1 0x1 ADD SWAP1 PUSH2 0x1138 JUMP JUMPDEST POP PUSH2 0x115F SWAP3 SWAP2 POP PUSH2 0x1163 JUMP JUMPDEST POP SWAP1 JUMP JUMPDEST JUMPDEST DUP1 DUP3 GT ISZERO PUSH2 0x115F JUMPI PUSH1 0x0 DUP2 SSTORE PUSH1 0x1 ADD PUSH2 0x1164 JUMP JUMPDEST PUSH1 0x0 PUSH8 0xFFFFFFFFFFFFFFFF DUP1 DUP5 GT ISZERO PUSH2 0x1193 JUMPI PUSH2 0x1193 PUSH2 0x1694 JUMP JUMPDEST PUSH1 0x40 MLOAD PUSH1 0x1F DUP6 ADD PUSH1 0x1F NOT SWAP1 DUP2 AND PUSH1 0x3F ADD AND DUP2 ADD SWAP1 DUP3 DUP3 GT DUP2 DUP4 LT OR ISZERO PUSH2 0x11BB JUMPI PUSH2 0x11BB PUSH2 0x1694 JUMP JUMPDEST DUP2 PUSH1 0x40 MSTORE DUP1 SWAP4 POP DUP6 DUP2 MSTORE DUP7 DUP7 DUP7 ADD GT ISZERO PUSH2 0x11D4 JUMPI PUSH1 0x0 DUP1 REVERT JUMPDEST DUP6 DUP6 PUSH1 0x20 DUP4 ADD CALLDATACOPY PUSH1 0x0 PUSH1 0x20 DUP8 DUP4 ADD ADD MSTORE POP POP POP SWAP4 SWAP3 POP POP POP JUMP JUMPDEST DUP1 CALLDATALOAD PUSH1 0x1 PUSH1 0x1 PUSH1 0xA0 SHL SUB DUP2 AND DUP2 EQ PUSH2 0x1205 JUMPI PUSH1 0x0 DUP1 REVERT JUMPDEST SWAP2 SWAP1 POP JUMP JUMPDEST PUSH1 0x0 PUSH1 0x20 DUP3 DUP5 SUB SLT ISZERO PUSH2 0x121C JUMPI PUSH1 0x0 DUP1 REVERT JUMPDEST PUSH2 0x825 DUP3 PUSH2 0x11EE JUMP JUMPDEST PUSH1 0x0 DUP1 PUSH1 0x40 DUP4 DUP6 SUB SLT ISZERO PUSH2 0x1238 JUMPI PUSH1 0x0 DUP1 REVERT JUMPDEST PUSH2 0x1241 DUP4 PUSH2 0x11EE JUMP JUMPDEST SWAP2 POP PUSH2 0x124F PUSH1 0x20 DUP5 ADD PUSH2 0x11EE JUMP JUMPDEST SWAP1 POP SWAP3 POP SWAP3 SWAP1 POP JUMP JUMPDEST PUSH1 0x0 DUP1 PUSH1 0x0 PUSH1 0x60 DUP5 DUP7 SUB SLT ISZERO PUSH2 0x126D JUMPI PUSH1 0x0 DUP1 REVERT JUMPDEST PUSH2 0x1276 DUP5 PUSH2 0x11EE JUMP JUMPDEST SWAP3 POP PUSH2 0x1284 PUSH1 0x20 DUP6 ADD PUSH2 0x11EE JUMP JUMPDEST SWAP2 POP PUSH1 0x40 DUP5 ADD CALLDATALOAD SWAP1 POP SWAP3 POP SWAP3 POP SWAP3 JUMP JUMPDEST PUSH1 0x0 DUP1 PUSH1 0x0 DUP1 PUSH1 0x80 DUP6 DUP8 SUB SLT ISZERO PUSH2 0x12AA JUMPI PUSH1 0x0 DUP1 REVERT JUMPDEST PUSH2 0x12B3 DUP6 PUSH2 0x11EE JUMP JUMPDEST SWAP4 POP PUSH2 0x12C1 PUSH1 0x20 DUP7 ADD PUSH2 0x11EE JUMP JUMPDEST SWAP3 POP PUSH1 0x40 DUP6 ADD CALLDATALOAD SWAP2 POP PUSH1 0x60 DUP6 ADD CALLDATALOAD PUSH8 0xFFFFFFFFFFFFFFFF DUP2 GT ISZERO PUSH2 0x12E4 JUMPI PUSH1 0x0 DUP1 REVERT JUMPDEST DUP6 ADD PUSH1 0x1F DUP2 ADD DUP8 SGT PUSH2 0x12F5 JUMPI PUSH1 0x0 DUP1 REVERT JUMPDEST PUSH2 0x1304 DUP8 DUP3 CALLDATALOAD PUSH1 0x20 DUP5 ADD PUSH2 0x1178 JUMP JUMPDEST SWAP2 POP POP SWAP3 SWAP6 SWAP2 SWAP5 POP SWAP3 POP JUMP JUMPDEST PUSH1 0x0 DUP1 PUSH1 0x40 DUP4 DUP6 SUB SLT ISZERO PUSH2 0x1323 JUMPI PUSH1 0x0 DUP1 REVERT JUMPDEST PUSH2 0x132C DUP4 PUSH2 0x11EE JUMP JUMPDEST SWAP2 POP PUSH1 0x20 DUP4 ADD CALLDATALOAD DUP1 ISZERO ISZERO DUP2 EQ PUSH2 0x1341 JUMPI PUSH1 0x0 DUP1 REVERT JUMPDEST DUP1 SWAP2 POP POP SWAP3 POP SWAP3 SWAP1 POP JUMP JUMPDEST PUSH1 0x0 DUP1 PUSH1 0x40 DUP4 DUP6 SUB SLT ISZERO PUSH2 0x135F JUMPI PUSH1 0x0 DUP1 REVERT JUMPDEST PUSH2 0x1368 DUP4 PUSH2 0x11EE JUMP JUMPDEST SWAP2 POP PUSH1 0x20 DUP4 ADD CALLDATALOAD PUSH8 0xFFFFFFFFFFFFFFFF DUP2 GT ISZERO PUSH2 0x1384 JUMPI PUSH1 0x0 DUP1 REVERT JUMPDEST DUP4 ADD PUSH1 0x1F DUP2 ADD DUP6 SGT PUSH2 0x1395 JUMPI PUSH1 0x0 DUP1 REVERT JUMPDEST PUSH2 0x13A4 DUP6 DUP3 CALLDATALOAD PUSH1 0x20 DUP5 ADD PUSH2 0x1178 JUMP JUMPDEST SWAP2 POP POP SWAP3 POP SWAP3 SWAP1 POP JUMP JUMPDEST PUSH1 0x0 DUP1 PUSH1 0x40 DUP4 DUP6 SUB SLT ISZERO PUSH2 0x13C1 JUMPI PUSH1 0x0 DUP1 REVERT JUMPDEST PUSH2 0x13CA DUP4 PUSH2 0x11EE JUMP JUMPDEST SWAP5 PUSH1 0x20 SWAP4 SWAP1 SWAP4 ADD CALLDATALOAD SWAP4 POP POP POP JUMP JUMPDEST PUSH1 0x0 PUSH1 0x20 DUP3 DUP5 SUB SLT ISZERO PUSH2 0x13EA JUMPI PUSH1 0x0 DUP1 REVERT JUMPDEST DUP2 CALLDATALOAD PUSH2 0x825 DUP2 PUSH2 0x16AA JUMP JUMPDEST PUSH1 0x0 PUSH1 0x20 DUP3 DUP5 SUB SLT ISZERO PUSH2 0x1407 JUMPI PUSH1 0x0 DUP1 REVERT JUMPDEST DUP2 MLOAD PUSH2 0x825 DUP2 PUSH2 0x16AA JUMP JUMPDEST PUSH1 0x0 PUSH1 0x20 DUP3 DUP5 SUB SLT ISZERO PUSH2 0x1424 JUMPI PUSH1 0x0 DUP1 REVERT JUMPDEST POP CALLDATALOAD SWAP2 SWAP1 POP JUMP JUMPDEST PUSH1 0x0 DUP2 MLOAD DUP1 DUP5 MSTORE PUSH2 0x1443 DUP2 PUSH1 0x20 DUP7 ADD PUSH1 0x20 DUP7 ADD PUSH2 0x15BC JUMP JUMPDEST PUSH1 0x1F ADD PUSH1 0x1F NOT AND SWAP3 SWAP1 SWAP3 ADD PUSH1 0x20 ADD SWAP3 SWAP2 POP POP JUMP JUMPDEST PUSH1 0x0 DUP4 MLOAD PUSH2 0x1469 DUP2 DUP5 PUSH1 0x20 DUP9 ADD PUSH2 0x15BC JUMP JUMPDEST DUP4 MLOAD SWAP1 DUP4 ADD SWAP1 PUSH2 0x147D DUP2 DUP4 PUSH1 0x20 DUP9 ADD PUSH2 0x15BC JUMP JUMPDEST ADD SWAP5 SWAP4 POP POP POP POP JUMP JUMPDEST PUSH1 0x1 PUSH1 0x1 PUSH1 0xA0 SHL SUB DUP6 DUP2 AND DUP3 MSTORE DUP5 AND PUSH1 0x20 DUP3 ADD MSTORE PUSH1 0x40 DUP2 ADD DUP4 SWAP1 MSTORE PUSH1 0x80 PUSH1 0x60 DUP3 ADD DUP2 SWAP1 MSTORE PUSH1 0x0 SWAP1 PUSH2 0x14B9 SWAP1 DUP4 ADD DUP5 PUSH2 0x142B JUMP JUMPDEST SWAP7 SWAP6 POP POP POP POP POP POP JUMP JUMPDEST PUSH1 0x20 DUP2 MSTORE PUSH1 0x0 PUSH2 0x825 PUSH1 0x20 DUP4 ADD DUP5 PUSH2 0x142B JUMP JUMPDEST PUSH1 0x20 DUP1 DUP3 MSTORE PUSH1 0x32 SWAP1 DUP3 ADD MSTORE PUSH32 0x4552433732313A207472616E7366657220746F206E6F6E204552433732315265 PUSH1 0x40 DUP3 ADD MSTORE PUSH18 0x31B2B4BB32B91034B6B83632B6B2B73A32B9 PUSH1 0x71 SHL PUSH1 0x60 DUP3 ADD MSTORE PUSH1 0x80 ADD SWAP1 JUMP JUMPDEST PUSH1 0x20 DUP1 DUP3 MSTORE PUSH1 0x31 SWAP1 DUP3 ADD MSTORE PUSH32 0x4552433732313A207472616E736665722063616C6C6572206973206E6F74206F PUSH1 0x40 DUP3 ADD MSTORE PUSH17 0x1DDB995C881B9BDC88185C1C1C9BDD9959 PUSH1 0x7A SHL PUSH1 0x60 DUP3 ADD MSTORE PUSH1 0x80 ADD SWAP1 JUMP JUMPDEST PUSH1 0x0 DUP3 NOT DUP3 GT ISZERO PUSH2 0x158C JUMPI PUSH2 0x158C PUSH2 0x1652 JUMP JUMPDEST POP ADD SWAP1 JUMP JUMPDEST PUSH1 0x0 DUP3 PUSH2 0x15A0 JUMPI PUSH2 0x15A0 PUSH2 0x1668 JUMP JUMPDEST POP DIV SWAP1 JUMP JUMPDEST PUSH1 0x0 DUP3 DUP3 LT ISZERO PUSH2 0x15B7 JUMPI PUSH2 0x15B7 PUSH2 0x1652 JUMP JUMPDEST POP SUB SWAP1 JUMP JUMPDEST PUSH1 0x0 JUMPDEST DUP4 DUP2 LT ISZERO PUSH2 0x15D7 JUMPI DUP2 DUP2 ADD MLOAD DUP4 DUP3 ADD MSTORE PUSH1 0x20 ADD PUSH2 0x15BF JUMP JUMPDEST DUP4 DUP2 GT ISZERO PUSH2 0x677 JUMPI POP POP PUSH1 0x0 SWAP2 ADD MSTORE JUMP JUMPDEST PUSH1 0x1 DUP2 DUP2 SHR SWAP1 DUP3 AND DUP1 PUSH2 0x15FC JUMPI PUSH1 0x7F DUP3 AND SWAP2 POP JUMPDEST PUSH1 0x20 DUP3 LT DUP2 EQ ISZERO PUSH2 0x161D JUMPI PUSH4 0x4E487B71 PUSH1 0xE0 SHL PUSH1 0x0 MSTORE PUSH1 0x22 PUSH1 0x4 MSTORE PUSH1 0x24 PUSH1 0x0 REVERT JUMPDEST POP SWAP2 SWAP1 POP JUMP JUMPDEST PUSH1 0x0 PUSH1 0x0 NOT DUP3 EQ ISZERO PUSH2 0x1637 JUMPI PUSH2 0x1637 PUSH2 0x1652 JUMP JUMPDEST POP PUSH1 0x1 ADD SWAP1 JUMP JUMPDEST PUSH1 0x0 DUP3 PUSH2 0x164D JUMPI PUSH2 0x164D PUSH2 0x1668 JUMP JUMPDEST POP MOD SWAP1 JUMP JUMPDEST PUSH4 0x4E487B71 PUSH1 0xE0 SHL PUSH1 0x0 MSTORE PUSH1 0x11 PUSH1 0x4 MSTORE PUSH1 0x24 PUSH1 0x0 REVERT JUMPDEST PUSH4 0x4E487B71 PUSH1 0xE0 SHL PUSH1 0x0 MSTORE PUSH1 0x12 PUSH1 0x4 MSTORE PUSH1 0x24 PUSH1 0x0 REVERT JUMPDEST PUSH4 0x4E487B71 PUSH1 0xE0 SHL PUSH1 0x0 MSTORE PUSH1 0x32 PUSH1 0x4 MSTORE PUSH1 0x24 PUSH1 0x0 REVERT JUMPDEST PUSH4 0x4E487B71 PUSH1 0xE0 SHL PUSH1 0x0 MSTORE PUSH1 0x41 PUSH1 0x4 MSTORE PUSH1 0x24 PUSH1 0x0 REVERT JUMPDEST PUSH1 0x1 PUSH1 0x1 PUSH1 0xE0 SHL SUB NOT DUP2 AND DUP2 EQ PUSH2 0x16C0 JUMPI PUSH1 0x0 DUP1 REVERT JUMPDEST POP JUMP INVALID LOG2 PUSH5 0x6970667358 0x22 SLT KECCAK256 0x5C 0xA9 0xEE XOR 0xB3 0xD4 PC 0xD3 KECCAK256 CHAINID KECCAK256 0x5E PUSH2 0xF368 PUSH8 0xEE40C5D52FC5BF62 PUSH15 0xF4516E029E53F264736F6C63430008 SMOD STOP CALLER "
				},
				"gasEstimates": {
					"creation": {
						"codeDepositCost": "1176200",
						"executionCost": "infinite",
						"totalCost": "infinite"
					},
					"external": {
						"approve(address,uint256)": "infinite",
						"awardItem(address,string)": "infinite",
						"balanceOf(address)": "2612",
						"getApproved(uint256)": "4799",
						"isApprovedForAll(address,address)": "infinite",
						"name()": "infinite",
						"ownerOf(uint256)": "2645",
						"safeTransferFrom(address,address,uint256)": "infinite",
						"safeTransferFrom(address,address,uint256,bytes)": "infinite",
						"setApprovalForAll(address,bool)": "26753",
						"supportsInterface(bytes4)": "534",
						"symbol()": "infinite",
						"tokenURI(uint256)": "infinite",
						"transferFrom(address,address,uint256)": "infinite"
					}
				},
				"methodIdentifiers": {
					"approve(address,uint256)": "095ea7b3",
					"awardItem(address,string)": "cf378343",
					"balanceOf(address)": "70a08231",
					"getApproved(uint256)": "081812fc",
					"isApprovedForAll(address,address)": "e985e9c5",
					"name()": "06fdde03",
					"ownerOf(uint256)": "6352211e",
					"safeTransferFrom(address,address,uint256)": "42842e0e",
					"safeTransferFrom(address,address,uint256,bytes)": "b88d4fde",
					"setApprovalForAll(address,bool)": "a22cb465",
					"supportsInterface(bytes4)": "01ffc9a7",
					"symbol()": "95d89b41",
					"tokenURI(uint256)": "c87b56dd",
					"transferFrom(address,address,uint256)": "23b872dd"
				}
			},
			"storageLayout": {
				"storage": [
					{
						"astId": 25,
						"contract": "contracts/WavyNFT.sol:WavyNFT",
						"label": "_name",
						"offset": 0,
						"slot": "0",
						"type": "t_string_storage"
					},
					{
						"astId": 27,
						"contract": "contracts/WavyNFT.sol:WavyNFT",
						"label": "_symbol",
						"offset": 0,
						"slot": "1",
						"type": "t_string_storage"
					},
					{
						"astId": 31,
						"contract": "contracts/WavyNFT.sol:WavyNFT",
						"label": "_owners",
						"offset": 0,
						"slot": "2",
						"type": "t_mapping(t_uint256,t_address)"
					},
					{
						"astId": 35,
						"contract": "contracts/WavyNFT.sol:WavyNFT",
						"label": "_balances",
						"offset": 0,
						"slot": "3",
						"type": "t_mapping(t_address,t_uint256)"
					},
					{
						"astId": 39,
						"contract": "contracts/WavyNFT.sol:WavyNFT",
						"label": "_tokenApprovals",
						"offset": 0,
						"slot": "4",
						"type": "t_mapping(t_uint256,t_address)"
					},
					{
						"astId": 45,
						"contract": "contracts/WavyNFT.sol:WavyNFT",
						"label": "_operatorApprovals",
						"offset": 0,
						"slot": "5",
						"type": "t_mapping(t_address,t_mapping(t_address,t_bool))"
					},
					{
						"astId": 977,
						"contract": "contracts/WavyNFT.sol:WavyNFT",
						"label": "_tokenURIs",
						"offset": 0,
						"slot": "6",
						"type": "t_mapping(t_uint256,t_string_storage)"
					},
					{
						"astId": 1764,
						"contract": "contracts/WavyNFT.sol:WavyNFT",
						"label": "_tokenIds",
						"offset": 0,
						"slot": "7",
						"type": "t_struct(Counter)1444_storage"
					}
				],
				"types": {
					"t_address": {
						"encoding": "inplace",
						"label": "address",
						"numberOfBytes": "20"
					},
					"t_bool": {
						"encoding": "inplace",
						"label": "bool",
						"numberOfBytes": "1"
					},
					"t_mapping(t_address,t_bool)": {
						"encoding": "mapping",
						"key": "t_address",
						"label": "mapping(address => bool)",
						"numberOfBytes": "32",
						"value": "t_bool"
					},
					"t_mapping(t_address,t_mapping(t_address,t_bool))": {
						"encoding": "mapping",
						"key": "t_address",
						"label": "mapping(address => mapping(address => bool))",
						"numberOfBytes": "32",
						"value": "t_mapping(t_address,t_bool)"
					},
					"t_mapping(t_address,t_uint256)": {
						"encoding": "mapping",
						"key": "t_address",
						"label": "mapping(address => uint256)",
						"numberOfBytes": "32",
						"value": "t_uint256"
					},
					"t_mapping(t_uint256,t_address)": {
						"encoding": "mapping",
						"key": "t_uint256",
						"label": "mapping(uint256 => address)",
						"numberOfBytes": "32",
						"value": "t_address"
					},
					"t_mapping(t_uint256,t_string_storage)": {
						"encoding": "mapping",
						"key": "t_uint256",
						"label": "mapping(uint256 => string)",
						"numberOfBytes": "32",
						"value": "t_string_storage"
					},
					"t_string_storage": {
						"encoding": "bytes",
						"label": "string",
						"numberOfBytes": "32"
					},
					"t_struct(Counter)1444_storage": {
						"encoding": "inplace",
						"label": "struct Counters.Counter",
						"members": [
							{
								"astId": 1443,
								"contract": "contracts/WavyNFT.sol:WavyNFT",
								"label": "_value",
								"offset": 0,
								"slot": "0",
								"type": "t_uint256"
							}
						],
						"numberOfBytes": "32"
					},
					"t_uint256": {
						"encoding": "inplace",
						"label": "uint256",
						"numberOfBytes": "32"
					}
				}
			},
			"userdoc": {
				"kind": "user",
				"methods": {},
				"version": 1
			}
		}
	}
}